{
  "_format": "hh-sol-artifact-1",
  "contractName": "VolcanoERC721Factory",
  "sourceName": "contracts/VolcanoERC721Factory.sol",
  "abi": [
    {
      "inputs": [
        {
          "internalType": "address",
          "name": "_auction",
          "type": "address"
        },
        {
          "internalType": "address",
          "name": "_marketplace",
          "type": "address"
        },
        {
          "internalType": "address",
          "name": "_bundleMarketplace",
          "type": "address"
        },
        {
          "internalType": "address payable",
          "name": "_feeRecipient",
          "type": "address"
        },
        {
          "internalType": "uint256",
          "name": "_platformFee",
          "type": "uint256"
        }
      ],
      "stateMutability": "nonpayable",
      "type": "constructor"
    },
    {
      "anonymous": false,
      "inputs": [
        {
          "indexed": false,
          "internalType": "address",
          "name": "creator",
          "type": "address"
        },
        {
          "indexed": false,
          "internalType": "address",
          "name": "nft",
          "type": "address"
        },
        {
          "indexed": false,
          "internalType": "bool",
          "name": "isprivate",
          "type": "bool"
        }
      ],
      "name": "ContractCreated",
      "type": "event"
    },
    {
      "anonymous": false,
      "inputs": [
        {
          "indexed": false,
          "internalType": "address",
          "name": "caller",
          "type": "address"
        },
        {
          "indexed": false,
          "internalType": "address",
          "name": "nft",
          "type": "address"
        }
      ],
      "name": "ContractDisabled",
      "type": "event"
    },
    {
      "anonymous": false,
      "inputs": [
        {
          "indexed": true,
          "internalType": "address",
          "name": "previousOwner",
          "type": "address"
        },
        {
          "indexed": true,
          "internalType": "address",
          "name": "newOwner",
          "type": "address"
        }
      ],
      "name": "OwnershipTransferred",
      "type": "event"
    },
    {
      "inputs": [],
      "name": "auction",
      "outputs": [
        {
          "internalType": "address",
          "name": "",
          "type": "address"
        }
      ],
      "stateMutability": "view",
      "type": "function"
    },
    {
      "inputs": [],
      "name": "bundleMarketplace",
      "outputs": [
        {
          "internalType": "address",
          "name": "",
          "type": "address"
        }
      ],
      "stateMutability": "view",
      "type": "function"
    },
    {
      "inputs": [
        {
          "internalType": "string",
          "name": "_name",
          "type": "string"
        },
        {
          "internalType": "string",
          "name": "_symbol",
          "type": "string"
        },
        {
          "internalType": "bool",
          "name": "_isprivate",
          "type": "bool"
        },
        {
          "internalType": "uint256",
          "name": "_mintFee",
          "type": "uint256"
        },
        {
          "internalType": "uint256",
          "name": "_creatorFee",
          "type": "uint256"
        },
        {
          "internalType": "address payable",
          "name": "_feeRecipient",
          "type": "address"
        }
      ],
      "name": "createNFTContract",
      "outputs": [
        {
          "internalType": "address",
          "name": "",
          "type": "address"
        }
      ],
      "stateMutability": "payable",
      "type": "function"
    },
    {
      "inputs": [
        {
          "internalType": "address",
          "name": "tokenContractAddress",
          "type": "address"
        }
      ],
      "name": "disableTokenContract",
      "outputs": [],
      "stateMutability": "nonpayable",
      "type": "function"
    },
    {
      "inputs": [
        {
          "internalType": "address",
          "name": "",
          "type": "address"
        }
      ],
      "name": "exists",
      "outputs": [
        {
          "internalType": "bool",
          "name": "",
          "type": "bool"
        }
      ],
      "stateMutability": "view",
      "type": "function"
    },
    {
      "inputs": [],
      "name": "feeRecipient",
      "outputs": [
        {
          "internalType": "address payable",
          "name": "",
          "type": "address"
        }
      ],
      "stateMutability": "view",
      "type": "function"
    },
    {
      "inputs": [
        {
          "internalType": "address",
          "name": "",
          "type": "address"
        }
      ],
      "name": "isprivate",
      "outputs": [
        {
          "internalType": "bool",
          "name": "",
          "type": "bool"
        }
      ],
      "stateMutability": "view",
      "type": "function"
    },
    {
      "inputs": [],
      "name": "marketplace",
      "outputs": [
        {
          "internalType": "address",
          "name": "",
          "type": "address"
        }
      ],
      "stateMutability": "view",
      "type": "function"
    },
    {
      "inputs": [],
      "name": "owner",
      "outputs": [
        {
          "internalType": "address",
          "name": "",
          "type": "address"
        }
      ],
      "stateMutability": "view",
      "type": "function"
    },
    {
      "inputs": [],
      "name": "platformFee",
      "outputs": [
        {
          "internalType": "uint256",
          "name": "",
          "type": "uint256"
        }
      ],
      "stateMutability": "view",
      "type": "function"
    },
    {
      "inputs": [
        {
          "internalType": "address",
          "name": "tokenContractAddress",
          "type": "address"
        },
        {
          "internalType": "bool",
          "name": "_isprivate",
          "type": "bool"
        }
      ],
      "name": "registerTokenContract",
      "outputs": [],
      "stateMutability": "nonpayable",
      "type": "function"
    },
    {
      "inputs": [],
      "name": "renounceOwnership",
      "outputs": [],
      "stateMutability": "nonpayable",
      "type": "function"
    },
    {
      "inputs": [
        {
          "internalType": "address",
          "name": "newOwner",
          "type": "address"
        }
      ],
      "name": "transferOwnership",
      "outputs": [],
      "stateMutability": "nonpayable",
      "type": "function"
    },
    {
      "inputs": [
        {
          "internalType": "address",
          "name": "_auction",
          "type": "address"
        }
      ],
      "name": "updateAuction",
      "outputs": [],
      "stateMutability": "nonpayable",
      "type": "function"
    },
    {
      "inputs": [
        {
          "internalType": "address",
          "name": "_bundleMarketplace",
          "type": "address"
        }
      ],
      "name": "updateBundleMarketplace",
      "outputs": [],
      "stateMutability": "nonpayable",
      "type": "function"
    },
    {
      "inputs": [
        {
          "internalType": "address payable",
          "name": "_feeRecipient",
          "type": "address"
        }
      ],
      "name": "updateFeeRecipient",
      "outputs": [],
      "stateMutability": "nonpayable",
      "type": "function"
    },
    {
      "inputs": [
        {
          "internalType": "address",
          "name": "_marketplace",
          "type": "address"
        }
      ],
      "name": "updateMarketplace",
      "outputs": [],
      "stateMutability": "nonpayable",
      "type": "function"
    },
    {
      "inputs": [
        {
          "internalType": "uint256",
          "name": "_platformFee",
          "type": "uint256"
        }
      ],
      "name": "updatePlatformFee",
      "outputs": [],
      "stateMutability": "nonpayable",
      "type": "function"
    }
  ],
  "bytecode": "0x608060405234801561001057600080fd5b50604051620038fb380380620038fb833981016040819052610031916100f8565b61003a33610090565b600180546001600160a01b03199081166001600160a01b03978816179091556002805482169587169590951790945560038054851693861693909317909255600580549093169316929092179055600455610163565b600080546001600160a01b038381166001600160a01b0319831681178455604051919092169283917f8be0079c531659141344cd1fd0a4f28419497f9722a3daafe3b4186f6b6457e09190a35050565b6001600160a01b03811681146100f557600080fd5b50565b600080600080600060a0868803121561011057600080fd5b855161011b816100e0565b602087015190955061012c816100e0565b604087015190945061013d816100e0565b606087015190935061014e816100e0565b80925050608086015190509295509295909350565b61378880620001736000396000f3fe6080604052600436106200011f5760003560e01c80639e1f5b2811620000a1578063d39bb16a116200006c578063d39bb16a146200031a578063eb636317146200033f578063f160d3691462000364578063f2fde38b1462000389578063f6a3d24e14620003ae57600080fd5b80639e1f5b28146200029a578063aa0b598814620002bc578063abc8c7af14620002e1578063ba49b0ef146200030357600080fd5b8063715018a611620000ee578063715018a614620001f65780637d9f6db5146200020e5780638da5cb5b14620002305780639c7d1a4e14620002505780639d0e24a7146200027557600080fd5b806326232a2e14620001245780633402a036146200014f57806346904840146200017657806350ac3f4714620001b1575b600080fd5b3480156200013157600080fd5b506200013c60045481565b6040519081526020015b60405180910390f35b3480156200015c57600080fd5b50620001746200016e36600462000aec565b620003e2565b005b3480156200018357600080fd5b5060055462000198906001600160a01b031681565b6040516001600160a01b03909116815260200162000146565b348015620001be57600080fd5b50620001e5620001d036600462000aec565b60076020526000908152604090205460ff1681565b604051901515815260200162000146565b3480156200020357600080fd5b50620001746200040e565b3480156200021b57600080fd5b5060015462000198906001600160a01b031681565b3480156200023d57600080fd5b506000546001600160a01b031662000198565b3480156200025d57600080fd5b50620001746200026f36600462000b22565b62000426565b3480156200028257600080fd5b50620001746200029436600462000aec565b620005d7565b348015620002a757600080fd5b5060035462000198906001600160a01b031681565b348015620002c957600080fd5b5062000174620002db36600462000b60565b62000603565b348015620002ee57600080fd5b5060025462000198906001600160a01b031681565b620001986200031436600462000c25565b62000612565b3480156200032757600080fd5b50620001746200033936600462000aec565b6200086a565b3480156200034c57600080fd5b50620001746200035e36600462000aec565b62000945565b3480156200037157600080fd5b50620001746200038336600462000aec565b62000971565b3480156200039657600080fd5b5062000174620003a836600462000aec565b6200099d565b348015620003bb57600080fd5b50620001e5620003cd36600462000aec565b60066020526000908152604090205460ff1681565b620003ec62000a1c565b600180546001600160a01b0319166001600160a01b0392909216919091179055565b6200041862000a1c565b62000424600062000a78565b565b6200043062000a1c565b6001600160a01b03821660009081526006602052604090205460ff16156200049f5760405162461bcd60e51b815260206004820152601f60248201527f4e465420636f6e747261637420616c726561647920726567697374657265640060448201526064015b60405180910390fd5b6040516301ffc9a760e01b81526380ac58cd60e01b60048201526001600160a01b038316906301ffc9a790602401602060405180830381865afa158015620004eb573d6000803e3d6000fd5b505050506040513d601f19601f8201168201806040525081019062000511919062000ccd565b620005585760405162461bcd60e51b8152602060048201526016602482015275139bdd08185b88115490cdcc8c4818dbdb9d1c9858dd60521b604482015260640162000496565b6001600160a01b0382166000818152600660209081526040808320805460ff19908116600117909155600783529281902080548615159416841790558051338152918201939093528083019190915290517fbbe78d8749296d5db350f8a76bbc6f2f85649a62516790be41dc6a67393aecde9181900360600190a15050565b620005e162000a1c565b600380546001600160a01b0319166001600160a01b0392909216919091179055565b6200060d62000a1c565b600455565b600060045434146200065d5760405162461bcd60e51b815260206004820152601360248201527224b739bab33334b1b4b2b73a10333ab732399760691b604482015260640162000496565b6004541562000701576005546040516000916001600160a01b03169034908381818185875af1925050503d8060008114620006b5576040519150601f19603f3d011682016040523d82523d6000602084013e620006ba565b606091505b5050905080620006ff5760405162461bcd60e51b815260206004820152600f60248201526e151c985b9cd9995c8819985a5b1959608a1b604482015260640162000496565b505b6001546002546003546040516000938b938b936001600160a01b03928316939183169216908a908a908a908e90620007399062000ac8565b6200074d9998979695949392919062000d35565b604051809103906000f0801580156200076a573d6000803e3d6000fd5b506001600160a01b03811660008181526006602090815260408083208054600160ff19918216179091556007909252909120805490911689151517905590915063f2fde38b336040516001600160e01b031960e084901b1681526001600160a01b039091166004820152602401600060405180830381600087803b158015620007f257600080fd5b505af115801562000807573d6000803e3d6000fd5b505050507fbbe78d8749296d5db350f8a76bbc6f2f85649a62516790be41dc6a67393aecde620008343390565b604080516001600160a01b03928316815291841660208301528815159082015260600160405180910390a1979650505050505050565b6200087462000a1c565b6001600160a01b03811660009081526006602052604090205460ff16620008de5760405162461bcd60e51b815260206004820152601e60248201527f4e465420636f6e7472616374206973206e6f7420726567697374657265640000604482015260640162000496565b6001600160a01b0381166000908152600660205260409020805460ff191690557f0d60ee093b891105dfb73abfbe0421cc1a07500f5c1776ec7d189e6c7f6d634033604080516001600160a01b03928316815291841660208301520160405180910390a150565b6200094f62000a1c565b600280546001600160a01b0319166001600160a01b0392909216919091179055565b6200097b62000a1c565b600580546001600160a01b0319166001600160a01b0392909216919091179055565b620009a762000a1c565b6001600160a01b03811662000a0e5760405162461bcd60e51b815260206004820152602660248201527f4f776e61626c653a206e6577206f776e657220697320746865207a65726f206160448201526564647265737360d01b606482015260840162000496565b62000a198162000a78565b50565b6000546001600160a01b03163314620004245760405162461bcd60e51b815260206004820181905260248201527f4f776e61626c653a2063616c6c6572206973206e6f7420746865206f776e6572604482015260640162000496565b600080546001600160a01b038381166001600160a01b0319831681178455604051919092169283917f8be0079c531659141344cd1fd0a4f28419497f9722a3daafe3b4186f6b6457e09190a35050565b6129a48062000daf83390190565b6001600160a01b038116811462000a1957600080fd5b60006020828403121562000aff57600080fd5b813562000b0c8162000ad6565b9392505050565b801515811462000a1957600080fd5b6000806040838503121562000b3657600080fd5b823562000b438162000ad6565b9150602083013562000b558162000b13565b809150509250929050565b60006020828403121562000b7357600080fd5b5035919050565b634e487b7160e01b600052604160045260246000fd5b600082601f83011262000ba257600080fd5b813567ffffffffffffffff8082111562000bc05762000bc062000b7a565b604051601f8301601f19908116603f0116810190828211818310171562000beb5762000beb62000b7a565b8160405283815286602085880101111562000c0557600080fd5b836020870160208301376000602085830101528094505050505092915050565b60008060008060008060c0878903121562000c3f57600080fd5b863567ffffffffffffffff8082111562000c5857600080fd5b62000c668a838b0162000b90565b9750602089013591508082111562000c7d57600080fd5b5062000c8c89828a0162000b90565b955050604087013562000c9f8162000b13565b9350606087013592506080870135915060a087013562000cbf8162000ad6565b809150509295509295509295565b60006020828403121562000ce057600080fd5b815162000b0c8162000b13565b6000815180845260005b8181101562000d155760208185018101518683018201520162000cf7565b506000602082860101526020601f19601f83011685010191505092915050565b600061012080835262000d4b8184018d62000ced565b9050828103602084015262000d61818c62000ced565b6001600160a01b039a8b166040850152988a1660608401525050948716608086015260a085019390935260c084019190915290931660e0820152911515610100909201919091529291505056fe60806040523480156200001157600080fd5b50604051620029a4380380620029a4833981016040819052620000349162000273565b88886000620000448382620003e2565b506001620000538282620003e2565b505050620000706200006a6200011c60201b60201c565b62000120565b600d80546001600160a01b03808a166001600160a01b031992831617909255600e8054898416908316179055600f805492881692909116919091179081905560ff600160a01b90910416620000c65783620000c9565b60005b601055601192909255601280546001600160a01b039092166001600160a01b0319909216919091179055600f8054911515600160a01b0260ff60a01b1990921691909117905550620004ae945050505050565b3390565b600b80546001600160a01b038381166001600160a01b0319831681179093556040519116919082907f8be0079c531659141344cd1fd0a4f28419497f9722a3daafe3b4186f6b6457e090600090a35050565b634e487b7160e01b600052604160045260246000fd5b600082601f8301126200019a57600080fd5b81516001600160401b0380821115620001b757620001b762000172565b604051601f8301601f19908116603f01168101908282118183101715620001e257620001e262000172565b81604052838152602092508683858801011115620001ff57600080fd5b600091505b8382101562000223578582018301518183018401529082019062000204565b600093810190920192909252949350505050565b6001600160a01b03811681146200024d57600080fd5b50565b80516200025d8162000237565b919050565b805180151581146200025d57600080fd5b60008060008060008060008060006101208a8c0312156200029357600080fd5b89516001600160401b0380821115620002ab57600080fd5b620002b98d838e0162000188565b9a5060208c0151915080821115620002d057600080fd5b50620002df8c828d0162000188565b98505060408a0151620002f28162000237565b60608b0151909750620003058162000237565b95506200031560808b0162000250565b945060a08a0151935060c08a015192506200033360e08b0162000250565b9150620003446101008b0162000262565b90509295985092959850929598565b600181811c908216806200036857607f821691505b6020821081036200038957634e487b7160e01b600052602260045260246000fd5b50919050565b601f821115620003dd57600081815260208120601f850160051c81016020861015620003b85750805b601f850160051c820191505b81811015620003d957828155600101620003c4565b5050505b505050565b81516001600160401b03811115620003fe57620003fe62000172565b62000416816200040f845462000353565b846200038f565b602080601f8311600181146200044e5760008415620004355750858301515b600019600386901b1c1916600185901b178555620003d9565b600085815260208120601f198616915b828110156200047f578886015182559484019460019091019084016200045e565b50858210156200049e5787850151600019600388901b60f8161c191681555b5050505050600190811b01905550565b6124e680620004be6000396000f3fe6080604052600436106101b75760003560e01c80636352211e116100ec578063c87b56dd1161008a578063e88958dc11610064578063e88958dc146104c1578063e985e9c5146104d7578063f160d369146104f7578063f2fde38b1461051757600080fd5b8063c87b56dd1461046e578063d0def5211461048e578063db9e33f1146104a157600080fd5b80638da5cb5b116100c65780638da5cb5b146103fb57806395d89b4114610419578063a22cb4651461042e578063b88d4fde1461044e57600080fd5b80636352211e146103a657806370a08231146103c6578063715018a6146103e657600080fd5b80632f745c591161015957806342966c681161013357806342966c68146103265780634f558e79146103465780634f6ccce71461036657806356c316371461038657600080fd5b80632f745c59146102c65780633740ebb3146102e657806342842e0e1461030657600080fd5b8063095ea7b311610195578063095ea7b31461024b57806313966db51461026d57806318160ddd1461029157806323b872dd146102a657600080fd5b806301ffc9a7146101bc57806306fdde03146101f1578063081812fc14610213575b600080fd5b3480156101c857600080fd5b506101dc6101d7366004611e39565b610537565b60405190151581526020015b60405180910390f35b3480156101fd57600080fd5b50610206610548565b6040516101e89190611ea6565b34801561021f57600080fd5b5061023361022e366004611eb9565b6105da565b6040516001600160a01b0390911681526020016101e8565b34801561025757600080fd5b5061026b610266366004611ee7565b610601565b005b34801561027957600080fd5b5061028360105481565b6040519081526020016101e8565b34801561029d57600080fd5b50600854610283565b3480156102b257600080fd5b5061026b6102c1366004611f13565b61071b565b3480156102d257600080fd5b506102836102e1366004611ee7565b61074d565b3480156102f257600080fd5b50601254610233906001600160a01b031681565b34801561031257600080fd5b5061026b610321366004611f13565b6107e3565b34801561033257600080fd5b5061026b610341366004611eb9565b6107fe565b34801561035257600080fd5b506101dc610361366004611eb9565b61082f565b34801561037257600080fd5b50610283610381366004611eb9565b61083a565b34801561039257600080fd5b506101dc6103a1366004611f54565b6108cd565b3480156103b257600080fd5b506102336103c1366004611eb9565b61090c565b3480156103d257600080fd5b506102836103e1366004611f84565b61096c565b3480156103f257600080fd5b5061026b6109f2565b34801561040757600080fd5b50600b546001600160a01b0316610233565b34801561042557600080fd5b50610206610a06565b34801561043a57600080fd5b5061026b610449366004611fa1565b610a15565b34801561045a57600080fd5b5061026b610469366004612060565b610a24565b34801561047a57600080fd5b50610206610489366004611eb9565b610a5c565b61026b61049c3660046120e0565b610a67565b3480156104ad57600080fd5b5061026b6104bc366004611eb9565b610c21565b3480156104cd57600080fd5b5061028360115481565b3480156104e357600080fd5b506101dc6104f2366004612144565b610c65565b34801561050357600080fd5b5061026b610512366004611f84565b610ce4565b34801561052357600080fd5b5061026b610532366004611f84565b610d3a565b600061054282610db0565b92915050565b60606000805461055790612172565b80601f016020809104026020016040519081016040528092919081815260200182805461058390612172565b80156105d05780601f106105a5576101008083540402835291602001916105d0565b820191906000526020600020905b8154815290600101906020018083116105b357829003601f168201915b5050505050905090565b60006105e582610dd5565b506000908152600460205260409020546001600160a01b031690565b600061060c8261090c565b9050806001600160a01b0316836001600160a01b03160361067e5760405162461bcd60e51b815260206004820152602160248201527f4552433732313a20617070726f76616c20746f2063757272656e74206f776e656044820152603960f91b60648201526084015b60405180910390fd5b336001600160a01b038216148061069a575061069a8133610c65565b61070c5760405162461bcd60e51b815260206004820152603d60248201527f4552433732313a20617070726f76652063616c6c6572206973206e6f7420746f60448201527f6b656e206f776e6572206f7220617070726f76656420666f7220616c6c0000006064820152608401610675565b6107168383610e25565b505050565b610726335b82610e93565b6107425760405162461bcd60e51b8152600401610675906121ac565b610716838383610f37565b60006107588361096c565b82106107ba5760405162461bcd60e51b815260206004820152602b60248201527f455243373231456e756d657261626c653a206f776e657220696e646578206f7560448201526a74206f6620626f756e647360a81b6064820152608401610675565b506001600160a01b03919091166000908152600660209081526040808320938352929052205490565b61071683838360405180602001604052806000815250610a24565b61080733610720565b6108235760405162461bcd60e51b8152600401610675906121ac565b61082c816110a8565b50565b60006105428261111a565b600061084560085490565b82106108a85760405162461bcd60e51b815260206004820152602c60248201527f455243373231456e756d657261626c653a20676c6f62616c20696e646578206f60448201526b7574206f6620626f756e647360a01b6064820152608401610675565b600882815481106108bb576108bb6121f9565b90600052602060002001549050919050565b60006108e16108db8461090c565b83610c65565b806109055750816001600160a01b03166108fa846105da565b6001600160a01b0316145b9392505050565b6000818152600260205260408120546001600160a01b0316806105425760405162461bcd60e51b8152602060048201526018602482015277115490cdcc8c4e881a5b9d985b1a59081d1bdad95b88125160421b6044820152606401610675565b60006001600160a01b0382166109d65760405162461bcd60e51b815260206004820152602960248201527f4552433732313a2061646472657373207a65726f206973206e6f7420612076616044820152683634b21037bbb732b960b91b6064820152608401610675565b506001600160a01b031660009081526003602052604090205490565b6109fa611137565b610a046000611191565b565b60606001805461055790612172565b610a203383836111e3565b5050565b610a2e3383610e93565b610a4a5760405162461bcd60e51b8152600401610675906121ac565b610a56848484846112b1565b50505050565b6060610542826112e4565b6010543414610ab85760405162461bcd60e51b815260206004820152601b60248201527f496e73756666696369656e742066756e647320746f206d696e742e00000000006044820152606401610675565b600f54600160a01b900460ff1615610b1a57600b546001600160a01b03163314610b1a5760405162461bcd60e51b815260206004820152601360248201527213db9b1e481bdddb995c8818d85b881b5a5b9d606a1b6044820152606401610675565b610b28600c80546001019055565b6000610b33600c5490565b9050610b3f83826113ec565b610b498183611406565b6012546040516000916001600160a01b03169034908381818185875af1925050503d8060008114610b96576040519150601f19603f3d011682016040523d82523d6000602084013e610b9b565b606091505b5050905080610bde5760405162461bcd60e51b815260206004820152600f60248201526e151c985b9cd9995c8819985a5b1959608a1b6044820152606401610675565b7f997115af5924f5e38964c6d65c804d4cb85129b65e62eb20a8ca6329dbe57e1882858533604051610c13949392919061220f565b60405180910390a150505050565b610c29611137565b60118190556040518181527f32eed3b64a471f6f08ecc3e7518c80900dcf82d0f725084f95f168c25f18f299906020015b60405180910390a150565b600d546000906001600160a01b0383811691161480610c915750600e546001600160a01b038381169116145b80610ca95750600f546001600160a01b038381169116145b15610cb657506001610542565b6001600160a01b0380841660009081526005602090815260408083209386168352929052205460ff16610905565b610cec611137565b601280546001600160a01b0319166001600160a01b0383169081179091556040519081527f6632de8ab33c46549f7bb29f647ea0d751157b25fe6a14b1bcc7527cdfbeb79c90602001610c5a565b610d42611137565b6001600160a01b038116610da75760405162461bcd60e51b815260206004820152602660248201527f4f776e61626c653a206e6577206f776e657220697320746865207a65726f206160448201526564647265737360d01b6064820152608401610675565b61082c81611191565b60006001600160e01b03198216632483248360e11b14806105425750610542826114c2565b610dde8161111a565b61082c5760405162461bcd60e51b8152602060048201526018602482015277115490cdcc8c4e881a5b9d985b1a59081d1bdad95b88125160421b6044820152606401610675565b600081815260046020526040902080546001600160a01b0319166001600160a01b0384169081179091558190610e5a8261090c565b6001600160a01b03167f8c5be1e5ebec7d5bd14f71427d1e84f3dd0314c0f7b2291e5b200ac8c7c3b92560405160405180910390a45050565b6000610e9e8261111a565b610eff5760405162461bcd60e51b815260206004820152602c60248201527f4552433732313a206f70657261746f7220717565727920666f72206e6f6e657860448201526b34b9ba32b73a103a37b5b2b760a11b6064820152608401610675565b6000610f0a8361090c565b9050610f168185610c65565b15610f25576001915050610542565b610f2f84846114e7565b949350505050565b826001600160a01b0316610f4a8261090c565b6001600160a01b031614610f705760405162461bcd60e51b81526004016106759061224b565b6001600160a01b038216610fd25760405162461bcd60e51b8152602060048201526024808201527f4552433732313a207472616e7366657220746f20746865207a65726f206164646044820152637265737360e01b6064820152608401610675565b610fdf8383836001611545565b826001600160a01b0316610ff28261090c565b6001600160a01b0316146110185760405162461bcd60e51b81526004016106759061224b565b600081815260046020908152604080832080546001600160a01b03199081169091556001600160a01b0387811680865260038552838620805460001901905590871680865283862080546001019055868652600290945282852080549092168417909155905184937fddf252ad1be2c89b69c2b068fc378daa952ba7f163c4a11628f55a4df523b3ef91a4505050565b336110b28261090c565b6001600160a01b031614806110cc57506110cc81336108cd565b6111115760405162461bcd60e51b815260206004820152601660248201527513db9b1e481bdddb995c881bdc88185c1c1c9bdd995960521b6044820152606401610675565b61082c81611551565b6000908152600260205260409020546001600160a01b0316151590565b600b546001600160a01b03163314610a045760405162461bcd60e51b815260206004820181905260248201527f4f776e61626c653a2063616c6c6572206973206e6f7420746865206f776e65726044820152606401610675565b600b80546001600160a01b038381166001600160a01b0319831681179093556040519116919082907f8be0079c531659141344cd1fd0a4f28419497f9722a3daafe3b4186f6b6457e090600090a35050565b816001600160a01b0316836001600160a01b0316036112445760405162461bcd60e51b815260206004820152601960248201527f4552433732313a20617070726f766520746f2063616c6c6572000000000000006044820152606401610675565b6001600160a01b03838116600081815260056020908152604080832094871680845294825291829020805460ff191686151590811790915591519182527f17307eab39ab6107e8899845ad3d59bd9653f200f220920489ca2b5937696c31910160405180910390a3505050565b6112bc848484610f37565b6112c884848484611591565b610a565760405162461bcd60e51b815260040161067590612290565b60606112ef82610dd5565b6000828152600a60205260408120805461130890612172565b80601f016020809104026020016040519081016040528092919081815260200182805461133490612172565b80156113815780601f1061135657610100808354040283529160200191611381565b820191906000526020600020905b81548152906001019060200180831161136457829003601f168201915b50505050509050600061139f60408051602081019091526000815290565b905080516000036113b1575092915050565b8151156113e35780826040516020016113cb9291906122e2565b60405160208183030381529060405292505050919050565b610f2f84611692565b610a20828260405180602001604052806000815250611705565b61140f8261111a565b6114725760405162461bcd60e51b815260206004820152602e60248201527f45524337323155524953746f726167653a2055524920736574206f66206e6f6e60448201526d32bc34b9ba32b73a103a37b5b2b760911b6064820152608401610675565b6000828152600a6020526040902061148a828261235f565b506040518281527ff8e1a15aba9398e019f0b49df1a4fde98ee17ae345cb5f6b5e2c27f5033e8ce79060200160405180910390a15050565b60006001600160e01b0319821663780e9d6360e01b1480610542575061054282611738565b6000806114f38361090c565b9050806001600160a01b0316846001600160a01b0316148061151a575061151a8185610c65565b80610f2f5750836001600160a01b0316611533846105da565b6001600160a01b031614949350505050565b610a5684848484611788565b61155a816118bc565b6000818152600a60205260409020805461157390612172565b15905061082c576000818152600a6020526040812061082c91611dd5565b60006001600160a01b0384163b1561168757604051630a85bd0160e11b81526001600160a01b0385169063150b7a02906115d590339089908890889060040161241f565b6020604051808303816000875af1925050508015611610575060408051601f3d908101601f1916820190925261160d9181019061245c565b60015b61166d573d80801561163e576040519150601f19603f3d011682016040523d82523d6000602084013e611643565b606091505b5080516000036116655760405162461bcd60e51b815260040161067590612290565b805181602001fd5b6001600160e01b031916630a85bd0160e11b149050610f2f565b506001949350505050565b606061169d82610dd5565b60006116b460408051602081019091526000815290565b905060008151116116d45760405180602001604052806000815250610905565b806116de8461195f565b6040516020016116ef9291906122e2565b6040516020818303038152906040529392505050565b61170f83836119f2565b61171c6000848484611591565b6107165760405162461bcd60e51b815260040161067590612290565b60006001600160e01b031982166380ac58cd60e01b148061176957506001600160e01b03198216635b5e139f60e01b145b8061054257506301ffc9a760e01b6001600160e01b0319831614610542565b60018111156117f75760405162461bcd60e51b815260206004820152603560248201527f455243373231456e756d657261626c653a20636f6e7365637574697665207472604482015274185b9cd9995c9cc81b9bdd081cdd5c1c1bdc9d1959605a1b6064820152608401610675565b816001600160a01b0385166118535761184e81600880546000838152600960205260408120829055600182018355919091527ff3f7a9fe364faab93b216da50a3214154f22a0a2b415b23a84c8169e8b636ee30155565b611876565b836001600160a01b0316856001600160a01b031614611876576118768582611b6d565b6001600160a01b0384166118925761188d81611c0a565b6118b5565b846001600160a01b0316846001600160a01b0316146118b5576118b58482611cb9565b5050505050565b60006118c78261090c565b90506118d7816000846001611545565b6118e08261090c565b600083815260046020908152604080832080546001600160a01b03199081169091556001600160a01b0385168085526003845282852080546000190190558785526002909352818420805490911690555192935084927fddf252ad1be2c89b69c2b068fc378daa952ba7f163c4a11628f55a4df523b3ef908390a45050565b6060600061196c83611cfd565b600101905060008167ffffffffffffffff81111561198c5761198c611fd4565b6040519080825280601f01601f1916602001820160405280156119b6576020820181803683370190505b5090508181016020015b600019016f181899199a1a9b1b9c1cb0b131b232b360811b600a86061a8153600a85049450846119c057509392505050565b6001600160a01b038216611a485760405162461bcd60e51b815260206004820181905260248201527f4552433732313a206d696e7420746f20746865207a65726f20616464726573736044820152606401610675565b611a518161111a565b15611a9e5760405162461bcd60e51b815260206004820152601c60248201527f4552433732313a20746f6b656e20616c7265616479206d696e746564000000006044820152606401610675565b611aac600083836001611545565b611ab58161111a565b15611b025760405162461bcd60e51b815260206004820152601c60248201527f4552433732313a20746f6b656e20616c7265616479206d696e746564000000006044820152606401610675565b6001600160a01b038216600081815260036020908152604080832080546001019055848352600290915280822080546001600160a01b0319168417905551839291907fddf252ad1be2c89b69c2b068fc378daa952ba7f163c4a11628f55a4df523b3ef908290a45050565b60006001611b7a8461096c565b611b849190612479565b600083815260076020526040902054909150808214611bd7576001600160a01b03841660009081526006602090815260408083208584528252808320548484528184208190558352600790915290208190555b5060009182526007602090815260408084208490556001600160a01b039094168352600681528383209183525290812055565b600854600090611c1c90600190612479565b60008381526009602052604081205460088054939450909284908110611c4457611c446121f9565b906000526020600020015490508060088381548110611c6557611c656121f9565b6000918252602080832090910192909255828152600990915260408082208490558582528120556008805480611c9d57611c9d61249a565b6001900381819060005260206000200160009055905550505050565b6000611cc48361096c565b6001600160a01b039093166000908152600660209081526040808320868452825280832085905593825260079052919091209190915550565b60008072184f03e93ff9f4daa797ed6e38ed64bf6a1f0160401b8310611d3c5772184f03e93ff9f4daa797ed6e38ed64bf6a1f0160401b830492506040015b6d04ee2d6d415b85acef81000000008310611d68576d04ee2d6d415b85acef8100000000830492506020015b662386f26fc100008310611d8657662386f26fc10000830492506010015b6305f5e1008310611d9e576305f5e100830492506008015b6127108310611db257612710830492506004015b60648310611dc4576064830492506002015b600a83106105425760010192915050565b508054611de190612172565b6000825580601f10611df1575050565b601f01602090049060005260206000209081019061082c91905b80821115611e1f5760008155600101611e0b565b5090565b6001600160e01b03198116811461082c57600080fd5b600060208284031215611e4b57600080fd5b813561090581611e23565b60005b83811015611e71578181015183820152602001611e59565b50506000910152565b60008151808452611e92816020860160208601611e56565b601f01601f19169290920160200192915050565b6020815260006109056020830184611e7a565b600060208284031215611ecb57600080fd5b5035919050565b6001600160a01b038116811461082c57600080fd5b60008060408385031215611efa57600080fd5b8235611f0581611ed2565b946020939093013593505050565b600080600060608486031215611f2857600080fd5b8335611f3381611ed2565b92506020840135611f4381611ed2565b929592945050506040919091013590565b60008060408385031215611f6757600080fd5b823591506020830135611f7981611ed2565b809150509250929050565b600060208284031215611f9657600080fd5b813561090581611ed2565b60008060408385031215611fb457600080fd5b8235611fbf81611ed2565b915060208301358015158114611f7957600080fd5b634e487b7160e01b600052604160045260246000fd5b600067ffffffffffffffff8084111561200557612005611fd4565b604051601f8501601f19908116603f0116810190828211818310171561202d5761202d611fd4565b8160405280935085815286868601111561204657600080fd5b858560208301376000602087830101525050509392505050565b6000806000806080858703121561207657600080fd5b843561208181611ed2565b9350602085013561209181611ed2565b925060408501359150606085013567ffffffffffffffff8111156120b457600080fd5b8501601f810187136120c557600080fd5b6120d487823560208401611fea565b91505092959194509250565b600080604083850312156120f357600080fd5b82356120fe81611ed2565b9150602083013567ffffffffffffffff81111561211a57600080fd5b8301601f8101851361212b57600080fd5b61213a85823560208401611fea565b9150509250929050565b6000806040838503121561215757600080fd5b823561216281611ed2565b91506020830135611f7981611ed2565b600181811c9082168061218657607f821691505b6020821081036121a657634e487b7160e01b600052602260045260246000fd5b50919050565b6020808252602d908201527f4552433732313a2063616c6c6572206973206e6f7420746f6b656e206f776e6560408201526c1c881bdc88185c1c1c9bdd9959609a1b606082015260800190565b634e487b7160e01b600052603260045260246000fd5b848152600060018060a01b038086166020840152608060408401526122376080840186611e7a565b915080841660608401525095945050505050565b60208082526025908201527f4552433732313a207472616e736665722066726f6d20696e636f72726563742060408201526437bbb732b960d91b606082015260800190565b60208082526032908201527f4552433732313a207472616e7366657220746f206e6f6e20455243373231526560408201527131b2b4bb32b91034b6b83632b6b2b73a32b960711b606082015260800190565b600083516122f4818460208801611e56565b835190830190612308818360208801611e56565b01949350505050565b601f82111561071657600081815260208120601f850160051c810160208610156123385750805b601f850160051c820191505b8181101561235757828155600101612344565b505050505050565b815167ffffffffffffffff81111561237957612379611fd4565b61238d816123878454612172565b84612311565b602080601f8311600181146123c257600084156123aa5750858301515b600019600386901b1c1916600185901b178555612357565b600085815260208120601f198616915b828110156123f1578886015182559484019460019091019084016123d2565b508582101561240f5787850151600019600388901b60f8161c191681555b5050505050600190811b01905550565b6001600160a01b038581168252841660208201526040810183905260806060820181905260009061245290830184611e7a565b9695505050505050565b60006020828403121561246e57600080fd5b815161090581611e23565b8181038181111561054257634e487b7160e01b600052601160045260246000fd5b634e487b7160e01b600052603160045260246000fdfea2646970667358221220f89492cd215a7d984f1e005e8f5942aa2bedc77d9e7dc503fc72bdf3759faad464736f6c63430008150033a26469706673582212207457fc524aa626af67d3049a536f2e4df85e19ec566391b091cc96958ce9adc864736f6c63430008150033",
  "linkReferences": {},
  "deployedLinkReferences": {}
}