{
  "_format": "hh-sol-artifact-1",
  "contractName": "VolcanoERC1155Factory",
  "sourceName": "contracts/VolcanoERC1155Factory.sol",
  "abi": [
    {
      "inputs": [
        {
          "internalType": "address",
          "name": "_auction",
          "type": "address"
        },
        {
          "internalType": "address",
          "name": "_marketplace",
          "type": "address"
        },
        {
          "internalType": "address",
          "name": "_bundleMarketplace",
          "type": "address"
        },
        {
          "internalType": "address payable",
          "name": "_feeRecipient",
          "type": "address"
        },
        {
          "internalType": "uint256",
          "name": "_platformFee",
          "type": "uint256"
        }
      ],
      "stateMutability": "nonpayable",
      "type": "constructor"
    },
    {
      "anonymous": false,
      "inputs": [
        {
          "indexed": false,
          "internalType": "address",
          "name": "creator",
          "type": "address"
        },
        {
          "indexed": false,
          "internalType": "address",
          "name": "nft",
          "type": "address"
        },
        {
          "indexed": false,
          "internalType": "bool",
          "name": "isprivate",
          "type": "bool"
        }
      ],
      "name": "ContractCreated",
      "type": "event"
    },
    {
      "anonymous": false,
      "inputs": [
        {
          "indexed": false,
          "internalType": "address",
          "name": "caller",
          "type": "address"
        },
        {
          "indexed": false,
          "internalType": "address",
          "name": "nft",
          "type": "address"
        }
      ],
      "name": "ContractDisabled",
      "type": "event"
    },
    {
      "anonymous": false,
      "inputs": [
        {
          "indexed": true,
          "internalType": "address",
          "name": "previousOwner",
          "type": "address"
        },
        {
          "indexed": true,
          "internalType": "address",
          "name": "newOwner",
          "type": "address"
        }
      ],
      "name": "OwnershipTransferred",
      "type": "event"
    },
    {
      "inputs": [],
      "name": "auction",
      "outputs": [
        {
          "internalType": "address",
          "name": "",
          "type": "address"
        }
      ],
      "stateMutability": "view",
      "type": "function"
    },
    {
      "inputs": [],
      "name": "bundleMarketplace",
      "outputs": [
        {
          "internalType": "address",
          "name": "",
          "type": "address"
        }
      ],
      "stateMutability": "view",
      "type": "function"
    },
    {
      "inputs": [
        {
          "internalType": "string",
          "name": "_name",
          "type": "string"
        },
        {
          "internalType": "string",
          "name": "_symbol",
          "type": "string"
        },
        {
          "internalType": "bool",
          "name": "_private",
          "type": "bool"
        },
        {
          "internalType": "uint256",
          "name": "_mintFee",
          "type": "uint256"
        },
        {
          "internalType": "uint256",
          "name": "_creatorFee",
          "type": "uint256"
        },
        {
          "internalType": "address payable",
          "name": "_feeRecipient",
          "type": "address"
        }
      ],
      "name": "createNFTContract",
      "outputs": [
        {
          "internalType": "address",
          "name": "",
          "type": "address"
        }
      ],
      "stateMutability": "payable",
      "type": "function"
    },
    {
      "inputs": [
        {
          "internalType": "address",
          "name": "tokenContractAddress",
          "type": "address"
        }
      ],
      "name": "disableTokenContract",
      "outputs": [],
      "stateMutability": "nonpayable",
      "type": "function"
    },
    {
      "inputs": [
        {
          "internalType": "address",
          "name": "",
          "type": "address"
        }
      ],
      "name": "exists",
      "outputs": [
        {
          "internalType": "bool",
          "name": "",
          "type": "bool"
        }
      ],
      "stateMutability": "view",
      "type": "function"
    },
    {
      "inputs": [],
      "name": "feeRecipient",
      "outputs": [
        {
          "internalType": "address payable",
          "name": "",
          "type": "address"
        }
      ],
      "stateMutability": "view",
      "type": "function"
    },
    {
      "inputs": [
        {
          "internalType": "address",
          "name": "",
          "type": "address"
        }
      ],
      "name": "isprivate",
      "outputs": [
        {
          "internalType": "bool",
          "name": "",
          "type": "bool"
        }
      ],
      "stateMutability": "view",
      "type": "function"
    },
    {
      "inputs": [],
      "name": "marketplace",
      "outputs": [
        {
          "internalType": "address",
          "name": "",
          "type": "address"
        }
      ],
      "stateMutability": "view",
      "type": "function"
    },
    {
      "inputs": [],
      "name": "owner",
      "outputs": [
        {
          "internalType": "address",
          "name": "",
          "type": "address"
        }
      ],
      "stateMutability": "view",
      "type": "function"
    },
    {
      "inputs": [],
      "name": "platformFee",
      "outputs": [
        {
          "internalType": "uint256",
          "name": "",
          "type": "uint256"
        }
      ],
      "stateMutability": "view",
      "type": "function"
    },
    {
      "inputs": [
        {
          "internalType": "address",
          "name": "tokenContractAddress",
          "type": "address"
        },
        {
          "internalType": "bool",
          "name": "_isprivate",
          "type": "bool"
        }
      ],
      "name": "registerTokenContract",
      "outputs": [],
      "stateMutability": "nonpayable",
      "type": "function"
    },
    {
      "inputs": [],
      "name": "renounceOwnership",
      "outputs": [],
      "stateMutability": "nonpayable",
      "type": "function"
    },
    {
      "inputs": [
        {
          "internalType": "address",
          "name": "newOwner",
          "type": "address"
        }
      ],
      "name": "transferOwnership",
      "outputs": [],
      "stateMutability": "nonpayable",
      "type": "function"
    },
    {
      "inputs": [
        {
          "internalType": "address",
          "name": "_auction",
          "type": "address"
        }
      ],
      "name": "updateAuction",
      "outputs": [],
      "stateMutability": "nonpayable",
      "type": "function"
    },
    {
      "inputs": [
        {
          "internalType": "address",
          "name": "_bundleMarketplace",
          "type": "address"
        }
      ],
      "name": "updateBundleMarketplace",
      "outputs": [],
      "stateMutability": "nonpayable",
      "type": "function"
    },
    {
      "inputs": [
        {
          "internalType": "address payable",
          "name": "_feeRecipient",
          "type": "address"
        }
      ],
      "name": "updateFeeRecipient",
      "outputs": [],
      "stateMutability": "nonpayable",
      "type": "function"
    },
    {
      "inputs": [
        {
          "internalType": "address",
          "name": "_marketplace",
          "type": "address"
        }
      ],
      "name": "updateMarketplace",
      "outputs": [],
      "stateMutability": "nonpayable",
      "type": "function"
    },
    {
      "inputs": [
        {
          "internalType": "uint256",
          "name": "_platformFee",
          "type": "uint256"
        }
      ],
      "name": "updatePlatformFee",
      "outputs": [],
      "stateMutability": "nonpayable",
      "type": "function"
    }
  ],
  "bytecode": "0x608060405234801561001057600080fd5b506040516200372938038062003729833981016040819052610031916100f8565b61003a33610090565b600180546001600160a01b03199081166001600160a01b03978816179091556002805482169587169590951790945560038054851693861693909317909255600580549093169316929092179055600455610163565b600080546001600160a01b038381166001600160a01b0319831681178455604051919092169283917f8be0079c531659141344cd1fd0a4f28419497f9722a3daafe3b4186f6b6457e09190a35050565b6001600160a01b03811681146100f557600080fd5b50565b600080600080600060a0868803121561011057600080fd5b855161011b816100e0565b602087015190955061012c816100e0565b604087015190945061013d816100e0565b606087015190935061014e816100e0565b80925050608086015190509295509295909350565b6135b680620001736000396000f3fe6080604052600436106200011f5760003560e01c80639e1f5b2811620000a1578063d39bb16a116200006c578063d39bb16a146200031a578063eb636317146200033f578063f160d3691462000364578063f2fde38b1462000389578063f6a3d24e14620003ae57600080fd5b80639e1f5b28146200029a578063aa0b598814620002bc578063abc8c7af14620002e1578063ba49b0ef146200030357600080fd5b8063715018a611620000ee578063715018a614620001f65780637d9f6db5146200020e5780638da5cb5b14620002305780639c7d1a4e14620002505780639d0e24a7146200027557600080fd5b806326232a2e14620001245780633402a036146200014f57806346904840146200017657806350ac3f4714620001b1575b600080fd5b3480156200013157600080fd5b506200013c60045481565b6040519081526020015b60405180910390f35b3480156200015c57600080fd5b50620001746200016e36600462000af3565b620003e2565b005b3480156200018357600080fd5b5060055462000198906001600160a01b031681565b6040516001600160a01b03909116815260200162000146565b348015620001be57600080fd5b50620001e5620001d036600462000af3565b60076020526000908152604090205460ff1681565b604051901515815260200162000146565b3480156200020357600080fd5b50620001746200040e565b3480156200021b57600080fd5b5060015462000198906001600160a01b031681565b3480156200023d57600080fd5b506000546001600160a01b031662000198565b3480156200025d57600080fd5b50620001746200026f36600462000b29565b62000426565b3480156200028257600080fd5b50620001746200029436600462000af3565b620005de565b348015620002a757600080fd5b5060035462000198906001600160a01b031681565b348015620002c957600080fd5b5062000174620002db36600462000b67565b6200060a565b348015620002ee57600080fd5b5060025462000198906001600160a01b031681565b620001986200031436600462000c2c565b62000619565b3480156200032757600080fd5b50620001746200033936600462000af3565b62000871565b3480156200034c57600080fd5b50620001746200035e36600462000af3565b6200094c565b3480156200037157600080fd5b50620001746200038336600462000af3565b62000978565b3480156200039657600080fd5b5062000174620003a836600462000af3565b620009a4565b348015620003bb57600080fd5b50620001e5620003cd36600462000af3565b60066020526000908152604090205460ff1681565b620003ec62000a23565b600180546001600160a01b0319166001600160a01b0392909216919091179055565b6200041862000a23565b62000424600062000a7f565b565b6200043062000a23565b6001600160a01b03821660009081526006602052604090205460ff16156200049f5760405162461bcd60e51b815260206004820152601f60248201527f4e465420636f6e747261637420616c726561647920726567697374657265640060448201526064015b60405180910390fd5b6040516301ffc9a760e01b8152636cdb3d1360e11b60048201526001600160a01b038316906301ffc9a790602401602060405180830381865afa158015620004eb573d6000803e3d6000fd5b505050506040513d601f19601f8201168201806040525081019062000511919062000cd4565b6200055f5760405162461bcd60e51b815260206004820152601760248201527f4e6f7420616e204552433131353520636f6e7472616374000000000000000000604482015260640162000496565b6001600160a01b0382166000818152600660209081526040808320805460ff19908116600117909155600783529281902080548615159416841790558051338152918201939093528083019190915290517fbbe78d8749296d5db350f8a76bbc6f2f85649a62516790be41dc6a67393aecde9181900360600190a15050565b620005e862000a23565b600380546001600160a01b0319166001600160a01b0392909216919091179055565b6200061462000a23565b600455565b60006004543414620006645760405162461bcd60e51b815260206004820152601360248201527224b739bab33334b1b4b2b73a10333ab732399760691b604482015260640162000496565b6004541562000708576005546040516000916001600160a01b03169034908381818185875af1925050503d8060008114620006bc576040519150601f19603f3d011682016040523d82523d6000602084013e620006c1565b606091505b5050905080620007065760405162461bcd60e51b815260206004820152600f60248201526e151c985b9cd9995c8819985a5b1959608a1b604482015260640162000496565b505b6001546002546003546040516000938b938b936001600160a01b03928316939183169216908a908a908a908e90620007409062000acf565b620007549998979695949392919062000d3c565b604051809103906000f08015801562000771573d6000803e3d6000fd5b506001600160a01b03811660008181526006602090815260408083208054600160ff19918216179091556007909252909120805490911689151517905590915063f2fde38b336040516001600160e01b031960e084901b1681526001600160a01b039091166004820152602401600060405180830381600087803b158015620007f957600080fd5b505af11580156200080e573d6000803e3d6000fd5b505050507fbbe78d8749296d5db350f8a76bbc6f2f85649a62516790be41dc6a67393aecde6200083b3390565b604080516001600160a01b03928316815291841660208301528815159082015260600160405180910390a1979650505050505050565b6200087b62000a23565b6001600160a01b03811660009081526006602052604090205460ff16620008e55760405162461bcd60e51b815260206004820152601e60248201527f4e465420636f6e7472616374206973206e6f7420726567697374657265640000604482015260640162000496565b6001600160a01b0381166000908152600660205260409020805460ff191690557f0d60ee093b891105dfb73abfbe0421cc1a07500f5c1776ec7d189e6c7f6d634033604080516001600160a01b03928316815291841660208301520160405180910390a150565b6200095662000a23565b600280546001600160a01b0319166001600160a01b0392909216919091179055565b6200098262000a23565b600580546001600160a01b0319166001600160a01b0392909216919091179055565b620009ae62000a23565b6001600160a01b03811662000a155760405162461bcd60e51b815260206004820152602660248201527f4f776e61626c653a206e6577206f776e657220697320746865207a65726f206160448201526564647265737360d01b606482015260840162000496565b62000a208162000a7f565b50565b6000546001600160a01b03163314620004245760405162461bcd60e51b815260206004820181905260248201527f4f776e61626c653a2063616c6c6572206973206e6f7420746865206f776e6572604482015260640162000496565b600080546001600160a01b038381166001600160a01b0319831681178455604051919092169283917f8be0079c531659141344cd1fd0a4f28419497f9722a3daafe3b4186f6b6457e09190a35050565b6127cb8062000db683390190565b6001600160a01b038116811462000a2057600080fd5b60006020828403121562000b0657600080fd5b813562000b138162000add565b9392505050565b801515811462000a2057600080fd5b6000806040838503121562000b3d57600080fd5b823562000b4a8162000add565b9150602083013562000b5c8162000b1a565b809150509250929050565b60006020828403121562000b7a57600080fd5b5035919050565b634e487b7160e01b600052604160045260246000fd5b600082601f83011262000ba957600080fd5b813567ffffffffffffffff8082111562000bc75762000bc762000b81565b604051601f8301601f19908116603f0116810190828211818310171562000bf25762000bf262000b81565b8160405283815286602085880101111562000c0c57600080fd5b836020870160208301376000602085830101528094505050505092915050565b60008060008060008060c0878903121562000c4657600080fd5b863567ffffffffffffffff8082111562000c5f57600080fd5b62000c6d8a838b0162000b97565b9750602089013591508082111562000c8457600080fd5b5062000c9389828a0162000b97565b955050604087013562000ca68162000b1a565b9350606087013592506080870135915060a087013562000cc68162000add565b809150509295509295509295565b60006020828403121562000ce757600080fd5b815162000b138162000b1a565b6000815180845260005b8181101562000d1c5760208185018101518683018201520162000cfe565b506000602082860101526020601f19601f83011685010191505092915050565b600061012080835262000d528184018d62000cf4565b9050828103602084015262000d68818c62000cf4565b6001600160a01b039a8b166040850152988a1660608401525050948716608086015260a085019390935260c084019190915290931660e0820152911515610100909201919091529291505056fe60806040523480156200001157600080fd5b50604051620027cb380380620027cb833981016040819052620000349162000289565b6040805160208101909152600081526200004e8162000124565b506200005a3362000136565b6006620000688a82620003f8565b506007620000778982620003f8565b50600880546001600160a01b03808a166001600160a01b03199283161790925560098054898416908316179055600a805492881692909116919091179081905560ff600160a01b90910416620000ce5783620000d1565b60005b600b55600c92909255600d80546001600160a01b039092166001600160a01b0319909216919091179055600a8054911515600160a01b0260ff60a01b1990921691909117905550620004c4945050505050565b6002620001328282620003f8565b5050565b600380546001600160a01b038381166001600160a01b0319831681179093556040519116919082907f8be0079c531659141344cd1fd0a4f28419497f9722a3daafe3b4186f6b6457e090600090a35050565b634e487b7160e01b600052604160045260246000fd5b600082601f830112620001b057600080fd5b81516001600160401b0380821115620001cd57620001cd62000188565b604051601f8301601f19908116603f01168101908282118183101715620001f857620001f862000188565b816040528381526020925086838588010111156200021557600080fd5b600091505b838210156200023957858201830151818301840152908201906200021a565b600093810190920192909252949350505050565b6001600160a01b03811681146200026357600080fd5b50565b805162000273816200024d565b919050565b805180151581146200027357600080fd5b60008060008060008060008060006101208a8c031215620002a957600080fd5b89516001600160401b0380821115620002c157600080fd5b620002cf8d838e016200019e565b9a5060208c0151915080821115620002e657600080fd5b50620002f58c828d016200019e565b98505060408a015162000308816200024d565b60608b01519097506200031b816200024d565b95506200032b60808b0162000266565b945060a08a0151935060c08a015192506200034960e08b0162000266565b91506200035a6101008b0162000278565b90509295985092959850929598565b600181811c908216806200037e57607f821691505b6020821081036200039f57634e487b7160e01b600052602260045260246000fd5b50919050565b601f821115620003f357600081815260208120601f850160051c81016020861015620003ce5750805b601f850160051c820191505b81811015620003ef57828155600101620003da565b5050505b505050565b81516001600160401b0381111562000414576200041462000188565b6200042c8162000425845462000369565b84620003a5565b602080601f8311600181146200046457600084156200044b5750858301515b600019600386901b1c1916600185901b178555620003ef565b600085815260208120601f198616915b82811015620004955788860151825594840194600190910190840162000474565b5085821015620004b45787850151600019600388901b60f8161c191681555b5050505050600190811b01905550565b6122f780620004d46000396000f3fe60806040526004361061013f5760003560e01c80638da5cb5b116100b6578063e88958dc1161006f578063e88958dc1461039d578063e985e9c5146103b3578063f160d369146103d3578063f242432a146103f3578063f2fde38b14610413578063f5298aca1461043357600080fd5b80638da5cb5b146102ea57806394d008ef1461030857806395d89b411461031b578063a22cb46514610330578063bd85b03914610350578063db9e33f11461037d57600080fd5b80632eb2c2d6116101085780632eb2c2d6146101ff5780633740ebb3146102215780634e1273f4146102595780634f558e79146102865780636b20c454146102b5578063715018a6146102d557600080fd5b8062fdd58e1461014457806301ffc9a71461017757806306fdde03146101a75780630e89341c146101c957806313966db5146101e9575b600080fd5b34801561015057600080fd5b5061016461015f36600461187b565b610453565b6040519081526020015b60405180910390f35b34801561018357600080fd5b506101976101923660046118bd565b6104ec565b604051901515815260200161016e565b3480156101b357600080fd5b506101bc61053c565b60405161016e9190611920565b3480156101d557600080fd5b506101bc6101e4366004611933565b6105ca565b3480156101f557600080fd5b50610164600b5481565b34801561020b57600080fd5b5061021f61021a366004611a98565b61065e565b005b34801561022d57600080fd5b50600d54610241906001600160a01b031681565b6040516001600160a01b03909116815260200161016e565b34801561026557600080fd5b50610279610274366004611b46565b6106aa565b60405161016e9190611c4e565b34801561029257600080fd5b506101976102a1366004611933565b600090815260046020526040902054151590565b3480156102c157600080fd5b5061021f6102d0366004611c61565b6107d4565b3480156102e157600080fd5b5061021f61081c565b3480156102f657600080fd5b506003546001600160a01b0316610241565b61021f610316366004611cd7565b610830565b34801561032757600080fd5b506101bc6109ff565b34801561033c57600080fd5b5061021f61034b366004611d26565b610a0c565b34801561035c57600080fd5b5061016461036b366004611933565b60009081526004602052604090205490565b34801561038957600080fd5b5061021f610398366004611933565b610a1b565b3480156103a957600080fd5b50610164600c5481565b3480156103bf57600080fd5b506101976103ce366004611d64565b610a5f565b3480156103df57600080fd5b5061021f6103ee366004611d92565b610ae1565b3480156103ff57600080fd5b5061021f61040e366004611daf565b610b37565b34801561041f57600080fd5b5061021f61042e366004611d92565b610b7c565b34801561043f57600080fd5b5061021f61044e366004611e18565b610bf5565b60006001600160a01b0383166104c35760405162461bcd60e51b815260206004820152602a60248201527f455243313135353a2061646472657373207a65726f206973206e6f742061207660448201526930b634b21037bbb732b960b11b60648201526084015b60405180910390fd5b506000818152602081815260408083206001600160a01b03861684529091529020545b92915050565b60006001600160e01b03198216636cdb3d1360e11b148061051d57506001600160e01b031982166303a24d0760e21b145b806104e657506301ffc9a760e01b6001600160e01b03198316146104e6565b6006805461054990611e4d565b80601f016020809104026020016040519081016040528092919081815260200182805461057590611e4d565b80156105c25780601f10610597576101008083540402835291602001916105c2565b820191906000526020600020905b8154815290600101906020018083116105a557829003601f168201915b505050505081565b6060600280546105d990611e4d565b80601f016020809104026020016040519081016040528092919081815260200182805461060590611e4d565b80156106525780601f1061062757610100808354040283529160200191610652565b820191906000526020600020905b81548152906001019060200180831161063557829003601f168201915b50505050509050919050565b6001600160a01b03851633148061067a575061067a8533610a5f565b6106965760405162461bcd60e51b81526004016104ba90611e87565b6106a38585858585610c38565b5050505050565b6060815183511461070f5760405162461bcd60e51b815260206004820152602960248201527f455243313135353a206163636f756e747320616e6420696473206c656e677468604482015268040dad2e6dac2e8c6d60bb1b60648201526084016104ba565b6000835167ffffffffffffffff81111561072b5761072b61194c565b604051908082528060200260200182016040528015610754578160200160208202803683370190505b50905060005b84518110156107cc5761079f85828151811061077857610778611ed5565b602002602001015185838151811061079257610792611ed5565b6020026020010151610453565b8282815181106107b1576107b1611ed5565b60209081029190910101526107c581611f01565b905061075a565b509392505050565b6001600160a01b0383163314806107f057506107f08333610a5f565b61080c5760405162461bcd60e51b81526004016104ba90611e87565b610817838383610de2565b505050565b610824610f7f565b61082e6000610fd9565b565b81600b5461083e9190611f1a565b341461088c5760405162461bcd60e51b815260206004820152601b60248201527f496e73756666696369656e742066756e647320746f206d696e742e000000000060448201526064016104ba565b600a54600160a01b900460ff16156108fd57336108b16003546001600160a01b031690565b6001600160a01b0316146108fd5760405162461bcd60e51b815260206004820152601360248201527213db9b1e481bdddb995c8818d85b881b5a5b9d606a1b60448201526064016104ba565b61090b600580546001019055565b600061091660055490565b90506109248482858561102b565b600d546040516000916001600160a01b03169034908381818185875af1925050503d8060008114610971576040519150601f19603f3d011682016040523d82523d6000602084013e610976565b606091505b50509050806109b95760405162461bcd60e51b815260206004820152600f60248201526e151c985b9cd9995c8819985a5b1959608a1b60448201526064016104ba565b7fa05dcf699199edd2e0c4fc8d2b6369fcd8e116de9db8e8e81c61b83bef07409f82858786336040516109f0959493929190611f31565b60405180910390a15050505050565b6007805461054990611e4d565b610a1733838361114e565b5050565b610a23610f7f565b600c8190556040518181527f32eed3b64a471f6f08ecc3e7518c80900dcf82d0f725084f95f168c25f18f299906020015b60405180910390a150565b6008546000906001600160a01b0383811691161480610a8b57506009546001600160a01b038381169116145b80610aa35750600a546001600160a01b038381169116145b15610ab0575060016104e6565b6001600160a01b0380841660009081526001602090815260408083209386168352929052205460ff165b9392505050565b610ae9610f7f565b600d80546001600160a01b0319166001600160a01b0383169081179091556040519081527f6632de8ab33c46549f7bb29f647ea0d751157b25fe6a14b1bcc7527cdfbeb79c90602001610a54565b6001600160a01b038516331480610b535750610b538533610a5f565b610b6f5760405162461bcd60e51b81526004016104ba90611e87565b6106a3858585858561122e565b610b84610f7f565b6001600160a01b038116610be95760405162461bcd60e51b815260206004820152602660248201527f4f776e61626c653a206e6577206f776e657220697320746865207a65726f206160448201526564647265737360d01b60648201526084016104ba565b610bf281610fd9565b50565b6001600160a01b038316331480610c115750610c118333610a5f565b610c2d5760405162461bcd60e51b81526004016104ba90611e87565b610817838383611366565b8151835114610c595760405162461bcd60e51b81526004016104ba90611f74565b6001600160a01b038416610c7f5760405162461bcd60e51b81526004016104ba90611fbc565b33610c8e81878787878761147e565b60005b8451811015610d74576000858281518110610cae57610cae611ed5565b602002602001015190506000858381518110610ccc57610ccc611ed5565b602090810291909101810151600084815280835260408082206001600160a01b038e168352909352919091205490915081811015610d1c5760405162461bcd60e51b81526004016104ba90612001565b6000838152602081815260408083206001600160a01b038e8116855292528083208585039055908b16825281208054849290610d5990849061204b565b9250508190555050505080610d6d90611f01565b9050610c91565b50846001600160a01b0316866001600160a01b0316826001600160a01b03167f4a39dc06d4c0dbc64b70af90fd698a233a518aa5d07e595d983b8c0526c8f7fb8787604051610dc492919061205e565b60405180910390a4610dda81878787878761148c565b505050505050565b6001600160a01b038316610e085760405162461bcd60e51b81526004016104ba9061208c565b8051825114610e295760405162461bcd60e51b81526004016104ba90611f74565b6000339050610e4c8185600086866040518060200160405280600081525061147e565b60005b8351811015610f11576000848281518110610e6c57610e6c611ed5565b602002602001015190506000848381518110610e8a57610e8a611ed5565b602090810291909101810151600084815280835260408082206001600160a01b038c168352909352919091205490915081811015610eda5760405162461bcd60e51b81526004016104ba906120cf565b6000928352602083815260408085206001600160a01b038b1686529091529092209103905580610f0981611f01565b915050610e4f565b5060006001600160a01b0316846001600160a01b0316826001600160a01b03167f4a39dc06d4c0dbc64b70af90fd698a233a518aa5d07e595d983b8c0526c8f7fb8686604051610f6292919061205e565b60405180910390a460408051602081019091526000905250505050565b6003546001600160a01b0316331461082e5760405162461bcd60e51b815260206004820181905260248201527f4f776e61626c653a2063616c6c6572206973206e6f7420746865206f776e657260448201526064016104ba565b600380546001600160a01b038381166001600160a01b0319831681179093556040519116919082907f8be0079c531659141344cd1fd0a4f28419497f9722a3daafe3b4186f6b6457e090600090a35050565b6001600160a01b03841661108b5760405162461bcd60e51b815260206004820152602160248201527f455243313135353a206d696e7420746f20746865207a65726f206164647265736044820152607360f81b60648201526084016104ba565b336000611097856115e7565b905060006110a4856115e7565b90506110b58360008985858961147e565b6000868152602081815260408083206001600160a01b038b168452909152812080548792906110e590849061204b565b909155505060408051878152602081018790526001600160a01b03808a1692600092918716917fc3d58168c5ae7397731d063d5bbf3d657854427343f4c083240f7aacaa2d0f62910160405180910390a461114583600089898989611632565b50505050505050565b816001600160a01b0316836001600160a01b0316036111c15760405162461bcd60e51b815260206004820152602960248201527f455243313135353a2073657474696e6720617070726f76616c20737461747573604482015268103337b91039b2b63360b91b60648201526084016104ba565b6001600160a01b03838116600081815260016020908152604080832094871680845294825291829020805460ff191686151590811790915591519182527f17307eab39ab6107e8899845ad3d59bd9653f200f220920489ca2b5937696c31910160405180910390a3505050565b6001600160a01b0384166112545760405162461bcd60e51b81526004016104ba90611fbc565b336000611260856115e7565b9050600061126d856115e7565b905061127d83898985858961147e565b6000868152602081815260408083206001600160a01b038c168452909152902054858110156112be5760405162461bcd60e51b81526004016104ba90612001565b6000878152602081815260408083206001600160a01b038d8116855292528083208985039055908a168252812080548892906112fb90849061204b565b909155505060408051888152602081018890526001600160a01b03808b16928c821692918816917fc3d58168c5ae7397731d063d5bbf3d657854427343f4c083240f7aacaa2d0f62910160405180910390a461135b848a8a8a8a8a611632565b505050505050505050565b6001600160a01b03831661138c5760405162461bcd60e51b81526004016104ba9061208c565b336000611398846115e7565b905060006113a5846115e7565b90506113c58387600085856040518060200160405280600081525061147e565b6000858152602081815260408083206001600160a01b038a168452909152902054848110156114065760405162461bcd60e51b81526004016104ba906120cf565b6000868152602081815260408083206001600160a01b038b81168086529184528285208a8703905582518b81529384018a90529092908816917fc3d58168c5ae7397731d063d5bbf3d657854427343f4c083240f7aacaa2d0f62910160405180910390a4604080516020810190915260009052611145565b610dda8686868686866116ed565b6001600160a01b0384163b15610dda5760405163bc197c8160e01b81526001600160a01b0385169063bc197c81906114d09089908990889088908890600401612113565b6020604051808303816000875af192505050801561150b575060408051601f3d908101601f1916820190925261150891810190612171565b60015b6115b75761151761218e565b806308c379a003611550575061152b6121aa565b806115365750611552565b8060405162461bcd60e51b81526004016104ba9190611920565b505b60405162461bcd60e51b815260206004820152603460248201527f455243313135353a207472616e7366657220746f206e6f6e2d455243313135356044820152732932b1b2b4bb32b91034b6b83632b6b2b73a32b960611b60648201526084016104ba565b6001600160e01b0319811663bc197c8160e01b146111455760405162461bcd60e51b81526004016104ba90612234565b6040805160018082528183019092526060916000919060208083019080368337019050509050828160008151811061162157611621611ed5565b602090810291909101015292915050565b6001600160a01b0384163b15610dda5760405163f23a6e6160e01b81526001600160a01b0385169063f23a6e6190611676908990899088908890889060040161227c565b6020604051808303816000875af19250505080156116b1575060408051601f3d908101601f191682019092526116ae91810190612171565b60015b6116bd5761151761218e565b6001600160e01b0319811663f23a6e6160e01b146111455760405162461bcd60e51b81526004016104ba90612234565b6001600160a01b0385166117745760005b83518110156117725782818151811061171957611719611ed5565b60200260200101516004600086848151811061173757611737611ed5565b60200260200101518152602001908152602001600020600082825461175c919061204b565b9091555061176b905081611f01565b90506116fe565b505b6001600160a01b038416610dda5760005b83518110156111455760008482815181106117a2576117a2611ed5565b6020026020010151905060008483815181106117c0576117c0611ed5565b60200260200101519050600060046000848152602001908152602001600020549050818110156118435760405162461bcd60e51b815260206004820152602860248201527f455243313135353a206275726e20616d6f756e74206578636565647320746f74604482015267616c537570706c7960c01b60648201526084016104ba565b6000928352600460205260409092209103905561185f81611f01565b9050611785565b6001600160a01b0381168114610bf257600080fd5b6000806040838503121561188e57600080fd5b823561189981611866565b946020939093013593505050565b6001600160e01b031981168114610bf257600080fd5b6000602082840312156118cf57600080fd5b8135610ada816118a7565b6000815180845260005b81811015611900576020818501810151868301820152016118e4565b506000602082860101526020601f19601f83011685010191505092915050565b602081526000610ada60208301846118da565b60006020828403121561194557600080fd5b5035919050565b634e487b7160e01b600052604160045260246000fd5b601f8201601f1916810167ffffffffffffffff811182821017156119885761198861194c565b6040525050565b600067ffffffffffffffff8211156119a9576119a961194c565b5060051b60200190565b600082601f8301126119c457600080fd5b813560206119d18261198f565b6040516119de8282611962565b83815260059390931b85018201928281019150868411156119fe57600080fd5b8286015b84811015611a195780358352918301918301611a02565b509695505050505050565b600082601f830112611a3557600080fd5b813567ffffffffffffffff811115611a4f57611a4f61194c565b604051611a66601f8301601f191660200182611962565b818152846020838601011115611a7b57600080fd5b816020850160208301376000918101602001919091529392505050565b600080600080600060a08688031215611ab057600080fd5b8535611abb81611866565b94506020860135611acb81611866565b9350604086013567ffffffffffffffff80821115611ae857600080fd5b611af489838a016119b3565b94506060880135915080821115611b0a57600080fd5b611b1689838a016119b3565b93506080880135915080821115611b2c57600080fd5b50611b3988828901611a24565b9150509295509295909350565b60008060408385031215611b5957600080fd5b823567ffffffffffffffff80821115611b7157600080fd5b818501915085601f830112611b8557600080fd5b81356020611b928261198f565b604051611b9f8282611962565b83815260059390931b8501820192828101915089841115611bbf57600080fd5b948201945b83861015611be6578535611bd781611866565b82529482019490820190611bc4565b96505086013592505080821115611bfc57600080fd5b50611c09858286016119b3565b9150509250929050565b600081518084526020808501945080840160005b83811015611c4357815187529582019590820190600101611c27565b509495945050505050565b602081526000610ada6020830184611c13565b600080600060608486031215611c7657600080fd5b8335611c8181611866565b9250602084013567ffffffffffffffff80821115611c9e57600080fd5b611caa878388016119b3565b93506040860135915080821115611cc057600080fd5b50611ccd868287016119b3565b9150509250925092565b600080600060608486031215611cec57600080fd5b8335611cf781611866565b925060208401359150604084013567ffffffffffffffff811115611d1a57600080fd5b611ccd86828701611a24565b60008060408385031215611d3957600080fd5b8235611d4481611866565b915060208301358015158114611d5957600080fd5b809150509250929050565b60008060408385031215611d7757600080fd5b8235611d8281611866565b91506020830135611d5981611866565b600060208284031215611da457600080fd5b8135610ada81611866565b600080600080600060a08688031215611dc757600080fd5b8535611dd281611866565b94506020860135611de281611866565b93506040860135925060608601359150608086013567ffffffffffffffff811115611e0c57600080fd5b611b3988828901611a24565b600080600060608486031215611e2d57600080fd5b8335611e3881611866565b95602085013595506040909401359392505050565b600181811c90821680611e6157607f821691505b602082108103611e8157634e487b7160e01b600052602260045260246000fd5b50919050565b6020808252602e908201527f455243313135353a2063616c6c6572206973206e6f7420746f6b656e206f776e60408201526d195c881bdc88185c1c1c9bdd995960921b606082015260800190565b634e487b7160e01b600052603260045260246000fd5b634e487b7160e01b600052601160045260246000fd5b600060018201611f1357611f13611eeb565b5060010190565b80820281158282048414176104e6576104e6611eeb565b858152846020820152600060018060a01b03808616604084015260a06060840152611f5f60a08401866118da565b91508084166080840152509695505050505050565b60208082526028908201527f455243313135353a2069647320616e6420616d6f756e7473206c656e677468206040820152670dad2e6dac2e8c6d60c31b606082015260800190565b60208082526025908201527f455243313135353a207472616e7366657220746f20746865207a65726f206164604082015264647265737360d81b606082015260800190565b6020808252602a908201527f455243313135353a20696e73756666696369656e742062616c616e636520666f60408201526939103a3930b739b332b960b11b606082015260800190565b808201808211156104e6576104e6611eeb565b6040815260006120716040830185611c13565b82810360208401526120838185611c13565b95945050505050565b60208082526023908201527f455243313135353a206275726e2066726f6d20746865207a65726f206164647260408201526265737360e81b606082015260800190565b60208082526024908201527f455243313135353a206275726e20616d6f756e7420657863656564732062616c604082015263616e636560e01b606082015260800190565b6001600160a01b0386811682528516602082015260a06040820181905260009061213f90830186611c13565b82810360608401526121518186611c13565b9050828103608084015261216581856118da565b98975050505050505050565b60006020828403121561218357600080fd5b8151610ada816118a7565b600060033d11156121a75760046000803e5060005160e01c5b90565b600060443d10156121b85790565b6040516003193d81016004833e81513d67ffffffffffffffff81602484011181841117156121e857505050505090565b82850191508151818111156122005750505050505090565b843d870101602082850101111561221a5750505050505090565b61222960208286010187611962565b509095945050505050565b60208082526028908201527f455243313135353a204552433131353552656365697665722072656a656374656040820152676420746f6b656e7360c01b606082015260800190565b6001600160a01b03868116825285166020820152604081018490526060810183905260a0608082018190526000906122b6908301846118da565b97965050505050505056fea264697066735822122068cd2424231fd83c844da3e133bb4e4ceeaebc7a22433e1800e3de4346f699e564736f6c63430008150033a264697066735822122085a54249a718def9ae3fbf076645c92db5d822d996b2b50bec4846a06eae5e6464736f6c63430008150033",
  "linkReferences": {},
  "deployedLinkReferences": {}
}