{
  "_format": "hh-sol-artifact-1",
  "contractName": "VolcanoAuction",
  "sourceName": "contracts/VolcanoAuction.sol",
  "abi": [
    {
      "inputs": [],
      "stateMutability": "nonpayable",
      "type": "constructor"
    },
    {
      "anonymous": false,
      "inputs": [
        {
          "indexed": false,
          "internalType": "address",
          "name": "previousAdmin",
          "type": "address"
        },
        {
          "indexed": false,
          "internalType": "address",
          "name": "newAdmin",
          "type": "address"
        }
      ],
      "name": "AdminChanged",
      "type": "event"
    },
    {
      "anonymous": false,
      "inputs": [
        {
          "indexed": true,
          "internalType": "address",
          "name": "nftAddress",
          "type": "address"
        },
        {
          "indexed": true,
          "internalType": "uint256",
          "name": "tokenId",
          "type": "uint256"
        }
      ],
      "name": "AuctionCancelled",
      "type": "event"
    },
    {
      "anonymous": false,
      "inputs": [
        {
          "indexed": true,
          "internalType": "address",
          "name": "nftAddress",
          "type": "address"
        },
        {
          "indexed": true,
          "internalType": "uint256",
          "name": "tokenId",
          "type": "uint256"
        },
        {
          "indexed": false,
          "internalType": "address",
          "name": "payToken",
          "type": "address"
        }
      ],
      "name": "AuctionCreated",
      "type": "event"
    },
    {
      "anonymous": false,
      "inputs": [
        {
          "indexed": false,
          "internalType": "address",
          "name": "oldOwner",
          "type": "address"
        },
        {
          "indexed": true,
          "internalType": "address",
          "name": "nftAddress",
          "type": "address"
        },
        {
          "indexed": true,
          "internalType": "uint256",
          "name": "tokenId",
          "type": "uint256"
        },
        {
          "indexed": true,
          "internalType": "address",
          "name": "winner",
          "type": "address"
        },
        {
          "indexed": false,
          "internalType": "address",
          "name": "payToken",
          "type": "address"
        },
        {
          "indexed": false,
          "internalType": "int256",
          "name": "payTokenPrice",
          "type": "int256"
        },
        {
          "indexed": false,
          "internalType": "uint256",
          "name": "winningBid",
          "type": "uint256"
        }
      ],
      "name": "AuctionResulted",
      "type": "event"
    },
    {
      "anonymous": false,
      "inputs": [
        {
          "indexed": true,
          "internalType": "address",
          "name": "beacon",
          "type": "address"
        }
      ],
      "name": "BeaconUpgraded",
      "type": "event"
    },
    {
      "anonymous": false,
      "inputs": [
        {
          "indexed": true,
          "internalType": "address",
          "name": "nftAddress",
          "type": "address"
        },
        {
          "indexed": true,
          "internalType": "uint256",
          "name": "tokenId",
          "type": "uint256"
        },
        {
          "indexed": true,
          "internalType": "address",
          "name": "bidder",
          "type": "address"
        },
        {
          "indexed": false,
          "internalType": "uint256",
          "name": "bid",
          "type": "uint256"
        }
      ],
      "name": "BidPlaced",
      "type": "event"
    },
    {
      "anonymous": false,
      "inputs": [
        {
          "indexed": true,
          "internalType": "address",
          "name": "nftAddress",
          "type": "address"
        },
        {
          "indexed": true,
          "internalType": "uint256",
          "name": "tokenId",
          "type": "uint256"
        },
        {
          "indexed": true,
          "internalType": "address",
          "name": "bidder",
          "type": "address"
        },
        {
          "indexed": false,
          "internalType": "uint256",
          "name": "bid",
          "type": "uint256"
        }
      ],
      "name": "BidRefunded",
      "type": "event"
    },
    {
      "anonymous": false,
      "inputs": [
        {
          "indexed": true,
          "internalType": "address",
          "name": "nftAddress",
          "type": "address"
        },
        {
          "indexed": true,
          "internalType": "uint256",
          "name": "tokenId",
          "type": "uint256"
        },
        {
          "indexed": true,
          "internalType": "address",
          "name": "bidder",
          "type": "address"
        },
        {
          "indexed": false,
          "internalType": "uint256",
          "name": "bid",
          "type": "uint256"
        }
      ],
      "name": "BidWithdrawn",
      "type": "event"
    },
    {
      "anonymous": false,
      "inputs": [
        {
          "indexed": false,
          "internalType": "uint8",
          "name": "version",
          "type": "uint8"
        }
      ],
      "name": "Initialized",
      "type": "event"
    },
    {
      "anonymous": false,
      "inputs": [
        {
          "indexed": true,
          "internalType": "address",
          "name": "previousOwner",
          "type": "address"
        },
        {
          "indexed": true,
          "internalType": "address",
          "name": "newOwner",
          "type": "address"
        }
      ],
      "name": "OwnershipTransferred",
      "type": "event"
    },
    {
      "anonymous": false,
      "inputs": [
        {
          "indexed": false,
          "internalType": "bool",
          "name": "isPaused",
          "type": "bool"
        }
      ],
      "name": "PauseToggled",
      "type": "event"
    },
    {
      "anonymous": false,
      "inputs": [
        {
          "indexed": false,
          "internalType": "address",
          "name": "account",
          "type": "address"
        }
      ],
      "name": "Paused",
      "type": "event"
    },
    {
      "anonymous": false,
      "inputs": [
        {
          "indexed": false,
          "internalType": "address",
          "name": "account",
          "type": "address"
        }
      ],
      "name": "Unpaused",
      "type": "event"
    },
    {
      "anonymous": false,
      "inputs": [
        {
          "indexed": true,
          "internalType": "address",
          "name": "nftAddress",
          "type": "address"
        },
        {
          "indexed": true,
          "internalType": "uint256",
          "name": "tokenId",
          "type": "uint256"
        },
        {
          "indexed": false,
          "internalType": "uint256",
          "name": "endTime",
          "type": "uint256"
        }
      ],
      "name": "UpdateAuctionEndTime",
      "type": "event"
    },
    {
      "anonymous": false,
      "inputs": [
        {
          "indexed": true,
          "internalType": "address",
          "name": "nftAddress",
          "type": "address"
        },
        {
          "indexed": true,
          "internalType": "uint256",
          "name": "tokenId",
          "type": "uint256"
        },
        {
          "indexed": false,
          "internalType": "address",
          "name": "payToken",
          "type": "address"
        },
        {
          "indexed": false,
          "internalType": "uint256",
          "name": "reservePrice",
          "type": "uint256"
        }
      ],
      "name": "UpdateAuctionReservePrice",
      "type": "event"
    },
    {
      "anonymous": false,
      "inputs": [
        {
          "indexed": true,
          "internalType": "address",
          "name": "nftAddress",
          "type": "address"
        },
        {
          "indexed": true,
          "internalType": "uint256",
          "name": "tokenId",
          "type": "uint256"
        },
        {
          "indexed": false,
          "internalType": "uint256",
          "name": "startTime",
          "type": "uint256"
        }
      ],
      "name": "UpdateAuctionStartTime",
      "type": "event"
    },
    {
      "anonymous": false,
      "inputs": [
        {
          "indexed": false,
          "internalType": "uint256",
          "name": "bidWithdrawalLockTime",
          "type": "uint256"
        }
      ],
      "name": "UpdateBidWithdrawalLockTime",
      "type": "event"
    },
    {
      "anonymous": false,
      "inputs": [
        {
          "indexed": false,
          "internalType": "uint256",
          "name": "minBidIncrement",
          "type": "uint256"
        }
      ],
      "name": "UpdateMinBidIncrement",
      "type": "event"
    },
    {
      "anonymous": false,
      "inputs": [
        {
          "indexed": false,
          "internalType": "uint256",
          "name": "platformFee",
          "type": "uint256"
        }
      ],
      "name": "UpdatePlatformFee",
      "type": "event"
    },
    {
      "anonymous": false,
      "inputs": [
        {
          "indexed": false,
          "internalType": "address payable",
          "name": "platformFeeRecipient",
          "type": "address"
        }
      ],
      "name": "UpdatePlatformFeeRecipient",
      "type": "event"
    },
    {
      "anonymous": false,
      "inputs": [
        {
          "indexed": true,
          "internalType": "address",
          "name": "implementation",
          "type": "address"
        }
      ],
      "name": "Upgraded",
      "type": "event"
    },
    {
      "anonymous": false,
      "inputs": [],
      "name": "VolcanoAuctionContractDeployed",
      "type": "event"
    },
    {
      "inputs": [],
      "name": "addressRegistry",
      "outputs": [
        {
          "internalType": "contract IVolcanoAddressRegistry",
          "name": "",
          "type": "address"
        }
      ],
      "stateMutability": "view",
      "type": "function"
    },
    {
      "inputs": [
        {
          "internalType": "address",
          "name": "",
          "type": "address"
        },
        {
          "internalType": "uint256",
          "name": "",
          "type": "uint256"
        }
      ],
      "name": "auctions",
      "outputs": [
        {
          "internalType": "address",
          "name": "owner",
          "type": "address"
        },
        {
          "internalType": "address",
          "name": "payToken",
          "type": "address"
        },
        {
          "internalType": "uint256",
          "name": "minBid",
          "type": "uint256"
        },
        {
          "internalType": "uint256",
          "name": "reservePrice",
          "type": "uint256"
        },
        {
          "internalType": "uint256",
          "name": "startTime",
          "type": "uint256"
        },
        {
          "internalType": "uint256",
          "name": "endTime",
          "type": "uint256"
        },
        {
          "internalType": "bool",
          "name": "resulted",
          "type": "bool"
        }
      ],
      "stateMutability": "view",
      "type": "function"
    },
    {
      "inputs": [],
      "name": "bidWithdrawalLockTime",
      "outputs": [
        {
          "internalType": "uint256",
          "name": "",
          "type": "uint256"
        }
      ],
      "stateMutability": "view",
      "type": "function"
    },
    {
      "inputs": [
        {
          "internalType": "address",
          "name": "_nftAddress",
          "type": "address"
        },
        {
          "internalType": "uint256",
          "name": "_tokenId",
          "type": "uint256"
        }
      ],
      "name": "cancelAuction",
      "outputs": [],
      "stateMutability": "nonpayable",
      "type": "function"
    },
    {
      "inputs": [
        {
          "internalType": "address",
          "name": "_nftAddress",
          "type": "address"
        },
        {
          "internalType": "uint256",
          "name": "_tokenId",
          "type": "uint256"
        },
        {
          "internalType": "address",
          "name": "_payToken",
          "type": "address"
        },
        {
          "internalType": "uint256",
          "name": "_reservePrice",
          "type": "uint256"
        },
        {
          "internalType": "uint256",
          "name": "_startTimestamp",
          "type": "uint256"
        },
        {
          "internalType": "bool",
          "name": "minBidReserve",
          "type": "bool"
        },
        {
          "internalType": "uint256",
          "name": "_endTimestamp",
          "type": "uint256"
        }
      ],
      "name": "createAuction",
      "outputs": [],
      "stateMutability": "nonpayable",
      "type": "function"
    },
    {
      "inputs": [
        {
          "internalType": "address",
          "name": "_nftAddress",
          "type": "address"
        },
        {
          "internalType": "uint256",
          "name": "_tokenId",
          "type": "uint256"
        }
      ],
      "name": "getAuction",
      "outputs": [
        {
          "internalType": "address",
          "name": "_owner",
          "type": "address"
        },
        {
          "internalType": "address",
          "name": "_payToken",
          "type": "address"
        },
        {
          "internalType": "uint256",
          "name": "_reservePrice",
          "type": "uint256"
        },
        {
          "internalType": "uint256",
          "name": "_startTime",
          "type": "uint256"
        },
        {
          "internalType": "uint256",
          "name": "_endTime",
          "type": "uint256"
        },
        {
          "internalType": "bool",
          "name": "_resulted",
          "type": "bool"
        },
        {
          "internalType": "uint256",
          "name": "minBid",
          "type": "uint256"
        }
      ],
      "stateMutability": "view",
      "type": "function"
    },
    {
      "inputs": [
        {
          "internalType": "address",
          "name": "_nftAddress",
          "type": "address"
        },
        {
          "internalType": "uint256",
          "name": "_tokenId",
          "type": "uint256"
        }
      ],
      "name": "getHighestBidder",
      "outputs": [
        {
          "internalType": "address payable",
          "name": "_bidder",
          "type": "address"
        },
        {
          "internalType": "uint256",
          "name": "_bid",
          "type": "uint256"
        },
        {
          "internalType": "uint256",
          "name": "_lastBidTime",
          "type": "uint256"
        }
      ],
      "stateMutability": "view",
      "type": "function"
    },
    {
      "inputs": [
        {
          "internalType": "address",
          "name": "",
          "type": "address"
        },
        {
          "internalType": "uint256",
          "name": "",
          "type": "uint256"
        }
      ],
      "name": "highestBids",
      "outputs": [
        {
          "internalType": "address payable",
          "name": "bidder",
          "type": "address"
        },
        {
          "internalType": "uint256",
          "name": "bid",
          "type": "uint256"
        },
        {
          "internalType": "uint256",
          "name": "lastBidTime",
          "type": "uint256"
        }
      ],
      "stateMutability": "view",
      "type": "function"
    },
    {
      "inputs": [
        {
          "internalType": "address payable",
          "name": "_platformFeeRecipient",
          "type": "address"
        },
        {
          "internalType": "uint256",
          "name": "_platformFee",
          "type": "uint256"
        }
      ],
      "name": "initialize",
      "outputs": [],
      "stateMutability": "nonpayable",
      "type": "function"
    },
    {
      "inputs": [],
      "name": "minBidIncrement",
      "outputs": [
        {
          "internalType": "uint256",
          "name": "",
          "type": "uint256"
        }
      ],
      "stateMutability": "view",
      "type": "function"
    },
    {
      "inputs": [],
      "name": "owner",
      "outputs": [
        {
          "internalType": "address",
          "name": "",
          "type": "address"
        }
      ],
      "stateMutability": "view",
      "type": "function"
    },
    {
      "inputs": [],
      "name": "paused",
      "outputs": [
        {
          "internalType": "bool",
          "name": "",
          "type": "bool"
        }
      ],
      "stateMutability": "view",
      "type": "function"
    },
    {
      "inputs": [
        {
          "internalType": "address",
          "name": "_nftAddress",
          "type": "address"
        },
        {
          "internalType": "uint256",
          "name": "_tokenId",
          "type": "uint256"
        },
        {
          "internalType": "uint256",
          "name": "_bidAmount",
          "type": "uint256"
        }
      ],
      "name": "placeBid",
      "outputs": [],
      "stateMutability": "payable",
      "type": "function"
    },
    {
      "inputs": [],
      "name": "platformFee",
      "outputs": [
        {
          "internalType": "uint256",
          "name": "",
          "type": "uint256"
        }
      ],
      "stateMutability": "view",
      "type": "function"
    },
    {
      "inputs": [],
      "name": "platformFeeRecipient",
      "outputs": [
        {
          "internalType": "address payable",
          "name": "",
          "type": "address"
        }
      ],
      "stateMutability": "view",
      "type": "function"
    },
    {
      "inputs": [],
      "name": "proxiableUUID",
      "outputs": [
        {
          "internalType": "bytes32",
          "name": "",
          "type": "bytes32"
        }
      ],
      "stateMutability": "view",
      "type": "function"
    },
    {
      "inputs": [
        {
          "internalType": "address",
          "name": "_tokenContract",
          "type": "address"
        }
      ],
      "name": "reclaimERC20",
      "outputs": [],
      "stateMutability": "nonpayable",
      "type": "function"
    },
    {
      "inputs": [],
      "name": "renounceOwnership",
      "outputs": [],
      "stateMutability": "nonpayable",
      "type": "function"
    },
    {
      "inputs": [
        {
          "internalType": "address",
          "name": "_nftAddress",
          "type": "address"
        },
        {
          "internalType": "uint256",
          "name": "_tokenId",
          "type": "uint256"
        }
      ],
      "name": "resultAuction",
      "outputs": [],
      "stateMutability": "nonpayable",
      "type": "function"
    },
    {
      "inputs": [],
      "name": "toggleIsPaused",
      "outputs": [],
      "stateMutability": "nonpayable",
      "type": "function"
    },
    {
      "inputs": [
        {
          "internalType": "address",
          "name": "newOwner",
          "type": "address"
        }
      ],
      "name": "transferOwnership",
      "outputs": [],
      "stateMutability": "nonpayable",
      "type": "function"
    },
    {
      "inputs": [
        {
          "internalType": "address",
          "name": "_registry",
          "type": "address"
        }
      ],
      "name": "updateAddressRegistry",
      "outputs": [],
      "stateMutability": "nonpayable",
      "type": "function"
    },
    {
      "inputs": [
        {
          "internalType": "address",
          "name": "_nftAddress",
          "type": "address"
        },
        {
          "internalType": "uint256",
          "name": "_tokenId",
          "type": "uint256"
        },
        {
          "internalType": "uint256",
          "name": "_endTimestamp",
          "type": "uint256"
        }
      ],
      "name": "updateAuctionEndTime",
      "outputs": [],
      "stateMutability": "nonpayable",
      "type": "function"
    },
    {
      "inputs": [
        {
          "internalType": "address",
          "name": "_nftAddress",
          "type": "address"
        },
        {
          "internalType": "uint256",
          "name": "_tokenId",
          "type": "uint256"
        },
        {
          "internalType": "uint256",
          "name": "_reservePrice",
          "type": "uint256"
        }
      ],
      "name": "updateAuctionReservePrice",
      "outputs": [],
      "stateMutability": "nonpayable",
      "type": "function"
    },
    {
      "inputs": [
        {
          "internalType": "address",
          "name": "_nftAddress",
          "type": "address"
        },
        {
          "internalType": "uint256",
          "name": "_tokenId",
          "type": "uint256"
        },
        {
          "internalType": "uint256",
          "name": "_startTime",
          "type": "uint256"
        }
      ],
      "name": "updateAuctionStartTime",
      "outputs": [],
      "stateMutability": "nonpayable",
      "type": "function"
    },
    {
      "inputs": [
        {
          "internalType": "uint256",
          "name": "_bidWithdrawalLockTime",
          "type": "uint256"
        }
      ],
      "name": "updateBidWithdrawalLockTime",
      "outputs": [],
      "stateMutability": "nonpayable",
      "type": "function"
    },
    {
      "inputs": [
        {
          "internalType": "uint256",
          "name": "_minBidIncrement",
          "type": "uint256"
        }
      ],
      "name": "updateMinBidIncrement",
      "outputs": [],
      "stateMutability": "nonpayable",
      "type": "function"
    },
    {
      "inputs": [
        {
          "internalType": "uint256",
          "name": "_platformFee",
          "type": "uint256"
        }
      ],
      "name": "updatePlatformFee",
      "outputs": [],
      "stateMutability": "nonpayable",
      "type": "function"
    },
    {
      "inputs": [
        {
          "internalType": "address payable",
          "name": "_platformFeeRecipient",
          "type": "address"
        }
      ],
      "name": "updatePlatformFeeRecipient",
      "outputs": [],
      "stateMutability": "nonpayable",
      "type": "function"
    },
    {
      "inputs": [
        {
          "internalType": "address",
          "name": "newImplementation",
          "type": "address"
        }
      ],
      "name": "upgradeTo",
      "outputs": [],
      "stateMutability": "nonpayable",
      "type": "function"
    },
    {
      "inputs": [
        {
          "internalType": "address",
          "name": "newImplementation",
          "type": "address"
        },
        {
          "internalType": "bytes",
          "name": "data",
          "type": "bytes"
        }
      ],
      "name": "upgradeToAndCall",
      "outputs": [],
      "stateMutability": "payable",
      "type": "function"
    },
    {
      "inputs": [
        {
          "internalType": "address",
          "name": "_nftAddress",
          "type": "address"
        },
        {
          "internalType": "uint256",
          "name": "_tokenId",
          "type": "uint256"
        }
      ],
      "name": "withdrawBid",
      "outputs": [],
      "stateMutability": "nonpayable",
      "type": "function"
    }
  ],
  "bytecode": "0x60a0604052306080523480156200001557600080fd5b506200002062000026565b620000e7565b600054610100900460ff1615620000935760405162461bcd60e51b815260206004820152602760248201527f496e697469616c697a61626c653a20636f6e747261637420697320696e697469604482015266616c697a696e6760c81b606482015260840160405180910390fd5b60005460ff90811614620000e5576000805460ff191660ff9081179091556040519081527f7f26b83ff96e1f2b6a682f133852f6798a09c465da95921460cefb38474024989060200160405180910390a15b565b6080516142da6200011f6000396000818161092b0152818161096b01528181610c0501528181610c450152610cd401526142da6000f3fe6080604052600436106101e35760003560e01c8063715018a611610102578063aa0b598811610095578063f2fde38b11610064578063f2fde38b14610702578063f3ad65f414610722578063f5fe7f7114610743578063f9613d7f1461076357600080fd5b8063aa0b598814610681578063ab2870e2146106a1578063cd6dc687146106c1578063eb13554f146106e157600080fd5b80638da5cb5b116100d15780638da5cb5b146105bb5780639ad2d9ec146105ed578063a062feb91461060d578063a670a9b41461062d57600080fd5b8063715018a6146104ac578063762a66a2146104c1578063859b97fe1461057b5780638905fd4f1461059b57600080fd5b806352d1902d1161017a57806368e79e891161014957806368e79e89146103de5780636a5362f6146103fe5780636b753f36146104155780636c58a5a41461048c57600080fd5b806352d1902d146103665780635c975abb1461037b5780635f7063ef1461039e578063623de5ad146103be57600080fd5b80633659cfe6116101b65780633659cfe61461025e57806344f91c1e1461027e5780634cb8ef5b146103335780634f1ef2861461035357600080fd5b806304717aca146101e8578063083759e0146101fd57806326232a2e1461021d578063335b115e14610247575b600080fd5b6101fb6101f6366004613ca7565b610778565b005b34801561020957600080fd5b506101fb610218366004613cdc565b6108dc565b34801561022957600080fd5b506102346101315481565b6040519081526020015b60405180910390f35b34801561025357600080fd5b5061023461012f5481565b34801561026a57600080fd5b506101fb610279366004613cf5565b610921565b34801561028a57600080fd5b506102f1610299366004613d19565b61012d60209081526000928352604080842090915290825290208054600182015460028301546003840154600485015460058601546006909601546001600160a01b0395861696959094169492939192909160ff1687565b604080516001600160a01b039889168152979096166020880152948601939093526060850191909152608084015260a0830152151560c082015260e00161023e565b34801561033f57600080fd5b506101fb61034e366004613d19565b610a00565b6101fb610361366004613d5b565b610bfb565b34801561037257600080fd5b50610234610cc7565b34801561038757600080fd5b5060335460ff16604051901515815260200161023e565b3480156103aa57600080fd5b506101fb6103b9366004613d19565b610d7a565b3480156103ca57600080fd5b506101fb6103d9366004613cdc565b611c9a565b3480156103ea57600080fd5b506101fb6103f9366004613cf5565b611cd8565b34801561040a57600080fd5b506102346101305481565b34801561042157600080fd5b50610467610430366004613d19565b61012e6020908152600092835260408084209091529082529020805460018201546002909201546001600160a01b03909116919083565b604080516001600160a01b03909416845260208401929092529082015260600161023e565b34801561049857600080fd5b506101fb6104a7366004613ca7565b611d03565b3480156104b857600080fd5b506101fb611efc565b3480156104cd57600080fd5b506105396104dc366004613d19565b6001600160a01b03918216600090815261012d602090815260408083209383529290522080546001820154600383015460048401546005850154600686015460029096015494871697939096169591949093919260ff9091169190565b604080516001600160a01b0398891681529790961660208801529486019390935260608501919091526080840152151560a083015260c082015260e00161023e565b34801561058757600080fd5b506101fb610596366004613d19565b611f10565b3480156105a757600080fd5b506101fb6105b6366004613cf5565b612091565b3480156105c757600080fd5b506065546001600160a01b03165b6040516001600160a01b03909116815260200161023e565b3480156105f957600080fd5b506101fb610608366004613ca7565b612261565b34801561061957600080fd5b506101fb610628366004613ca7565b612420565b34801561063957600080fd5b50610467610648366004613d19565b6001600160a01b03918216600090815261012e602090815260408083209383529290522080546001820154600290920154921692909190565b34801561068d57600080fd5b506101fb61069c366004613cdc565b61252e565b3480156106ad57600080fd5b506101fb6106bc366004613e2d565b61256c565b3480156106cd57600080fd5b506101fb6106dc366004613d19565b612889565b3480156106ed57600080fd5b50610132546105d5906001600160a01b031681565b34801561070e57600080fd5b506101fb61071d366004613cf5565b612a78565b34801561072e57600080fd5b50610133546105d5906001600160a01b031681565b34801561074f57600080fd5b506101fb61075e366004613cf5565b612aee565b34801561076f57600080fd5b506101fb612b8a565b610780612bef565b610788612c48565b333b156107d55760405162461bcd60e51b81526020600482015260166024820152751b9bc818dbdb9d1c9858dd1cc81c195c9b5a5d1d195960521b60448201526064015b60405180910390fd5b6001600160a01b03838116600090815261012d60209081526040808320868452825291829020825160e08101845281548516815260018201549094169184019190915260028101549183019190915260038101546060830152600481015460808301819052600582015460a084015260069091015460ff16151560c08301524210158015610867575060a08101514211155b6108c15760405162461bcd60e51b815260206004820152602560248201527f62696464696e67206f757473696465206f66207468652061756374696f6e2077604482015264696e646f7760d81b60648201526084016107cc565b6108cc848484612c8e565b506108d7600160fb55565b505050565b6108e4612fea565b61012f8190556040518181527f489b0441344cbdcb036bee4857de51567f580e9747166f76b581be803ca45fcb906020015b60405180910390a150565b6001600160a01b037f00000000000000000000000000000000000000000000000000000000000000001630036109695760405162461bcd60e51b81526004016107cc90613e9f565b7f00000000000000000000000000000000000000000000000000000000000000006001600160a01b03166109b260008051602061425e833981519152546001600160a01b031690565b6001600160a01b0316146109d85760405162461bcd60e51b81526004016107cc90613eeb565b6109e181613044565b604080516000808252602082019092526109fd9183919061304c565b50565b610a08612bef565b610a10612c48565b6001600160a01b03828116600090815261012e60209081526040808320858452909152902080549091163314610a885760405162461bcd60e51b815260206004820152601e60248201527f796f7520617265206e6f7420746865206869676865737420626964646572000060448201526064016107cc565b6001600160a01b038316600090815261012d602090815260408083208584529091529020600501548042118015610acb575061013054610ac88242613f4d565b10155b610b495760405162461bcd60e51b815260206004820152604360248201527f63616e207769746864726177206f6e6c7920616674657220626964576974686460448201527f726177616c4c6f636b54696d65202861667465722061756374696f6e20656e6460648201526265642960e81b608482015260a4016107cc565b6001808301546001600160a01b038616600090815261012e60209081526040808320888452909152812080546001600160a01b0319168155928301819055600290920191909155610b9c858533846131b7565b336001600160a01b031684866001600160a01b03167f867b8ea96dd803063f905a19f8117cbb1866ec7a594dfede75ab4a5235f61d7c84604051610be291815260200190565b60405180910390a4505050610bf7600160fb55565b5050565b6001600160a01b037f0000000000000000000000000000000000000000000000000000000000000000163003610c435760405162461bcd60e51b81526004016107cc90613e9f565b7f00000000000000000000000000000000000000000000000000000000000000006001600160a01b0316610c8c60008051602061425e833981519152546001600160a01b031690565b6001600160a01b031614610cb25760405162461bcd60e51b81526004016107cc90613eeb565b610cbb82613044565b610bf78282600161304c565b6000306001600160a01b037f00000000000000000000000000000000000000000000000000000000000000001614610d675760405162461bcd60e51b815260206004820152603860248201527f555550535570677261646561626c653a206d757374206e6f742062652063616c60448201527f6c6564207468726f7567682064656c656761746563616c6c000000000000000060648201526084016107cc565b5060008051602061425e83398151915290565b610d82612bef565b6001600160a01b038216600090815261012d602090815260408083208484529091529020336040516331a9108f60e11b8152600481018490526001600160a01b0391821691851690636352211e90602401602060405180830381865afa158015610df0573d6000803e3d6000fd5b505050506040513d601f19601f82011682018060405250810190610e149190613f60565b6001600160a01b0316148015610e3c575080546001600160a01b0316336001600160a01b0316145b610e845760405162461bcd60e51b815260206004820152601960248201527839b2b73232b91036bab9ba1031329034ba32b69037bbb732b960391b60448201526064016107cc565b6000816005015411610ea85760405162461bcd60e51b81526004016107cc90613f7d565b60058101544211610eef5760405162461bcd60e51b8152602060048201526011602482015270185d58dd1a5bdb881b9bdd08195b991959607a1b60448201526064016107cc565b600681015460ff1615610f145760405162461bcd60e51b81526004016107cc90613fa8565b6001600160a01b03808416600090815261012e602090815260408083208684529091529020805460018201549192169081610f805760405162461bcd60e51b815260206004820152600c60248201526b6e6f206f70656e206269647360a01b60448201526064016107cc565b8360030154811015610fde5760405162461bcd60e51b815260206004820152602160248201527f68696768657374206269642069732062656c6f772072657365727665507269636044820152606560f81b60648201526084016107cc565b6001600160a01b03861663e985e9c5336040516001600160e01b031960e084901b1681526001600160a01b039091166004820152306024820152604401602060405180830381865afa158015611038573d6000803e3d6000fd5b505050506040513d601f19601f8201168201806040525081019061105c9190613fdf565b61109f5760405162461bcd60e51b8152602060048201526014602482015273185d58dd1a5bdb881b9bdd08185c1c1c9bdd995960621b60448201526064016107cc565b60068401805460ff191660019081179091556001600160a01b038716600090815261012e60209081526040808320898452909152812080546001600160a01b0319168155918201819055600290910181905560038501548211156112cd57600085600301548361110f9190613f4d565b905060006103e861013154836111259190613ffc565b61112f9190614013565b60018801549091506001600160a01b03166111ee57610132546040516000916001600160a01b03169083908381818185875af1925050503d8060008114611192576040519150601f19603f3d011682016040523d82523d6000602084013e611197565b606091505b50509050806111e85760405162461bcd60e51b815260206004820152601b60248201527f6661696c656420746f2073656e6420706c6174666f726d20666565000000000060448201526064016107cc565b506112ba565b60018701546101325460405163a9059cbb60e01b81526001600160a01b03918216600482015260248101849052911690819063a9059cbb906044016020604051808303816000875af1158015611248573d6000803e3d6000fd5b505050506040513d601f19601f8201168201806040525081019061126c9190613fdf565b6112b85760405162461bcd60e51b815260206004820152601b60248201527f6661696c656420746f2073656e6420706c6174666f726d20666565000000000060448201526064016107cc565b505b6112c48185613f4d565b925050506112d0565b50805b610133546040805163abc8c7af60e01b815290516000926001600160a01b03169163abc8c7af9160048083019260209291908290030181865afa15801561131b573d6000803e3d6000fd5b505050506040513d601f19601f8201168201806040525081019061133f9190613f60565b6040516378746d0d60e01b81526001600160a01b038a81166004830152602482018a90529192506000918316906378746d0d90604401602060405180830381865afa158015611392573d6000803e3d6000fd5b505050506040513d601f19601f820116820180604052508101906113b69190613f60565b604051633879527160e21b81526001600160a01b038b81166004830152602482018b905291925060009184169063e1e549c490604401602060405180830381865afa158015611409573d6000803e3d6000fd5b505050506040513d601f19601f8201168201806040525081019061142d919061404c565b90506001600160a01b0382161580159061144a575061ffff811615155b156115a557600061271061146261ffff841687613ffc565b61146c9190614013565b60018a01549091506001600160a01b03166114fa576000836001600160a01b03168260405160006040518083038185875af1925050503d80600081146114ce576040519150601f19603f3d011682016040523d82523d6000602084013e6114d3565b606091505b50509050806114f45760405162461bcd60e51b81526004016107cc90614067565b50611593565b600189015460405163a9059cbb60e01b81526001600160a01b0385811660048301526024820184905290911690819063a9059cbb906044016020604051808303816000875af1158015611551573d6000803e3d6000fd5b505050506040513d601f19601f820116820180604052508101906115759190613fdf565b6115915760405162461bcd60e51b81526004016107cc90614067565b505b61159d8186613f4d565b9450506117e7565b6040516315ec9d6d60e21b81526001600160a01b038b811660048301528416906357b275b490602401606060405180830381865afa1580156115eb573d6000803e3d6000fd5b505050506040513d601f19601f8201168201806040525081019061160f91906140af565b9350909150506001600160a01b03821615801590611630575061ffff811615155b156117e757600061271061164861ffff841687613ffc565b6116529190614013565b60018a01549091506001600160a01b0316611710576000836001600160a01b03168260405160006040518083038185875af1925050503d80600081146116b4576040519150601f19603f3d011682016040523d82523d6000602084013e6116b9565b606091505b505090508061170a5760405162461bcd60e51b815260206004820152601c60248201527f6661696c656420746f2073656e642074686520726f79616c746965730000000060448201526064016107cc565b506117d9565b600189015460405163a9059cbb60e01b81526001600160a01b0385811660048301526024820184905290911690819063a9059cbb906044016020604051808303816000875af1158015611767573d6000803e3d6000fd5b505050506040513d601f19601f8201168201806040525081019061178b9190613fdf565b6117d75760405162461bcd60e51b815260206004820152601c60248201527f6661696c656420746f2073656e642074686520726f79616c746965730000000060448201526064016107cc565b505b6117e38186613f4d565b9450505b83156119115760018801546001600160a01b03166118775787546040516000916001600160a01b03169086908381818185875af1925050503d806000811461184b576040519150601f19603f3d011682016040523d82523d6000602084013e611850565b606091505b50509050806118715760405162461bcd60e51b81526004016107cc906140f9565b50611911565b6001880154885460405163a9059cbb60e01b81526001600160a01b03918216600482015260248101879052911690819063a9059cbb906044016020604051808303816000875af11580156118cf573d6000803e3d6000fd5b505050506040513d601f19601f820116820180604052508101906118f39190613fdf565b61190f5760405162461bcd60e51b81526004016107cc906140f9565b505b6040516331a9108f60e11b8152600481018a90526001600160a01b038b16906342842e0e908290636352211e90602401602060405180830381865afa15801561195e573d6000803e3d6000fd5b505050506040513d601f19601f820116820180604052508101906119829190613f60565b6040516001600160e01b031960e084901b1681526001600160a01b0391821660048201529089166024820152604481018c9052606401600060405180830381600087803b1580156119d257600080fd5b505af11580156119e6573d6000803e3d6000fd5b5050505061013360009054906101000a90046001600160a01b03166001600160a01b0316639e1f5b286040518163ffffffff1660e01b8152600401602060405180830381865afa158015611a3e573d6000803e3d6000fd5b505050506040513d601f19601f82011682018060405250810190611a629190613f60565b6040516309f07d3d60e21b81526001600160a01b038c81166004830152602482018c90526001604483015291909116906327c1f4f490606401600060405180830381600087803b158015611ab557600080fd5b505af1158015611ac9573d6000803e3d6000fd5b50505050856001600160a01b0316898b6001600160a01b03167fa717395bf4be1915f0bc8e6cf9b0f526c5ad40a0c3750b709a29a834daf0fd9b611b0a3390565b60018d0154610133546040805163abc8c7af60e01b815290516001600160a01b03938416939092169163abc8c7af916004808201926020929091908290030181865afa158015611b5e573d6000803e3d6000fd5b505050506040513d601f19601f82011682018060405250810190611b829190613f60565b60018f01546040516341976e0960e01b81526001600160a01b0391821660048201529116906341976e0990602401602060405180830381865afa158015611bcd573d6000803e3d6000fd5b505050506040513d601f19601f82011682018060405250810190611bf19190614145565b604080516001600160a01b03948516815293909216602084015290820152606081018a905260800160405180910390a45050506001600160a01b038716600090815261012d60209081526040808320898452909152812080546001600160a01b0319908116825560018201805490911690556002810182905560038101829055600481018290556005810191909155600601805460ff1916905550610bf79350612fe392505050565b611ca2612fea565b6101308190556040518181527ff9e4b69944d3fbdd96aedcda02032e2091346ececc3b55a485b40a6dc09bb9e090602001610916565b611ce0612fea565b61013380546001600160a01b0319166001600160a01b0392909216919091179055565b6001600160a01b03838116600090815261012d60209081526040808320868452909152902080549091163314611d4b5760405162461bcd60e51b81526004016107cc9061415e565b60008211611d905760405162461bcd60e51b8152602060048201526012602482015271696e76616c69642073746172742074696d6560701b60448201526064016107cc565b426004820154611da190603c61418c565b11611de85760405162461bcd60e51b8152602060048201526017602482015276185d58dd1a5bdb88185b1c9958591e481cdd185c9d1959604a1b60448201526064016107cc565b6005810154611df98361012c61418c565b10611e655760405162461bcd60e51b815260206004820152603660248201527f73746172742074696d652073686f756c64206265206c657373207468616e20656044820152756e642074696d65202862792035206d696e757465732960501b60648201526084016107cc565b600681015460ff1615611e8a5760405162461bcd60e51b81526004016107cc90613fa8565b6000816005015411611eae5760405162461bcd60e51b81526004016107cc90613f7d565b6004810182905560405182815283906001600160a01b038616907ff123182d1bfce603eb20a2f74cce94af6542f353a4c2a8d5cfadf41822b32b38906020015b60405180910390a350505050565b611f04612fea565b611f0e60006133fb565b565b611f18612bef565b6001600160a01b03828116600081815261012d60209081526040808320868452825291829020825160e081018452815486168152600182015490951685830152600281015485840152600381015460608601526004808201546080870152600582015460a087015260069091015460ff16151560c086015282516331a9108f60e11b81529081018690529151339392636352211e9260248083019391928290030181865afa158015611fce573d6000803e3d6000fd5b505050506040513d601f19601f82011682018060405250810190611ff29190613f60565b6001600160a01b031614801561201a575080516001600160a01b0316336001600160a01b0316145b6120365760405162461bcd60e51b81526004016107cc9061415e565b60008160a001511161205a5760405162461bcd60e51b81526004016107cc90613f7d565b8060c001511561207c5760405162461bcd60e51b81526004016107cc90613fa8565b612086838361344d565b50610bf7600160fb55565b612099612fea565b6001600160a01b038116612133576040514790600090339083908381818185875af1925050503d80600081146120eb576040519150601f19603f3d011682016040523d82523d6000602084013e6120f0565b606091505b50509050806108d75760405162461bcd60e51b815260206004820152600f60248201526e151c985b9cd9995c8819985a5b1959608a1b60448201526064016107cc565b6040516370a0823160e01b815230600482015281906000906001600160a01b038316906370a0823190602401602060405180830381865afa15801561217c573d6000803e3d6000fd5b505050506040513d601f19601f820116820180604052508101906121a09190614145565b90506001600160a01b03821663a9059cbb336040516001600160e01b031960e084901b1681526001600160a01b039091166004820152602481018490526044016020604051808303816000875af11580156121ff573d6000803e3d6000fd5b505050506040513d601f19601f820116820180604052508101906122239190613fdf565b6108d75760405162461bcd60e51b815260206004820152600f60248201526e151c985b9cd9995c8819985a5b1959608a1b60448201526064016107cc565b6001600160a01b03838116600090815261012d602090815260408083208684529091529020805490911633146122a95760405162461bcd60e51b81526004016107cc9061415e565b600581015442106122f45760405162461bcd60e51b8152602060048201526015602482015274185d58dd1a5bdb88185b1c9958591e48195b991959605a1b60448201526064016107cc565b60008160050154116123185760405162461bcd60e51b81526004016107cc90613f7d565b818160040154106123775760405162461bcd60e51b815260206004820152602360248201527f656e642074696d65206d7573742062652067726561746572207468616e207374604482015262185c9d60ea1b60648201526084016107cc565b6123834261012c61418c565b82116123dc5760405162461bcd60e51b815260206004820152602260248201527f61756374696f6e2073686f756c6420656e642061667465722035206d696e7574604482015261657360f01b60648201526084016107cc565b6005810182905560405182815283906001600160a01b038616907fd8aaad775c4c9b21112b5cb22ab4618c74936d873850fbd6f2e691701119ffe190602001611eee565b6001600160a01b03838116600090815261012d602090815260408083208684529091529020805490911633146124945760405162461bcd60e51b815260206004820152601960248201527839b2b73232b91036bab9ba1031329034ba32b69037bbb732b960391b60448201526064016107cc565b600681015460ff16156124b95760405162461bcd60e51b81526004016107cc90613fa8565b60008160050154116124dd5760405162461bcd60e51b81526004016107cc90613f7d565b600381018290556001810154604080516001600160a01b0392831681526020810185905285928716917f1492815b4a41d34cc0015f8ba8013fa45717ea6d8591db6036bdca706981fe839101611eee565b612536612fea565b6101318190556040518181527f2644fd26359c107ff7991b6dfc36ce902b334ce4e3891bbecacc5922aa620efa90602001610916565b612574612c48565b6040516331a9108f60e11b81526004810187905233906001600160a01b03891690636352211e90602401602060405180830381865afa1580156125bb573d6000803e3d6000fd5b505050506040513d601f19601f820116820180604052508101906125df9190613f60565b6001600160a01b031614801561265e575060405163e985e9c560e01b81523360048201523060248201526001600160a01b0388169063e985e9c590604401602060405180830381865afa15801561263a573d6000803e3d6000fd5b505050506040513d601f19601f8201168201806040525081019061265e9190613fdf565b6126b95760405162461bcd60e51b815260206004820152602660248201527f6e6f74206f776e657220616e64206f7220636f6e7472616374206e6f742061706044820152651c1c9bdd995960d21b60648201526084016107cc565b6001600160a01b038516158061283157506101335460408051639d23c4c760e01b815290516000926001600160a01b031691639d23c4c79160048083019260209291908290030181865afa158015612715573d6000803e3d6000fd5b505050506040513d601f19601f820116820180604052508101906127399190613f60565b6001600160a01b031614158015612831575061013360009054906101000a90046001600160a01b03166001600160a01b0316639d23c4c76040518163ffffffff1660e01b8152600401602060405180830381865afa15801561279f573d6000803e3d6000fd5b505050506040513d601f19601f820116820180604052508101906127c39190613f60565b6040516398afdfe360e01b81526001600160a01b03878116600483015291909116906398afdfe3906024016020604051808303816000875af115801561280d573d6000803e3d6000fd5b505050506040513d601f19601f820116820180604052508101906128319190613fdf565b6128715760405162461bcd60e51b815260206004820152601160248201527034b73b30b634b2103830bc903a37b5b2b760791b60448201526064016107cc565b6128808787878787878761356b565b50505050505050565b600054610100900460ff16158080156128a95750600054600160ff909116105b806128c35750303b1580156128c3575060005460ff166001145b6129265760405162461bcd60e51b815260206004820152602e60248201527f496e697469616c697a61626c653a20636f6e747261637420697320616c72656160448201526d191e481a5b9a5d1a585b1a5e995960921b60648201526084016107cc565b6000805460ff191660011790558015612949576000805461ff0019166101001790555b6001600160a01b0383166129b65760405162461bcd60e51b815260206004820152602e60248201527f566f6c63616e6f41756374696f6e3a20496e76616c696420506c6174666f726d60448201526d0811995948149958da5c1a595b9d60921b60648201526084016107cc565b61013280546001600160a01b0319166001600160a01b0385161790556101318290556040517fc915c60f988f2a651fe4d21eaf755271bc215c26f2230dcece96d0253d29ee3b90600090a1600161012f556104b061013055612a16613824565b612a1e613853565b612a26613882565b612a2e6138a9565b80156108d7576000805461ff0019169055604051600181527f7f26b83ff96e1f2b6a682f133852f6798a09c465da95921460cefb38474024989060200160405180910390a1505050565b612a80612fea565b6001600160a01b038116612ae55760405162461bcd60e51b815260206004820152602660248201527f4f776e61626c653a206e6577206f776e657220697320746865207a65726f206160448201526564647265737360d01b60648201526084016107cc565b6109fd816133fb565b612af6612fea565b6001600160a01b038116612b3b5760405162461bcd60e51b815260206004820152600c60248201526b7a65726f206164647265737360a01b60448201526064016107cc565b61013280546001600160a01b0319166001600160a01b0383169081179091556040519081527fe57e7c1f36cc83fade34e32351e6eee7eb9da532662b1b5da10c631e8222aca790602001610916565b612b92612fea565b6000612ba060335460ff1690565b90508015612bb557612bb06138d8565b612bbd565b612bbd61392a565b60405181151581527f9077d36bc00859b5c3f320310707208543dd35092cb0a0fe117d0c6a558b148b90602001610916565b600260fb5403612c415760405162461bcd60e51b815260206004820152601f60248201527f5265656e7472616e637947756172643a207265656e7472616e742063616c6c0060448201526064016107cc565b600260fb55565b60335460ff1615611f0e5760405162461bcd60e51b815260206004820152601060248201526f14185d5cd8589b194e881c185d5cd95960821b60448201526064016107cc565b612c96612c48565b6001600160a01b038316600090815261012d6020908152604080832085845290915290206003810154600282015403612d2c578060030154821015612d2c5760405162461bcd60e51b815260206004820152602660248201527f6269642063616e6e6f74206265206c6f776572207468616e207265736572766560448201526520707269636560d01b60648201526084016107cc565b6001600160a01b038416600090815261012e60209081526040808320868452909152812061012f546001820154919291612d66919061418c565b905080841015612db85760405162461bcd60e51b815260206004820152601f60248201527f6661696c656420746f206f75746269642068696768657374206269646465720060448201526064016107cc565b60018301546001600160a01b0316612e1657833414612e115760405162461bcd60e51b81526020600482015260156024820152741a5b98dbdb99dc9d595b9d08189a59105b5bdd5b9d605a1b60448201526064016107cc565b612f3c565b3415612e565760405162461bcd60e51b815260206004820152600f60248201526e1b9bc81d985b1d59481b9959591959608a1b60448201526064016107cc565b60018301546001600160a01b0316806323b872dd336040516001600160e01b031960e084901b1681526001600160a01b039091166004820152306024820152604481018890526064016020604051808303816000875af1158015612ebe573d6000803e3d6000fd5b505050506040513d601f19601f82011682018060405250810190612ee29190613fdf565b612f3a5760405162461bcd60e51b8152602060048201526024808201527f696e73756666696369656e742062616c616e6365206f72206e6f7420617070726044820152631bdd995960e21b60648201526084016107cc565b505b81546001600160a01b031615612f6a5781546001830154612f6a91889188916001600160a01b0316906131b7565b81546001600160a01b0319163317825560018201849055612f884290565b6002830155336001600160a01b031685876001600160a01b03167f0158f5674dc243762459b88cfc91b10d2d1ef9d40821cca978c2b680aa44468287604051612fd391815260200190565b60405180910390a4505050505050565b600160fb55565b6065546001600160a01b03163314611f0e5760405162461bcd60e51b815260206004820181905260248201527f4f776e61626c653a2063616c6c6572206973206e6f7420746865206f776e657260448201526064016107cc565b6109fd612fea565b7f4910fdfa16fed3260ed0e7147f7cc6da11a60208b5b9406d12a635614ffd91435460ff161561307f576108d783613967565b826001600160a01b03166352d1902d6040518163ffffffff1660e01b8152600401602060405180830381865afa9250505080156130d9575060408051601f3d908101601f191682019092526130d691810190614145565b60015b61313c5760405162461bcd60e51b815260206004820152602e60248201527f45524331393637557067726164653a206e657720696d706c656d656e7461746960448201526d6f6e206973206e6f74205555505360901b60648201526084016107cc565b60008051602061425e83398151915281146131ab5760405162461bcd60e51b815260206004820152602960248201527f45524331393637557067726164653a20756e737570706f727465642070726f786044820152681a58589b195555525160ba1b60648201526084016107cc565b506108d7838383613a03565b6001600160a01b03808516600090815261012d60209081526040808320878452825291829020825160e08101845281548516815260018201549094169184018290526002810154928401929092526003820154606084015260048201546080840152600582015460a084015260069091015460ff16151560c08301526132e0576000836001600160a01b03168360405160006040518083038185875af1925050503d8060008114613284576040519150601f19603f3d011682016040523d82523d6000602084013e613289565b606091505b50509050806132da5760405162461bcd60e51b815260206004820181905260248201527f6661696c656420746f20726566756e642070726576696f75732062696464657260448201526064016107cc565b506133a6565b602081015160405163a9059cbb60e01b81526001600160a01b0385811660048301526024820185905282169063a9059cbb906044016020604051808303816000875af1158015613334573d6000803e3d6000fd5b505050506040513d601f19601f820116820180604052508101906133589190613fdf565b6133a45760405162461bcd60e51b815260206004820181905260248201527f6661696c656420746f20726566756e642070726576696f75732062696464657260448201526064016107cc565b505b826001600160a01b031684866001600160a01b03167f90e20d1ba82eaa07a212267355536f76bc83bf91c81fd41b74283c4082e76952856040516133ec91815260200190565b60405180910390a45050505050565b606580546001600160a01b038381166001600160a01b0319831681179093556040519116919082907f8be0079c531659141344cd1fd0a4f28419497f9722a3daafe3b4186f6b6457e090600090a35050565b6001600160a01b03808316600090815261012e6020908152604080832085845290915290208054909116156134d8578054600182015461349a91859185916001600160a01b0316906131b7565b6001600160a01b038316600090815261012e60209081526040808320858452909152812080546001600160a01b031916815560018101829055600201555b6001600160a01b038316600081815261012d6020908152604080832086845290915280822080546001600160a01b03199081168255600182018054909116905560028101839055600381018390556004810183905560058101839055600601805460ff19169055518492917f018b64b6242d32aa550e95d78985b938d71af5b3f10827b0683f55da1639304891a3505050565b6001600160a01b038716600090815261012d60209081526040808320898452909152902060050154156135da5760405162461bcd60e51b8152602060048201526017602482015276185d58dd1a5bdb88185b1c9958591e481cdd185c9d1959604a1b60448201526064016107cc565b6135e68361012c61418c565b8110156136505760405162461bcd60e51b815260206004820152603260248201527f656e642074696d65206d7573742062652067726561746572207468616e207374604482015271617274202862792035206d696e757465732960701b60648201526084016107cc565b4283116136945760405162461bcd60e51b8152602060048201526012602482015271696e76616c69642073746172742074696d6560701b60448201526064016107cc565b6000821561369f5750835b6040518060e001604052806136b13390565b6001600160a01b03168152602001876001600160a01b031681526020018281526020018681526020018581526020018381526020016000151581525061012d60008a6001600160a01b03166001600160a01b03168152602001908152602001600020600089815260200190815260200160002060008201518160000160006101000a8154816001600160a01b0302191690836001600160a01b0316021790555060208201518160010160006101000a8154816001600160a01b0302191690836001600160a01b0316021790555060408201518160020155606082015181600301556080820151816004015560a0820151816005015560c08201518160060160006101000a81548160ff02191690831515021790555090505086886001600160a01b03167fca437d90ed6373b827a01275bd2fdfe7e6406d7ecd400662ee0533d3546ab17a8860405161381291906001600160a01b0391909116815260200190565b60405180910390a35050505050505050565b600054610100900460ff1661384b5760405162461bcd60e51b81526004016107cc9061419f565b611f0e613a2e565b600054610100900460ff1661387a5760405162461bcd60e51b81526004016107cc9061419f565b611f0e613a61565b600054610100900460ff16611f0e5760405162461bcd60e51b81526004016107cc9061419f565b600054610100900460ff166138d05760405162461bcd60e51b81526004016107cc9061419f565b611f0e613a91565b6138e0613ab8565b6033805460ff191690557f5db9ee0a495bf2e6ff9c91a7834c1ba4fdd244a5e8aa4e537bd38aeae4b073aa335b6040516001600160a01b03909116815260200160405180910390a1565b613932612c48565b6033805460ff191660011790557f62e78cea01bee320cd4e420270b5ea74000d11b0c9f74754ebdbfc544b05a25861390d3390565b6001600160a01b0381163b6139d45760405162461bcd60e51b815260206004820152602d60248201527f455243313936373a206e657720696d706c656d656e746174696f6e206973206e60448201526c1bdd08184818dbdb9d1c9858dd609a1b60648201526084016107cc565b60008051602061425e83398151915280546001600160a01b0319166001600160a01b0392909216919091179055565b613a0c83613b01565b600082511180613a195750805b156108d757613a288383613b41565b50505050565b600054610100900460ff16613a555760405162461bcd60e51b81526004016107cc9061419f565b6033805460ff19169055565b600054610100900460ff16613a885760405162461bcd60e51b81526004016107cc9061419f565b611f0e336133fb565b600054610100900460ff16612fe35760405162461bcd60e51b81526004016107cc9061419f565b60335460ff16611f0e5760405162461bcd60e51b815260206004820152601460248201527314185d5cd8589b194e881b9bdd081c185d5cd95960621b60448201526064016107cc565b613b0a81613967565b6040516001600160a01b038216907fbc7cd75a20ee27fd9adebab32041f755214dbc6bffa90cc0225b39da2e5c2d3b90600090a250565b6060613b66838360405180606001604052806027815260200161427e60279139613b6f565b90505b92915050565b6060600080856001600160a01b031685604051613b8c919061420e565b600060405180830381855af49150503d8060008114613bc7576040519150601f19603f3d011682016040523d82523d6000602084013e613bcc565b606091505b5091509150613bdd86838387613be7565b9695505050505050565b60608315613c56578251600003613c4f576001600160a01b0385163b613c4f5760405162461bcd60e51b815260206004820152601d60248201527f416464726573733a2063616c6c20746f206e6f6e2d636f6e747261637400000060448201526064016107cc565b5081613c60565b613c608383613c68565b949350505050565b815115613c785781518083602001fd5b8060405162461bcd60e51b81526004016107cc919061422a565b6001600160a01b03811681146109fd57600080fd5b600080600060608486031215613cbc57600080fd5b8335613cc781613c92565b95602085013595506040909401359392505050565b600060208284031215613cee57600080fd5b5035919050565b600060208284031215613d0757600080fd5b8135613d1281613c92565b9392505050565b60008060408385031215613d2c57600080fd5b8235613d3781613c92565b946020939093013593505050565b634e487b7160e01b600052604160045260246000fd5b60008060408385031215613d6e57600080fd5b8235613d7981613c92565b9150602083013567ffffffffffffffff80821115613d9657600080fd5b818501915085601f830112613daa57600080fd5b813581811115613dbc57613dbc613d45565b604051601f8201601f19908116603f01168101908382118183101715613de457613de4613d45565b81604052828152886020848701011115613dfd57600080fd5b8260208601602083013760006020848301015280955050505050509250929050565b80151581146109fd57600080fd5b600080600080600080600060e0888a031215613e4857600080fd5b8735613e5381613c92565b9650602088013595506040880135613e6a81613c92565b9450606088013593506080880135925060a0880135613e8881613e1f565b8092505060c0880135905092959891949750929550565b6020808252602c908201527f46756e6374696f6e206d7573742062652063616c6c6564207468726f7567682060408201526b19195b1959d85d1958d85b1b60a21b606082015260800190565b6020808252602c908201527f46756e6374696f6e206d7573742062652063616c6c6564207468726f7567682060408201526b6163746976652070726f787960a01b606082015260800190565b634e487b7160e01b600052601160045260246000fd5b81810381811115613b6957613b69613f37565b600060208284031215613f7257600080fd5b8151613d1281613c92565b6020808252601190820152706e6f2061756374696f6e2065786973747360781b604082015260600190565b60208082526018908201527f61756374696f6e20616c726561647920726573756c7465640000000000000000604082015260600190565b600060208284031215613ff157600080fd5b8151613d1281613e1f565b8082028115828204841417613b6957613b69613f37565b60008261403057634e487b7160e01b600052601260045260246000fd5b500490565b805161ffff8116811461404757600080fd5b919050565b60006020828403121561405e57600080fd5b613b6682614035565b60208082526028908201527f6661696c656420746f2073656e6420746865206f776e657220746865697220726040820152676f79616c7469657360c01b606082015260800190565b6000806000606084860312156140c457600080fd5b6140cd84614035565b925060208401516140dd81613c92565b60408501519092506140ee81613c92565b809150509250925092565b6020808252602c908201527f6661696c656420746f2073656e6420746865206f776e6572207468652061756360408201526b74696f6e2062616c616e636560a01b606082015260800190565b60006020828403121561415757600080fd5b5051919050565b60208082526014908201527339b2b73232b91036bab9ba1031329037bbb732b960611b604082015260600190565b80820180821115613b6957613b69613f37565b6020808252602b908201527f496e697469616c697a61626c653a20636f6e7472616374206973206e6f74206960408201526a6e697469616c697a696e6760a81b606082015260800190565b60005b838110156142055781810151838201526020016141ed565b50506000910152565b600082516142208184602087016141ea565b9190910192915050565b60208152600082518060208401526142498160408501602087016141ea565b601f01601f1916919091016040019291505056fe360894a13ba1a3210667c828492db98dca3e2076cc3735a920a3ca505d382bbc416464726573733a206c6f772d6c6576656c2064656c65676174652063616c6c206661696c6564a2646970667358221220db26b99395c6308eaaac42e8d9d6335b7b1a33f3c0dca385fef62a71d30d412164736f6c63430008150033",
  "linkReferences": {},
  "deployedLinkReferences": {}
}