{
  "_format": "hh-sol-artifact-1",
  "contractName": "VolcanoAddressRegistry",
  "sourceName": "contracts/VolcanoAddressRegistry.sol",
  "abi": [
    {
      "anonymous": false,
      "inputs": [
        {
          "indexed": true,
          "internalType": "address",
          "name": "previousOwner",
          "type": "address"
        },
        {
          "indexed": true,
          "internalType": "address",
          "name": "newOwner",
          "type": "address"
        }
      ],
      "name": "OwnershipTransferred",
      "type": "event"
    },
    {
      "inputs": [],
      "name": "auction",
      "outputs": [
        {
          "internalType": "address",
          "name": "",
          "type": "address"
        }
      ],
      "stateMutability": "view",
      "type": "function"
    },
    {
      "inputs": [],
      "name": "bundleMarketplace",
      "outputs": [
        {
          "internalType": "address",
          "name": "",
          "type": "address"
        }
      ],
      "stateMutability": "view",
      "type": "function"
    },
    {
      "inputs": [],
      "name": "erc1155Factory",
      "outputs": [
        {
          "internalType": "address",
          "name": "",
          "type": "address"
        }
      ],
      "stateMutability": "view",
      "type": "function"
    },
    {
      "inputs": [],
      "name": "erc721factory",
      "outputs": [
        {
          "internalType": "address",
          "name": "",
          "type": "address"
        }
      ],
      "stateMutability": "view",
      "type": "function"
    },
    {
      "inputs": [],
      "name": "marketplace",
      "outputs": [
        {
          "internalType": "address",
          "name": "",
          "type": "address"
        }
      ],
      "stateMutability": "view",
      "type": "function"
    },
    {
      "inputs": [],
      "name": "owner",
      "outputs": [
        {
          "internalType": "address",
          "name": "",
          "type": "address"
        }
      ],
      "stateMutability": "view",
      "type": "function"
    },
    {
      "inputs": [],
      "name": "priceFeed",
      "outputs": [
        {
          "internalType": "address",
          "name": "",
          "type": "address"
        }
      ],
      "stateMutability": "view",
      "type": "function"
    },
    {
      "inputs": [],
      "name": "privateErc1155Factory",
      "outputs": [
        {
          "internalType": "address",
          "name": "",
          "type": "address"
        }
      ],
      "stateMutability": "view",
      "type": "function"
    },
    {
      "inputs": [],
      "name": "privateErc721Factory",
      "outputs": [
        {
          "internalType": "address",
          "name": "",
          "type": "address"
        }
      ],
      "stateMutability": "view",
      "type": "function"
    },
    {
      "inputs": [],
      "name": "renounceOwnership",
      "outputs": [],
      "stateMutability": "nonpayable",
      "type": "function"
    },
    {
      "inputs": [],
      "name": "tokenRegistry",
      "outputs": [
        {
          "internalType": "address",
          "name": "",
          "type": "address"
        }
      ],
      "stateMutability": "view",
      "type": "function"
    },
    {
      "inputs": [
        {
          "internalType": "address",
          "name": "newOwner",
          "type": "address"
        }
      ],
      "name": "transferOwnership",
      "outputs": [],
      "stateMutability": "nonpayable",
      "type": "function"
    },
    {
      "inputs": [
        {
          "internalType": "address",
          "name": "_auction",
          "type": "address"
        }
      ],
      "name": "updateAuction",
      "outputs": [],
      "stateMutability": "nonpayable",
      "type": "function"
    },
    {
      "inputs": [
        {
          "internalType": "address",
          "name": "_bundleMarketplace",
          "type": "address"
        }
      ],
      "name": "updateBundleMarketplace",
      "outputs": [],
      "stateMutability": "nonpayable",
      "type": "function"
    },
    {
      "inputs": [
        {
          "internalType": "address",
          "name": "_erc1155Factory",
          "type": "address"
        }
      ],
      "name": "updateErc1155Factory",
      "outputs": [],
      "stateMutability": "nonpayable",
      "type": "function"
    },
    {
      "inputs": [
        {
          "internalType": "address",
          "name": "_privateErc1155Factory",
          "type": "address"
        }
      ],
      "name": "updateErc1155FactoryPrivate",
      "outputs": [],
      "stateMutability": "nonpayable",
      "type": "function"
    },
    {
      "inputs": [
        {
          "internalType": "address",
          "name": "_erc721factory",
          "type": "address"
        }
      ],
      "name": "updateErc721Factory",
      "outputs": [],
      "stateMutability": "nonpayable",
      "type": "function"
    },
    {
      "inputs": [
        {
          "internalType": "address",
          "name": "_privateErc721Factory",
          "type": "address"
        }
      ],
      "name": "updateErc721FactoryPrivate",
      "outputs": [],
      "stateMutability": "nonpayable",
      "type": "function"
    },
    {
      "inputs": [
        {
          "internalType": "address",
          "name": "_marketplace",
          "type": "address"
        }
      ],
      "name": "updateMarketplace",
      "outputs": [],
      "stateMutability": "nonpayable",
      "type": "function"
    },
    {
      "inputs": [
        {
          "internalType": "address",
          "name": "_priceFeed",
          "type": "address"
        }
      ],
      "name": "updatePriceFeed",
      "outputs": [],
      "stateMutability": "nonpayable",
      "type": "function"
    },
    {
      "inputs": [
        {
          "internalType": "address",
          "name": "_tokenRegistry",
          "type": "address"
        }
      ],
      "name": "updateTokenRegistry",
      "outputs": [],
      "stateMutability": "nonpayable",
      "type": "function"
    }
  ],
  "bytecode": "0x608060405234801561001057600080fd5b5061001a3361001f565b61006f565b600080546001600160a01b038381166001600160a01b0319831681178455604051919092169283917f8be0079c531659141344cd1fd0a4f28419497f9722a3daafe3b4186f6b6457e09190a35050565b6105f88061007e6000396000f3fe608060405234801561001057600080fd5b50600436106101375760003560e01c80639d0e24a7116100b8578063bf1d2df21161007c578063bf1d2df21461026a578063c5ed899a1461027d578063e7a029a614610290578063eb636317146102a3578063f2fde38b146102b6578063f30a4249146102c957600080fd5b80639d0e24a71461020b5780639d23c4c71461021e5780639e1f5b2814610231578063abc8c7af14610244578063bb0892831461025757600080fd5b8063721fffa5116100ff578063721fffa514610192578063741bef1a146101c15780637d9f6db5146101d45780638da5cb5b146101e757806395877f78146101f857600080fd5b806310ef821b1461013c5780631fa915a4146101515780633402a036146101645780636e95925414610177578063715018a61461018a575b600080fd5b61014f61014a366004610592565b6102dc565b005b61014f61015f366004610592565b610306565b61014f610172366004610592565b610330565b61014f610185366004610592565b61035a565b61014f610384565b6004546101a5906001600160a01b031681565b6040516001600160a01b03909116815260200160405180910390f35b6009546101a5906001600160a01b031681565b6001546101a5906001600160a01b031681565b6000546001600160a01b03166101a5565b61014f610206366004610592565b610398565b61014f610219366004610592565b6103c2565b6008546101a5906001600160a01b031681565b6003546101a5906001600160a01b031681565b6002546101a5906001600160a01b031681565b61014f610265366004610592565b6103ec565b6005546101a5906001600160a01b031681565b6006546101a5906001600160a01b031681565b61014f61029e366004610592565b610416565b61014f6102b1366004610592565b610440565b61014f6102c4366004610592565b61046a565b6007546101a5906001600160a01b031681565b6102e46104e8565b600780546001600160a01b0319166001600160a01b0392909216919091179055565b61030e6104e8565b600880546001600160a01b0319166001600160a01b0392909216919091179055565b6103386104e8565b600180546001600160a01b0319166001600160a01b0392909216919091179055565b6103626104e8565b600680546001600160a01b0319166001600160a01b0392909216919091179055565b61038c6104e8565b6103966000610542565b565b6103a06104e8565b600980546001600160a01b0319166001600160a01b0392909216919091179055565b6103ca6104e8565b600380546001600160a01b0319166001600160a01b0392909216919091179055565b6103f46104e8565b600580546001600160a01b0319166001600160a01b0392909216919091179055565b61041e6104e8565b600480546001600160a01b0319166001600160a01b0392909216919091179055565b6104486104e8565b600280546001600160a01b0319166001600160a01b0392909216919091179055565b6104726104e8565b6001600160a01b0381166104dc5760405162461bcd60e51b815260206004820152602660248201527f4f776e61626c653a206e6577206f776e657220697320746865207a65726f206160448201526564647265737360d01b60648201526084015b60405180910390fd5b6104e581610542565b50565b6000546001600160a01b031633146103965760405162461bcd60e51b815260206004820181905260248201527f4f776e61626c653a2063616c6c6572206973206e6f7420746865206f776e657260448201526064016104d3565b600080546001600160a01b038381166001600160a01b0319831681178455604051919092169283917f8be0079c531659141344cd1fd0a4f28419497f9722a3daafe3b4186f6b6457e09190a35050565b6000602082840312156105a457600080fd5b81356001600160a01b03811681146105bb57600080fd5b939250505056fea26469706673582212202d29c1d59cf5094bfe9e3b490924f400c2254fe55026a57bbecea1990fbd67bc64736f6c63430008150033",
  "linkReferences": {},
  "deployedLinkReferences": {}
}