{
  "_format": "hh-sol-artifact-1",
  "contractName": "VolcanoMarketplace",
  "sourceName": "contracts/VolcanoMarketplace.sol",
  "abi": [
    {
      "inputs": [],
      "stateMutability": "nonpayable",
      "type": "constructor"
    },
    {
      "anonymous": false,
      "inputs": [
        {
          "indexed": false,
          "internalType": "address",
          "name": "previousAdmin",
          "type": "address"
        },
        {
          "indexed": false,
          "internalType": "address",
          "name": "newAdmin",
          "type": "address"
        }
      ],
      "name": "AdminChanged",
      "type": "event"
    },
    {
      "anonymous": false,
      "inputs": [
        {
          "indexed": true,
          "internalType": "address",
          "name": "beacon",
          "type": "address"
        }
      ],
      "name": "BeaconUpgraded",
      "type": "event"
    },
    {
      "anonymous": false,
      "inputs": [
        {
          "indexed": false,
          "internalType": "uint8",
          "name": "version",
          "type": "uint8"
        }
      ],
      "name": "Initialized",
      "type": "event"
    },
    {
      "anonymous": false,
      "inputs": [
        {
          "indexed": true,
          "internalType": "address",
          "name": "owner",
          "type": "address"
        },
        {
          "indexed": true,
          "internalType": "address",
          "name": "nft",
          "type": "address"
        },
        {
          "indexed": false,
          "internalType": "uint256",
          "name": "tokenId",
          "type": "uint256"
        }
      ],
      "name": "ItemCanceled",
      "type": "event"
    },
    {
      "anonymous": false,
      "inputs": [
        {
          "indexed": true,
          "internalType": "address",
          "name": "owner",
          "type": "address"
        },
        {
          "indexed": true,
          "internalType": "address",
          "name": "nft",
          "type": "address"
        },
        {
          "indexed": false,
          "internalType": "uint256",
          "name": "tokenId",
          "type": "uint256"
        },
        {
          "indexed": false,
          "internalType": "uint256",
          "name": "quantity",
          "type": "uint256"
        },
        {
          "indexed": false,
          "internalType": "address",
          "name": "payToken",
          "type": "address"
        },
        {
          "indexed": false,
          "internalType": "uint256",
          "name": "pricePerItem",
          "type": "uint256"
        },
        {
          "indexed": false,
          "internalType": "uint256",
          "name": "startingTime",
          "type": "uint256"
        }
      ],
      "name": "ItemListed",
      "type": "event"
    },
    {
      "anonymous": false,
      "inputs": [
        {
          "indexed": true,
          "internalType": "address",
          "name": "seller",
          "type": "address"
        },
        {
          "indexed": true,
          "internalType": "address",
          "name": "buyer",
          "type": "address"
        },
        {
          "indexed": true,
          "internalType": "address",
          "name": "nft",
          "type": "address"
        },
        {
          "indexed": false,
          "internalType": "uint256",
          "name": "tokenId",
          "type": "uint256"
        },
        {
          "indexed": false,
          "internalType": "uint256",
          "name": "quantity",
          "type": "uint256"
        },
        {
          "indexed": false,
          "internalType": "address",
          "name": "payToken",
          "type": "address"
        },
        {
          "indexed": false,
          "internalType": "int256",
          "name": "payTokenPrice",
          "type": "int256"
        },
        {
          "indexed": false,
          "internalType": "uint256",
          "name": "pricePerItem",
          "type": "uint256"
        }
      ],
      "name": "ItemSold",
      "type": "event"
    },
    {
      "anonymous": false,
      "inputs": [
        {
          "indexed": true,
          "internalType": "address",
          "name": "owner",
          "type": "address"
        },
        {
          "indexed": true,
          "internalType": "address",
          "name": "nft",
          "type": "address"
        },
        {
          "indexed": false,
          "internalType": "uint256",
          "name": "tokenId",
          "type": "uint256"
        },
        {
          "indexed": false,
          "internalType": "address",
          "name": "payToken",
          "type": "address"
        },
        {
          "indexed": false,
          "internalType": "uint256",
          "name": "newPrice",
          "type": "uint256"
        }
      ],
      "name": "ItemUpdated",
      "type": "event"
    },
    {
      "anonymous": false,
      "inputs": [
        {
          "indexed": true,
          "internalType": "address",
          "name": "creator",
          "type": "address"
        },
        {
          "indexed": true,
          "internalType": "address",
          "name": "nft",
          "type": "address"
        },
        {
          "indexed": false,
          "internalType": "uint256",
          "name": "tokenId",
          "type": "uint256"
        }
      ],
      "name": "OfferCanceled",
      "type": "event"
    },
    {
      "anonymous": false,
      "inputs": [
        {
          "indexed": true,
          "internalType": "address",
          "name": "creator",
          "type": "address"
        },
        {
          "indexed": true,
          "internalType": "address",
          "name": "nft",
          "type": "address"
        },
        {
          "indexed": false,
          "internalType": "uint256",
          "name": "tokenId",
          "type": "uint256"
        },
        {
          "indexed": false,
          "internalType": "uint256",
          "name": "quantity",
          "type": "uint256"
        },
        {
          "indexed": false,
          "internalType": "address",
          "name": "payToken",
          "type": "address"
        },
        {
          "indexed": false,
          "internalType": "uint256",
          "name": "pricePerItem",
          "type": "uint256"
        },
        {
          "indexed": false,
          "internalType": "uint256",
          "name": "deadline",
          "type": "uint256"
        }
      ],
      "name": "OfferCreated",
      "type": "event"
    },
    {
      "anonymous": false,
      "inputs": [
        {
          "indexed": true,
          "internalType": "address",
          "name": "previousOwner",
          "type": "address"
        },
        {
          "indexed": true,
          "internalType": "address",
          "name": "newOwner",
          "type": "address"
        }
      ],
      "name": "OwnershipTransferred",
      "type": "event"
    },
    {
      "anonymous": false,
      "inputs": [
        {
          "indexed": false,
          "internalType": "address",
          "name": "account",
          "type": "address"
        }
      ],
      "name": "Paused",
      "type": "event"
    },
    {
      "anonymous": false,
      "inputs": [
        {
          "indexed": false,
          "internalType": "address",
          "name": "account",
          "type": "address"
        }
      ],
      "name": "Unpaused",
      "type": "event"
    },
    {
      "anonymous": false,
      "inputs": [
        {
          "indexed": false,
          "internalType": "uint16",
          "name": "platformFee",
          "type": "uint16"
        }
      ],
      "name": "UpdatePlatformFee",
      "type": "event"
    },
    {
      "anonymous": false,
      "inputs": [
        {
          "indexed": false,
          "internalType": "address payable",
          "name": "platformFeeRecipient",
          "type": "address"
        }
      ],
      "name": "UpdatePlatformFeeRecipient",
      "type": "event"
    },
    {
      "anonymous": false,
      "inputs": [
        {
          "indexed": true,
          "internalType": "address",
          "name": "implementation",
          "type": "address"
        }
      ],
      "name": "Upgraded",
      "type": "event"
    },
    {
      "inputs": [
        {
          "internalType": "address",
          "name": "_nftAddress",
          "type": "address"
        },
        {
          "internalType": "uint256",
          "name": "_tokenId",
          "type": "uint256"
        },
        {
          "internalType": "address",
          "name": "_creator",
          "type": "address"
        }
      ],
      "name": "acceptOffer",
      "outputs": [],
      "stateMutability": "nonpayable",
      "type": "function"
    },
    {
      "inputs": [],
      "name": "addressRegistry",
      "outputs": [
        {
          "internalType": "contract IVolcanoAddressRegistry",
          "name": "",
          "type": "address"
        }
      ],
      "stateMutability": "view",
      "type": "function"
    },
    {
      "inputs": [
        {
          "internalType": "address",
          "name": "_nftAddress",
          "type": "address"
        },
        {
          "internalType": "uint256",
          "name": "_tokenId",
          "type": "uint256"
        },
        {
          "internalType": "address",
          "name": "_payToken",
          "type": "address"
        },
        {
          "internalType": "address payable",
          "name": "_owner",
          "type": "address"
        }
      ],
      "name": "buyItem",
      "outputs": [],
      "stateMutability": "payable",
      "type": "function"
    },
    {
      "inputs": [
        {
          "internalType": "address",
          "name": "_nftAddress",
          "type": "address"
        },
        {
          "internalType": "uint256",
          "name": "_tokenId",
          "type": "uint256"
        }
      ],
      "name": "cancelListing",
      "outputs": [],
      "stateMutability": "nonpayable",
      "type": "function"
    },
    {
      "inputs": [
        {
          "internalType": "address",
          "name": "_nftAddress",
          "type": "address"
        },
        {
          "internalType": "uint256",
          "name": "_tokenId",
          "type": "uint256"
        }
      ],
      "name": "cancelOffer",
      "outputs": [],
      "stateMutability": "nonpayable",
      "type": "function"
    },
    {
      "inputs": [
        {
          "internalType": "address",
          "name": "",
          "type": "address"
        }
      ],
      "name": "collectionRoyalties",
      "outputs": [
        {
          "internalType": "uint16",
          "name": "royalty",
          "type": "uint16"
        },
        {
          "internalType": "address",
          "name": "creator",
          "type": "address"
        },
        {
          "internalType": "address",
          "name": "feeRecipient",
          "type": "address"
        }
      ],
      "stateMutability": "view",
      "type": "function"
    },
    {
      "inputs": [
        {
          "internalType": "address",
          "name": "_nftAddress",
          "type": "address"
        },
        {
          "internalType": "uint256",
          "name": "_tokenId",
          "type": "uint256"
        },
        {
          "internalType": "contract IERC20",
          "name": "_payToken",
          "type": "address"
        },
        {
          "internalType": "uint256",
          "name": "_quantity",
          "type": "uint256"
        },
        {
          "internalType": "uint256",
          "name": "_pricePerItem",
          "type": "uint256"
        },
        {
          "internalType": "uint256",
          "name": "_deadline",
          "type": "uint256"
        }
      ],
      "name": "createOffer",
      "outputs": [],
      "stateMutability": "nonpayable",
      "type": "function"
    },
    {
      "inputs": [],
      "name": "feeReceipient",
      "outputs": [
        {
          "internalType": "address payable",
          "name": "",
          "type": "address"
        }
      ],
      "stateMutability": "view",
      "type": "function"
    },
    {
      "inputs": [
        {
          "internalType": "address",
          "name": "_payToken",
          "type": "address"
        }
      ],
      "name": "getPrice",
      "outputs": [
        {
          "internalType": "int256",
          "name": "",
          "type": "int256"
        }
      ],
      "stateMutability": "view",
      "type": "function"
    },
    {
      "inputs": [
        {
          "internalType": "address payable",
          "name": "_feeRecipient",
          "type": "address"
        },
        {
          "internalType": "uint256",
          "name": "_platformFee",
          "type": "uint256"
        }
      ],
      "name": "initialize",
      "outputs": [],
      "stateMutability": "nonpayable",
      "type": "function"
    },
    {
      "inputs": [
        {
          "internalType": "address",
          "name": "_nftAddress",
          "type": "address"
        },
        {
          "internalType": "uint256",
          "name": "_tokenId",
          "type": "uint256"
        },
        {
          "internalType": "uint256",
          "name": "_quantity",
          "type": "uint256"
        },
        {
          "internalType": "address",
          "name": "_payToken",
          "type": "address"
        },
        {
          "internalType": "uint256",
          "name": "_pricePerItem",
          "type": "uint256"
        },
        {
          "internalType": "uint256",
          "name": "_startingTime",
          "type": "uint256"
        }
      ],
      "name": "listItem",
      "outputs": [],
      "stateMutability": "nonpayable",
      "type": "function"
    },
    {
      "inputs": [
        {
          "internalType": "address",
          "name": "",
          "type": "address"
        },
        {
          "internalType": "uint256",
          "name": "",
          "type": "uint256"
        },
        {
          "internalType": "address",
          "name": "",
          "type": "address"
        }
      ],
      "name": "listings",
      "outputs": [
        {
          "internalType": "uint256",
          "name": "quantity",
          "type": "uint256"
        },
        {
          "internalType": "address",
          "name": "payToken",
          "type": "address"
        },
        {
          "internalType": "uint256",
          "name": "pricePerItem",
          "type": "uint256"
        },
        {
          "internalType": "uint256",
          "name": "startingTime",
          "type": "uint256"
        }
      ],
      "stateMutability": "view",
      "type": "function"
    },
    {
      "inputs": [
        {
          "internalType": "address",
          "name": "",
          "type": "address"
        },
        {
          "internalType": "uint256",
          "name": "",
          "type": "uint256"
        }
      ],
      "name": "minters",
      "outputs": [
        {
          "internalType": "address",
          "name": "",
          "type": "address"
        }
      ],
      "stateMutability": "view",
      "type": "function"
    },
    {
      "inputs": [
        {
          "internalType": "address",
          "name": "",
          "type": "address"
        },
        {
          "internalType": "uint256",
          "name": "",
          "type": "uint256"
        },
        {
          "internalType": "address",
          "name": "",
          "type": "address"
        }
      ],
      "name": "offers",
      "outputs": [
        {
          "internalType": "contract IERC20",
          "name": "payToken",
          "type": "address"
        },
        {
          "internalType": "uint256",
          "name": "quantity",
          "type": "uint256"
        },
        {
          "internalType": "uint256",
          "name": "pricePerItem",
          "type": "uint256"
        },
        {
          "internalType": "uint256",
          "name": "deadline",
          "type": "uint256"
        }
      ],
      "stateMutability": "view",
      "type": "function"
    },
    {
      "inputs": [],
      "name": "owner",
      "outputs": [
        {
          "internalType": "address",
          "name": "",
          "type": "address"
        }
      ],
      "stateMutability": "view",
      "type": "function"
    },
    {
      "inputs": [],
      "name": "paused",
      "outputs": [
        {
          "internalType": "bool",
          "name": "",
          "type": "bool"
        }
      ],
      "stateMutability": "view",
      "type": "function"
    },
    {
      "inputs": [],
      "name": "platformFee",
      "outputs": [
        {
          "internalType": "uint256",
          "name": "",
          "type": "uint256"
        }
      ],
      "stateMutability": "view",
      "type": "function"
    },
    {
      "inputs": [],
      "name": "proxiableUUID",
      "outputs": [
        {
          "internalType": "bytes32",
          "name": "",
          "type": "bytes32"
        }
      ],
      "stateMutability": "view",
      "type": "function"
    },
    {
      "inputs": [
        {
          "internalType": "address",
          "name": "_nftAddress",
          "type": "address"
        },
        {
          "internalType": "address",
          "name": "_creator",
          "type": "address"
        },
        {
          "internalType": "uint16",
          "name": "_royalty",
          "type": "uint16"
        },
        {
          "internalType": "address",
          "name": "_feeRecipient",
          "type": "address"
        }
      ],
      "name": "registerCollectionRoyalty",
      "outputs": [],
      "stateMutability": "nonpayable",
      "type": "function"
    },
    {
      "inputs": [
        {
          "internalType": "address",
          "name": "_nftAddress",
          "type": "address"
        },
        {
          "internalType": "uint256",
          "name": "_tokenId",
          "type": "uint256"
        },
        {
          "internalType": "uint16",
          "name": "_royalty",
          "type": "uint16"
        }
      ],
      "name": "registerRoyalty",
      "outputs": [],
      "stateMutability": "nonpayable",
      "type": "function"
    },
    {
      "inputs": [],
      "name": "renounceOwnership",
      "outputs": [],
      "stateMutability": "nonpayable",
      "type": "function"
    },
    {
      "inputs": [
        {
          "internalType": "address",
          "name": "",
          "type": "address"
        },
        {
          "internalType": "uint256",
          "name": "",
          "type": "uint256"
        }
      ],
      "name": "royalties",
      "outputs": [
        {
          "internalType": "uint16",
          "name": "",
          "type": "uint16"
        }
      ],
      "stateMutability": "view",
      "type": "function"
    },
    {
      "inputs": [
        {
          "internalType": "address",
          "name": "newOwner",
          "type": "address"
        }
      ],
      "name": "transferOwnership",
      "outputs": [],
      "stateMutability": "nonpayable",
      "type": "function"
    },
    {
      "inputs": [
        {
          "internalType": "address",
          "name": "_registry",
          "type": "address"
        }
      ],
      "name": "updateAddressRegistry",
      "outputs": [],
      "stateMutability": "nonpayable",
      "type": "function"
    },
    {
      "inputs": [
        {
          "internalType": "address",
          "name": "_nftAddress",
          "type": "address"
        },
        {
          "internalType": "uint256",
          "name": "_tokenId",
          "type": "uint256"
        },
        {
          "internalType": "address",
          "name": "_payToken",
          "type": "address"
        },
        {
          "internalType": "uint256",
          "name": "_newPrice",
          "type": "uint256"
        }
      ],
      "name": "updateListing",
      "outputs": [],
      "stateMutability": "nonpayable",
      "type": "function"
    },
    {
      "inputs": [
        {
          "internalType": "uint16",
          "name": "_platformFee",
          "type": "uint16"
        }
      ],
      "name": "updatePlatformFee",
      "outputs": [],
      "stateMutability": "nonpayable",
      "type": "function"
    },
    {
      "inputs": [
        {
          "internalType": "address payable",
          "name": "_platformFeeRecipient",
          "type": "address"
        }
      ],
      "name": "updatePlatformFeeRecipient",
      "outputs": [],
      "stateMutability": "nonpayable",
      "type": "function"
    },
    {
      "inputs": [
        {
          "internalType": "address",
          "name": "newImplementation",
          "type": "address"
        }
      ],
      "name": "upgradeTo",
      "outputs": [],
      "stateMutability": "nonpayable",
      "type": "function"
    },
    {
      "inputs": [
        {
          "internalType": "address",
          "name": "newImplementation",
          "type": "address"
        },
        {
          "internalType": "bytes",
          "name": "data",
          "type": "bytes"
        }
      ],
      "name": "upgradeToAndCall",
      "outputs": [],
      "stateMutability": "payable",
      "type": "function"
    },
    {
      "inputs": [
        {
          "internalType": "address",
          "name": "_nftAddress",
          "type": "address"
        },
        {
          "internalType": "uint256",
          "name": "_tokenId",
          "type": "uint256"
        },
        {
          "internalType": "address",
          "name": "_seller",
          "type": "address"
        },
        {
          "internalType": "address",
          "name": "_buyer",
          "type": "address"
        }
      ],
      "name": "validateItemSold",
      "outputs": [],
      "stateMutability": "nonpayable",
      "type": "function"
    }
  ],
  "bytecode": "0x60a0604052306080523480156200001557600080fd5b506200002062000026565b620000e7565b600054610100900460ff1615620000935760405162461bcd60e51b815260206004820152602760248201527f496e697469616c697a61626c653a20636f6e747261637420697320696e697469604482015266616c697a696e6760c81b606482015260840160405180910390fd5b60005460ff90811614620000e5576000805460ff191660ff9081179091556040519081527f7f26b83ff96e1f2b6a682f133852f6798a09c465da95921460cefb38474024989060200160405180910390a15b565b608051614a716200011f600039600081816108590152818161089901528181611c4601528181611c860152611d190152614a716000f3fe6080604052600436106101cd5760003560e01c806378746d0d116100f7578063d3f494cc11610095578063f2fde38b11610064578063f2fde38b14610680578063f3880b6e146106a0578063f3ad65f4146106c0578063f5fe7f71146106e157600080fd5b8063d3f494cc14610568578063e1e549c4146105f0578063e940ebeb14610640578063e984f2eb1461066057600080fd5b8063afb06952116100d1578063afb06952146104e8578063b2ddee0614610508578063c1661a9a14610528578063cd6dc6871461054857600080fd5b806378746d0d1461047557806385f9d345146104b75780638da5cb5b146104ca57600080fd5b806342cbb4b81161016f5780635c975abb1161013e5780635c975abb1461039757806368e79e89146103ba5780636bd3a64b146103da578063715018a61461046057600080fd5b806342cbb4b8146102d75780634f1ef286146102f757806352d1902d1461030a57806357b275b41461031f57600080fd5b80633740ebb3116101ab5780633740ebb31461023e5780633bbb2806146102775780633fc1cc261461029757806341976e09146102b757600080fd5b8063058a56ac146101d257806326232a2e146101f45780633659cfe61461021e575b600080fd5b3480156101de57600080fd5b506101f26101ed3660046140ae565b610701565b005b34801561020057600080fd5b5061020b6101315481565b6040519081526020015b60405180910390f35b34801561022a57600080fd5b506101f26102393660046140da565b61084f565b34801561024a57600080fd5b506101325461025f906001600160a01b031681565b6040516001600160a01b039091168152602001610215565b34801561028357600080fd5b506101f26102923660046140f7565b61092e565b3480156102a357600080fd5b506101f26102b2366004614139565b611071565b3480156102c357600080fd5b5061020b6102d23660046140da565b611558565b3480156102e357600080fd5b506101f26102f2366004614195565b611796565b6101f2610305366004614207565b611c3c565b34801561031657600080fd5b5061020b611d0c565b34801561032b57600080fd5b5061036d61033a3660046140da565b610133602052600090815260409020805460019091015461ffff8216916001600160a01b03620100009091048116911683565b6040805161ffff90941684526001600160a01b039283166020850152911690820152606001610215565b3480156103a357600080fd5b5060335460ff166040519015158152602001610215565b3480156103c657600080fd5b506101f26103d53660046140da565b611dbf565b3480156103e657600080fd5b506104386103f53660046140f7565b61012f602090815260009384526040808520825292845282842090528252902080546001820154600283015460039093015491926001600160a01b039091169184565b604080519485526001600160a01b039093166020850152918301526060820152608001610215565b34801561046c57600080fd5b506101f2611dea565b34801561048157600080fd5b5061025f6104903660046140ae565b61012d6020908152600092835260408084209091529082529020546001600160a01b031681565b6101f26104c53660046142cb565b611dfe565b3480156104d657600080fd5b506065546001600160a01b031661025f565b3480156104f457600080fd5b506101f2610503366004614335565b611f6e565b34801561051457600080fd5b506101f26105233660046140ae565b611fb8565b34801561053457600080fd5b506101f2610543366004614350565b61205c565b34801561055457600080fd5b506101f26105633660046140ae565b612291565b34801561057457600080fd5b506105c66105833660046140f7565b61013060209081526000938452604080852082529284528284209052825290208054600182015460028301546003909301546001600160a01b0390921692909184565b604080516001600160a01b0390951685526020850193909352918301526060820152608001610215565b3480156105fc57600080fd5b5061062d61060b3660046140ae565b61012e60209081526000928352604080842090915290825290205461ffff1681565b60405161ffff9091168152602001610215565b34801561064c57600080fd5b506101f261065b3660046142cb565b61244a565b34801561066c57600080fd5b506101f261067b36600461438f565b61261a565b34801561068c57600080fd5b506101f261069b3660046140da565b61276a565b3480156106ac57600080fd5b506101f26106bb3660046143d7565b6127e0565b3480156106cc57600080fd5b506101345461025f906001600160a01b031681565b3480156106ed57600080fd5b506101f26106fc3660046140da565b612924565b6001600160a01b038083166000908152610130602090815260408083208584528252808320338085529083529281902081516080810183528154909516855260018101549285018390526002810154918501919091526003015460608401528492849291158015906107765750428160600151115b6107c75760405162461bcd60e51b815260206004820152601b60248201527f6f66666572206e6f7420657869737473206f722065787069726564000000000060448201526064015b60405180910390fd5b6001600160a01b03861660008181526101306020908152604080832089845282528083203380855290835281842080546001600160a01b0319168155600181018590556002810185905560030193909355518881527fc6e24dcedb16cc237925b586889d0a38102c719734d6cc56acb89b013099b3a7910160405180910390a3505050505050565b6001600160a01b037f00000000000000000000000000000000000000000000000000000000000000001630036108975760405162461bcd60e51b81526004016107be90614415565b7f00000000000000000000000000000000000000000000000000000000000000006001600160a01b03166108e06000805160206149f5833981519152546001600160a01b031690565b6001600160a01b0316146109065760405162461bcd60e51b81526004016107be90614461565b61090f8161297b565b6040805160008082526020820190925261092b91839190612983565b50565b610936612aee565b6001600160a01b03808416600090815261013060209081526040808320868452825280832084861684528252918290208251608081018452815490941684526001810154918401829052600281015492840192909252600390910154606083015284918491849190158015906109af5750428160600151115b6109fb5760405162461bcd60e51b815260206004820152601b60248201527f6f66666572206e6f7420657869737473206f722065787069726564000000000060448201526064016107be565b6001600160a01b038088166000908152610130602090815260408083208a84528252808320898516845282529182902082516080810184528154909416845260018101549184018290526002810154928401929092526003909101546060830152610a6b90899089903390612b47565b600081602001518260400151610a8191906144c3565b905060006103e86101315483610a9791906144c3565b610aa191906144f0565b610132548451919250600091610ac6916001600160a01b03918216918c911685612d66565b6001600160a01b03808c16600081815261012d602090815260408083208f845282528083205493835261012e82528083208f845290915290205491169061ffff168115801590610b19575061ffff811615155b15610b6f5761271061ffff8216610b308688614504565b610b3a91906144c3565b610b4491906144f0565b8651909350610b5e906001600160a01b03168c8486612d66565b610b688385614517565b9350610bfd565b50506001600160a01b03808c166000908152610133602052604090206001810154905491169061ffff168115801590610bab575061ffff811615155b15610bfd5761271061ffff8216610bc28688614504565b610bcc91906144c3565b610bd691906144f0565b8651909350610bf0906001600160a01b03168c8486612d66565b610bfa8385614517565b93505b610c1f8b33610c0c8789614504565b89516001600160a01b0316929190612d66565b6040516301ffc9a760e01b81526001600160a01b038e16906301ffc9a790610c52906380ac58cd60e01b9060040161452a565b602060405180830381865afa158015610c6f573d6000803e3d6000fd5b505050506040513d601f19601f82011682018060405250810190610c93919061454f565b15610d0557604051632142170760e11b81523360048201526001600160a01b038c81166024830152604482018e90528e16906342842e0e90606401600060405180830381600087803b158015610ce857600080fd5b505af1158015610cfc573d6000803e3d6000fd5b50505050610d7f565b8c6001600160a01b031663f242432a338d8f8a60200151604051806020016040528060008152506040518663ffffffff1660e01b8152600401610d4c9594939291906145ba565b600060405180830381600087803b158015610d6657600080fd5b505af1158015610d7a573d6000803e3d6000fd5b505050505b61013460009054906101000a90046001600160a01b03166001600160a01b0316639e1f5b286040518163ffffffff1660e01b8152600401602060405180830381865afa158015610dd3573d6000803e3d6000fd5b505050506040513d601f19601f82011682018060405250810190610df791906145f4565b6001600160a01b03166327c1f4f48e8e89602001516040518463ffffffff1660e01b8152600401610e46939291906001600160a01b039390931683526020830191909152604082015260600190565b600060405180830381600087803b158015610e6057600080fd5b505af1158015610e74573d6000803e3d6000fd5b505050508c6001600160a01b03168b6001600160a01b0316336001600160a01b03167f949d1413baca5c0e4ab96b0198d536cac8cdcc17cb909b9ea24594f42ed9fa0d8f8a602001518b60000151610ecf8d60000151611558565b8d60400151604051610ee5959493929190614611565b60405180910390a48c6001600160a01b03168b6001600160a01b03167fc6e24dcedb16cc237925b586889d0a38102c719734d6cc56acb89b013099b3a78e604051610f3291815260200190565b60405180910390a361012f60008e6001600160a01b03166001600160a01b0316815260200190815260200160002060008d81526020019081526020016000206000336001600160a01b03166001600160a01b031681526020019081526020016000206000808201600090556001820160006101000a8154906001600160a01b03021916905560028201600090556003820160009055505061013060008e6001600160a01b03166001600160a01b0316815260200190815260200160002060008d815260200190815260200160002060008c6001600160a01b03166001600160a01b03168152602001908152602001600020600080820160006101000a8154906001600160a01b03021916905560018201600090556002820160009055600382016000905550505050505050505050505061106c600160fb55565b505050565b6001600160a01b03808716600090815261012f602090815260408083208984528252808320338085529083529281902081516080810183528154808252600183015490961693810193909352600281015491830191909152600301546060820152889288929190156111165760405162461bcd60e51b815260206004820152600e60248201526d185b1c9958591e481b1a5cdd195960921b60448201526064016107be565b6040516301ffc9a760e01b81526001600160a01b038b16906301ffc9a790611149906380ac58cd60e01b9060040161452a565b602060405180830381865afa158015611166573d6000803e3d6000fd5b505050506040513d601f19601f8201168201806040525081019061118a919061454f565b156112d6576040516331a9108f60e11b8152600481018a90528a9033906001600160a01b03831690636352211e90602401602060405180830381865afa1580156111d8573d6000803e3d6000fd5b505050506040513d601f19601f820116820180604052508101906111fc91906145f4565b6001600160a01b0316146112225760405162461bcd60e51b81526004016107be9061463d565b60405163e985e9c560e01b81523360048201523060248201526001600160a01b0382169063e985e9c590604401602060405180830381865afa15801561126c573d6000803e3d6000fd5b505050506040513d601f19601f82011682018060405250810190611290919061454f565b6112d05760405162461bcd60e51b81526020600482015260116024820152701a5d195b481b9bdd08185c1c1c9bdd9959607a1b60448201526064016107be565b5061141e565b6040516301ffc9a760e01b81526001600160a01b038b16906301ffc9a79061130990636cdb3d1360e11b9060040161452a565b602060405180830381865afa158015611326573d6000803e3d6000fd5b505050506040513d601f19601f8201168201806040525081019061134a919061454f565b1561140657604051627eeac760e11b8152336004820152602481018a90528a9089906001600160a01b0383169062fdd58e90604401602060405180830381865afa15801561139c573d6000803e3d6000fd5b505050506040513d601f19601f820116820180604052508101906113c09190614666565b10156112225760405162461bcd60e51b81526020600482015260156024820152746d75737420686f6c6420656e6f756768206e66747360581b60448201526064016107be565b60405162461bcd60e51b81526004016107be9061467f565b61142787612dc7565b6040518060800160405280898152602001886001600160a01b031681526020018781526020018681525061012f60008c6001600160a01b03166001600160a01b0316815260200190815260200160002060008b81526020019081526020016000206000336001600160a01b03166001600160a01b031681526020019081526020016000206000820151816000015560208201518160010160006101000a8154816001600160a01b0302191690836001600160a01b031602179055506040820151816002015560608201518160030155905050896001600160a01b0316336001600160a01b03167fa0294f02f8ad82fe4744717b0f953a105547196cd3c67056200c1a4ae3aa26298b8b8b8b8b604051611544959493929190614611565b60405180910390a350505050505050505050565b60008060008061013460009054906101000a90046001600160a01b03166001600160a01b031663741bef1a6040518163ffffffff1660e01b8152600401602060405180830381865afa1580156115b2573d6000803e3d6000fd5b505050506040513d601f19601f820116820180604052508101906115d691906145f4565b90506001600160a01b0385166116c857806001600160a01b03166341976e09826001600160a01b031663050d63ec6040518163ffffffff1660e01b8152600401602060405180830381865afa158015611633573d6000803e3d6000fd5b505050506040513d601f19601f8201168201806040525081019061165791906145f4565b6040516001600160e01b031960e084901b1681526001600160a01b0390911660048201526024016040805180830381865afa15801561169a573d6000803e3d6000fd5b505050506040513d601f19601f820116820180604052508101906116be91906146ac565b9093509150611737565b6040516341976e0960e01b81526001600160a01b0386811660048301528216906341976e09906024016040805180830381865afa15801561170d573d6000803e3d6000fd5b505050506040513d601f19601f8201168201806040525081019061173191906146ac565b90935091505b60128260ff16101561176a5761174e8260126146e2565b61175990600a614830565b611763908461483f565b925061178d565b6117756012836146e2565b61178090600a614830565b61178a908461486f565b92505b50909392505050565b6001600160a01b038087166000908152610130602090815260408083208984528252808320338085529083529281902081516080810183528154909516855260018101549285018390526002810154918501919091526003015460608401528892889291158061180a575042816060015111155b61184e5760405162461bcd60e51b81526020600482015260156024820152741bd999995c88185b1c9958591e4818dc99585d1959605a1b60448201526064016107be565b6040516301ffc9a760e01b81526001600160a01b038b16906301ffc9a790611881906380ac58cd60e01b9060040161452a565b602060405180830381865afa15801561189e573d6000803e3d6000fd5b505050506040513d601f19601f820116820180604052508101906118c2919061454f565b8061193c57506040516301ffc9a760e01b81526001600160a01b038b16906301ffc9a7906118fb90636cdb3d1360e11b9060040161452a565b602060405180830381865afa158015611918573d6000803e3d6000fd5b505050506040513d601f19601f8201168201806040525081019061193c919061454f565b6119585760405162461bcd60e51b81526004016107be9061467f565b6101345460408051637d9f6db560e01b815290516000926001600160a01b031691637d9f6db59160048083019260209291908290030181865afa1580156119a3573d6000803e3d6000fd5b505050506040513d601f19601f820116820180604052508101906119c791906145f4565b60405163227c8e0f60e11b81526001600160a01b038d81166004830152602482018d90529192506000918291908416906344f91c1e9060440160c060405180830381865afa158015611a1d573d6000803e3d6000fd5b505050506040513d601f19601f82011682018060405250810190611a41919061489d565b95505094505050508160001480611a5a57506001811515145b611abb5760405162461bcd60e51b815260206004820152602c60248201527f63616e6e6f7420706c61636520616e206f666665722069662061756374696f6e60448201526b1034b99033b7b4b7339037b760a11b60648201526084016107be565b428811611aff5760405162461bcd60e51b815260206004820152601260248201527134b73b30b634b21032bc3834b930ba34b7b760711b60448201526064016107be565b611b088b612dc7565b60405180608001604052808c6001600160a01b031681526020018b81526020018a81526020018981525061013060008f6001600160a01b03166001600160a01b0316815260200190815260200160002060008e81526020019081526020016000206000336001600160a01b03166001600160a01b0316815260200190815260200160002060008201518160000160006101000a8154816001600160a01b0302191690836001600160a01b031602179055506020820151816001015560408201518160020155606082015181600301559050508c6001600160a01b0316336001600160a01b03167f89f255157c655b5155655107b77c620998e5ad4e7485d749e4e6d7ddb63e70f68e8d8f8e8e604051611c25959493929190614611565b60405180910390a350505050505050505050505050565b6001600160a01b037f0000000000000000000000000000000000000000000000000000000000000000163003611c845760405162461bcd60e51b81526004016107be90614415565b7f00000000000000000000000000000000000000000000000000000000000000006001600160a01b0316611ccd6000805160206149f5833981519152546001600160a01b031690565b6001600160a01b031614611cf35760405162461bcd60e51b81526004016107be90614461565b611cfc8261297b565b611d0882826001612983565b5050565b6000306001600160a01b037f00000000000000000000000000000000000000000000000000000000000000001614611dac5760405162461bcd60e51b815260206004820152603860248201527f555550535570677261646561626c653a206d757374206e6f742062652063616c60448201527f6c6564207468726f7567682064656c656761746563616c6c000000000000000060648201526084016107be565b506000805160206149f583398151915290565b611dc7612f7d565b61013480546001600160a01b0319166001600160a01b0392909216919091179055565b611df2612f7d565b611dfc6000612fd7565b565b611e06612aee565b6001600160a01b03808516600090815261012f6020908152604080832087845282528083208486168452825291829020825160808101845281548082526001830154909516928101929092526002810154928201929092526003909101546060820152859185918491611e8b5760405162461bcd60e51b81526004016107be90614903565b6001600160a01b03808916600090815261012f602090815260408083208b84528252808320848a168452825291829020825160808101845281548082526001830154909516928101929092526002810154928201929092526003909101546060820152899189918891611f0390859085908590612b47565b6060810151421015611f4a5760405162461bcd60e51b815260206004820152601060248201526f6974656d206e6f742062757961626c6560801b60448201526064016107be565b611f568c8c8c8c613029565b5050505050505050611f68600160fb55565b50505050565b611f76612f7d565b61ffff81166101318190556040519081527fcabead39256298cdf7d1228eee68b47bc54a2192283d8d93574da08d2d7ac303906020015b60405180910390a150565b611fc0612aee565b6001600160a01b03808316600090815261012f6020908152604080832085845282528083203380855290835292819020815160808101835281548082526001830154909616938101939093526002810154918301919091526003015460608201528492849291906120435760405162461bcd60e51b81526004016107be90614903565b61204e868633613886565b50505050611d08600160fb55565b612064612f7d565b6001600160a01b0383166120ba5760405162461bcd60e51b815260206004820152601760248201527f696e76616c69642063726561746f72206164647265737300000000000000000060448201526064016107be565b6127108261ffff1611156121025760405162461bcd60e51b815260206004820152600f60248201526e696e76616c696420726f79616c747960881b60448201526064016107be565b61ffff8216158061211b57506001600160a01b03811615155b6121675760405162461bcd60e51b815260206004820152601d60248201527f696e76616c69642066656520726563697069656e74206164647265737300000060448201526064016107be565b61217084613986565b1561218d5760405162461bcd60e51b81526004016107be9061467f565b6001600160a01b038481166000908152610133602052604090205462010000900416612237576040805160608101825261ffff84811682526001600160a01b0386811660208085019182528683168587019081528a8416600090815261013390925295902093518454915193166001600160b01b03199091161762010000928216929092029190911782559151600190910180546001600160a01b03191691909216179055611f68565b6001600160a01b0380851660009081526101336020526040902080546001820180548585166001600160a01b031990911617905591851662010000026001600160b01b031990921661ffff85161791909117905550505050565b600054610100900460ff16158080156122b15750600054600160ff909116105b806122cb5750303b1580156122cb575060005460ff166001145b61232e5760405162461bcd60e51b815260206004820152602e60248201527f496e697469616c697a61626c653a20636f6e747261637420697320616c72656160448201526d191e481a5b9a5d1a585b1a5e995960921b60648201526084016107be565b6000805460ff191660011790558015612351576000805461ff0019166101001790555b6001600160a01b0383166123be5760405162461bcd60e51b815260206004820152602e60248201527f566f6c63616e6f41756374696f6e3a20496e76616c696420506c6174666f726d60448201526d0811995948149958da5c1a595b9d60921b60648201526084016107be565b61013182905561013280546001600160a01b0319166001600160a01b0385161790556123e8613b51565b6123f0613b80565b6123f8613baf565b612400613bd6565b801561106c576000805461ff0019169055604051600181527f7f26b83ff96e1f2b6a682f133852f6798a09c465da95921460cefb38474024989060200160405180910390a1505050565b61013454604080516313c3eb6560e31b8152905133926001600160a01b031691639e1f5b289160048083019260209291908290030181865afa158015612494573d6000803e3d6000fd5b505050506040513d601f19601f820116820180604052508101906124b891906145f4565b6001600160a01b0316146125185760405162461bcd60e51b815260206004820152602160248201527f73656e646572206d7573742062652062756e646c65206d61726b6574706c61636044820152606560f81b60648201526084016107be565b6001600160a01b03808516600090815261012f6020908152604080832087845282528083208685168452825291829020825160808101845281548082526001830154909516928101929092526002810154928201929092526003909101546060820152901561258c5761258c858585613886565b6001600160a01b03858116600081815261013060209081526040808320898452825280832094871680845294825280832080546001600160a01b031916815560018101849055600281018490556003019290925590518781529192917fc6e24dcedb16cc237925b586889d0a38102c719734d6cc56acb89b013099b3a7910160405180910390a35050505050565b612622612aee565b6001600160a01b03808516600090815261012f6020908152604080832087845282528083203380855290835292819020815160808101835281548082526001830154909616938101939093526002810154918301919091526003015460608201528692869291906126a55760405162461bcd60e51b81526004016107be90614903565b6001600160a01b038816600090815261012f602090815260408083208a84528252808320338085529252909120805490916126e3918b918b91612b47565b6126ec87612dc7565b6001810180546001600160a01b0319166001600160a01b0389811691821790925560028301889055604080518b815260208101929092528101889052908a169033907f60a11f1619b1716bc2857bf610d4bc631336e14d197025fd5875c1aca1ac7cbd9060600160405180910390a35050505050611f68600160fb55565b612772612f7d565b6001600160a01b0381166127d75760405162461bcd60e51b815260206004820152602660248201527f4f776e61626c653a206e6577206f776e657220697320746865207a65726f206160448201526564647265737360d01b60648201526084016107be565b61092b81612fd7565b6127108161ffff1611156128285760405162461bcd60e51b815260206004820152600f60248201526e696e76616c696420726f79616c747960881b60448201526064016107be565b61283183613986565b61284d5760405162461bcd60e51b81526004016107be9061467f565b61285a8383336001612b47565b6001600160a01b03838116600090815261012d6020908152604080832086845290915290205416156128c45760405162461bcd60e51b81526020600482015260136024820152721c9bde585b1d1e48185b1c9958591e481cd95d606a1b60448201526064016107be565b6001600160a01b03909216600081815261012d60209081526040808320858452825280832080546001600160a01b0319163317905592825261012e8152828220938252929092529020805461ffff90921661ffff19909216919091179055565b61292c612f7d565b61013280546001600160a01b0319166001600160a01b0383169081179091556040519081527fe57e7c1f36cc83fade34e32351e6eee7eb9da532662b1b5da10c631e8222aca790602001611fad565b61092b612f7d565b7f4910fdfa16fed3260ed0e7147f7cc6da11a60208b5b9406d12a635614ffd91435460ff16156129b65761106c83613c05565b826001600160a01b03166352d1902d6040518163ffffffff1660e01b8152600401602060405180830381865afa925050508015612a10575060408051601f3d908101601f19168201909252612a0d91810190614666565b60015b612a735760405162461bcd60e51b815260206004820152602e60248201527f45524331393637557067726164653a206e657720696d706c656d656e7461746960448201526d6f6e206973206e6f74205555505360901b60648201526084016107be565b6000805160206149f58339815191528114612ae25760405162461bcd60e51b815260206004820152602960248201527f45524331393637557067726164653a20756e737570706f727465642070726f786044820152681a58589b195555525160ba1b60648201526084016107be565b5061106c838383613ca1565b600260fb5403612b405760405162461bcd60e51b815260206004820152601f60248201527f5265656e7472616e637947756172643a207265656e7472616e742063616c6c0060448201526064016107be565b600260fb55565b6040516301ffc9a760e01b81526001600160a01b038516906301ffc9a790612b7a906380ac58cd60e01b9060040161452a565b602060405180830381865afa158015612b97573d6000803e3d6000fd5b505050506040513d601f19601f82011682018060405250810190612bbb919061454f565b15612c5c576040516331a9108f60e11b81526004810184905284906001600160a01b038481169190831690636352211e90602401602060405180830381865afa158015612c0c573d6000803e3d6000fd5b505050506040513d601f19601f82011682018060405250810190612c3091906145f4565b6001600160a01b031614612c565760405162461bcd60e51b81526004016107be9061463d565b50611f68565b6040516301ffc9a760e01b81526001600160a01b038516906301ffc9a790612c8f90636cdb3d1360e11b9060040161452a565b602060405180830381865afa158015612cac573d6000803e3d6000fd5b505050506040513d601f19601f82011682018060405250810190612cd0919061454f565b1561140657604051627eeac760e11b81526001600160a01b038381166004830152602482018590528591839183169062fdd58e90604401602060405180830381865afa158015612d24573d6000803e3d6000fd5b505050506040513d601f19601f82011682018060405250810190612d489190614666565b1015612c565760405162461bcd60e51b81526004016107be9061463d565b604080516001600160a01b0385811660248301528416604482015260648082018490528251808303909101815260849091019091526020810180516001600160e01b03166323b872dd60e01b179052611f68908590613cc6565b600160fb55565b6001600160a01b0381161580612f3d57506101345460408051639d23c4c760e01b815290516000926001600160a01b031691639d23c4c79160048083019260209291908290030181865afa158015612e23573d6000803e3d6000fd5b505050506040513d601f19601f82011682018060405250810190612e4791906145f4565b6001600160a01b031614158015612f3d575061013460009054906101000a90046001600160a01b03166001600160a01b0316639d23c4c76040518163ffffffff1660e01b8152600401602060405180830381865afa158015612ead573d6000803e3d6000fd5b505050506040513d601f19601f82011682018060405250810190612ed191906145f4565b6040516398afdfe360e01b81526001600160a01b03838116600483015291909116906398afdfe390602401602060405180830381865afa158015612f19573d6000803e3d6000fd5b505050506040513d601f19601f82011682018060405250810190612f3d919061454f565b61092b5760405162461bcd60e51b815260206004820152601160248201527034b73b30b634b2103830bc903a37b5b2b760791b60448201526064016107be565b6065546001600160a01b03163314611dfc5760405162461bcd60e51b815260206004820181905260248201527f4f776e61626c653a2063616c6c6572206973206e6f7420746865206f776e657260448201526064016107be565b606580546001600160a01b038381166001600160a01b0319831681179093556040519116919082907f8be0079c531659141344cd1fd0a4f28419497f9722a3daafe3b4186f6b6457e090600090a35050565b6001600160a01b03808516600090815261012f60209081526040808320878452825280832085851684528252918290208251608081018452815481526001820154851692810183905260028201549381019390935260030154606083015290918416146130cc5760405162461bcd60e51b815260206004820152601160248201527034b73b30b634b2103830bc903a37b5b2b760791b60448201526064016107be565b805160408201516000916130df916144c3565b905060006103e861013154836130f591906144c3565b6130ff91906144f0565b90506001600160a01b0385166132275781341461316d5760405162461bcd60e51b815260206004820152602660248201527f696e73756666696369656e74206f7220696e636f72726563742076616c756520604482015265746f2062757960d01b60648201526084016107be565b610132546040516000916001600160a01b03169083908381818185875af1925050503d80600081146131bb576040519150601f19603f3d011682016040523d82523d6000602084013e6131c0565b606091505b50509050806132215760405162461bcd60e51b815260206004820152602760248201527f566f6c63616e6f4d61726b6574706c6163653a20466565207472616e736665726044820152660819985a5b195960ca1b60648201526084016107be565b50613244565b61013254613244906001600160a01b038781169133911684612d66565b6001600160a01b03808816600081815261012d602090815260408083208b845282528083205493835261012e82528083208b845290915290205491169061ffff168115801590613297575061ffff811615155b1561337457600061271061ffff83166132b08688614504565b6132ba91906144c3565b6132c491906144f0565b90506001600160a01b03881661334d576000836001600160a01b03168260405160006040518083038185875af1925050503d8060008114613321576040519150601f19603f3d011682016040523d82523d6000602084013e613326565b606091505b50509050806133475760405162461bcd60e51b81526004016107be9061492c565b50613362565b6133626001600160a01b038916338584612d66565b61336c8185614517565b935050613489565b50506001600160a01b038088166000908152610133602052604090206001810154905491169061ffff1681158015906133b0575061ffff811615155b1561348957600061271061ffff83166133c98688614504565b6133d391906144c3565b6133dd91906144f0565b90506001600160a01b038816613466576000836001600160a01b03168260405160006040518083038185875af1925050503d806000811461343a576040519150601f19603f3d011682016040523d82523d6000602084013e61343f565b606091505b50509050806134605760405162461bcd60e51b81526004016107be9061492c565b5061347b565b61347b6001600160a01b038916338584612d66565b6134858185614517565b9350505b6001600160a01b0387166135575760006001600160a01b0387166134ad8587614504565b604051600081818185875af1925050503d80600081146134e9576040519150601f19603f3d011682016040523d82523d6000602084013e6134ee565b606091505b50509050806135515760405162461bcd60e51b815260206004820152602960248201527f566f6c63616e6f4d61726b6574706c6163653a204f776e6572207472616e7366604482015268195c8819985a5b195960ba1b60648201526084016107be565b50613578565b61357833876135668688614504565b6001600160a01b038b16929190612d66565b6040516301ffc9a760e01b81526001600160a01b038a16906301ffc9a7906135ab906380ac58cd60e01b9060040161452a565b602060405180830381865afa1580156135c8573d6000803e3d6000fd5b505050506040513d601f19601f820116820180604052508101906135ec919061454f565b1561365e57604051632142170760e11b81526001600160a01b038781166004830152336024830152604482018a90528a16906342842e0e90606401600060405180830381600087803b15801561364157600080fd5b505af1158015613655573d6000803e3d6000fd5b505050506136d0565b845160408051602081018252600081529051637921219560e11b81526001600160a01b038c169263f242432a9261369d928b9233928f926004016145ba565b600060405180830381600087803b1580156136b757600080fd5b505af11580156136cb573d6000803e3d6000fd5b505050505b61013460009054906101000a90046001600160a01b03166001600160a01b0316639e1f5b286040518163ffffffff1660e01b8152600401602060405180830381865afa158015613724573d6000803e3d6000fd5b505050506040513d601f19601f8201168201806040525081019061374891906145f4565b85516040516309f07d3d60e21b81526001600160a01b038c81166004830152602482018c905260448201929092529116906327c1f4f490606401600060405180830381600087803b15801561379c57600080fd5b505af11580156137b0573d6000803e3d6000fd5b50505050886001600160a01b0316336001600160a01b0316876001600160a01b03167f949d1413baca5c0e4ab96b0198d536cac8cdcc17cb909b9ea24594f42ed9fa0d8b89600001518c6138038e611558565b8c5161380f908d6144f0565b604051613820959493929190614611565b60405180910390a45050506001600160a01b03958616600090815261012f6020908152604080832097835296815286822094909716815292909552509182208281556001810180546001600160a01b031916905560028101839055600301919091555050565b6001600160a01b03808416600090815261012f6020908152604080832086845282528083208585168452825291829020825160808101845281548082526001830154909516928101929092526002810154928201929092526003909101546060820152906138f990859085908590612b47565b6001600160a01b03848116600081815261012f6020908152604080832088845282528083209487168084529482528083208381556001810180546001600160a01b0319169055600281018490556003019290925590518681529192917f9ba1a3cb55ce8d63d072a886f94d2a744f50cddf82128e897d0661f5ec623158910160405180910390a350505050565b610134546040805163721fffa560e01b815290516000926001600160a01b03169163721fffa59160048083019260209291908290030181865afa1580156139d1573d6000803e3d6000fd5b505050506040513d601f19601f820116820180604052508101906139f591906145f4565b604051637b51e92760e11b81526001600160a01b038481166004830152919091169063f6a3d24e90602401602060405180830381865afa158015613a3d573d6000803e3d6000fd5b505050506040513d601f19601f82011682018060405250810190613a61919061454f565b80613b4b575061013460009054906101000a90046001600160a01b03166001600160a01b031663c5ed899a6040518163ffffffff1660e01b8152600401602060405180830381865afa158015613abb573d6000803e3d6000fd5b505050506040513d601f19601f82011682018060405250810190613adf91906145f4565b604051637b51e92760e11b81526001600160a01b038481166004830152919091169063f6a3d24e90602401602060405180830381865afa158015613b27573d6000803e3d6000fd5b505050506040513d601f19601f82011682018060405250810190613b4b919061454f565b92915050565b600054610100900460ff16613b785760405162461bcd60e51b81526004016107be9061497a565b611dfc613d9b565b600054610100900460ff16613ba75760405162461bcd60e51b81526004016107be9061497a565b611dfc613dce565b600054610100900460ff16611dfc5760405162461bcd60e51b81526004016107be9061497a565b600054610100900460ff16613bfd5760405162461bcd60e51b81526004016107be9061497a565b611dfc613dfe565b6001600160a01b0381163b613c725760405162461bcd60e51b815260206004820152602d60248201527f455243313936373a206e657720696d706c656d656e746174696f6e206973206e60448201526c1bdd08184818dbdb9d1c9858dd609a1b60648201526084016107be565b6000805160206149f583398151915280546001600160a01b0319166001600160a01b0392909216919091179055565b613caa83613e25565b600082511180613cb75750805b1561106c57611f688383613e65565b6000613d1b826040518060400160405280602081526020017f5361666545524332303a206c6f772d6c6576656c2063616c6c206661696c6564815250856001600160a01b0316613e919092919063ffffffff16565b9050805160001480613d3c575080806020019051810190613d3c919061454f565b61106c5760405162461bcd60e51b815260206004820152602a60248201527f5361666545524332303a204552433230206f7065726174696f6e20646964206e6044820152691bdd081cdd58d8d9595960b21b60648201526084016107be565b600054610100900460ff16613dc25760405162461bcd60e51b81526004016107be9061497a565b6033805460ff19169055565b600054610100900460ff16613df55760405162461bcd60e51b81526004016107be9061497a565b611dfc33612fd7565b600054610100900460ff16612dc05760405162461bcd60e51b81526004016107be9061497a565b613e2e81613c05565b6040516001600160a01b038216907fbc7cd75a20ee27fd9adebab32041f755214dbc6bffa90cc0225b39da2e5c2d3b90600090a250565b6060613e8a8383604051806060016040528060278152602001614a1560279139613ea8565b9392505050565b6060613ea08484600085613f20565b949350505050565b6060600080856001600160a01b031685604051613ec591906149c5565b600060405180830381855af49150503d8060008114613f00576040519150601f19603f3d011682016040523d82523d6000602084013e613f05565b606091505b5091509150613f1686838387613ffb565b9695505050505050565b606082471015613f815760405162461bcd60e51b815260206004820152602660248201527f416464726573733a20696e73756666696369656e742062616c616e636520666f6044820152651c8818d85b1b60d21b60648201526084016107be565b600080866001600160a01b03168587604051613f9d91906149c5565b60006040518083038185875af1925050503d8060008114613fda576040519150601f19603f3d011682016040523d82523d6000602084013e613fdf565b606091505b5091509150613ff087838387613ffb565b979650505050505050565b6060831561406a578251600003614063576001600160a01b0385163b6140635760405162461bcd60e51b815260206004820152601d60248201527f416464726573733a2063616c6c20746f206e6f6e2d636f6e747261637400000060448201526064016107be565b5081613ea0565b613ea0838381511561407f5781518083602001fd5b8060405162461bcd60e51b81526004016107be91906149e1565b6001600160a01b038116811461092b57600080fd5b600080604083850312156140c157600080fd5b82356140cc81614099565b946020939093013593505050565b6000602082840312156140ec57600080fd5b8135613e8a81614099565b60008060006060848603121561410c57600080fd5b833561411781614099565b925060208401359150604084013561412e81614099565b809150509250925092565b60008060008060008060c0878903121561415257600080fd5b863561415d81614099565b95506020870135945060408701359350606087013561417b81614099565b9598949750929560808101359460a0909101359350915050565b60008060008060008060c087890312156141ae57600080fd5b86356141b981614099565b95506020870135945060408701356141d081614099565b959894975094956060810135955060808101359460a0909101359350915050565b634e487b7160e01b600052604160045260246000fd5b6000806040838503121561421a57600080fd5b823561422581614099565b9150602083013567ffffffffffffffff8082111561424257600080fd5b818501915085601f83011261425657600080fd5b813581811115614268576142686141f1565b604051601f8201601f19908116603f01168101908382118183101715614290576142906141f1565b816040528281528860208487010111156142a957600080fd5b8260208601602083013760006020848301015280955050505050509250929050565b600080600080608085870312156142e157600080fd5b84356142ec81614099565b935060208501359250604085013561430381614099565b9150606085013561431381614099565b939692955090935050565b803561ffff8116811461433057600080fd5b919050565b60006020828403121561434757600080fd5b613e8a8261431e565b6000806000806080858703121561436657600080fd5b843561437181614099565b9350602085013561438181614099565b92506143036040860161431e565b600080600080608085870312156143a557600080fd5b84356143b081614099565b93506020850135925060408501356143c781614099565b9396929550929360600135925050565b6000806000606084860312156143ec57600080fd5b83356143f781614099565b92506020840135915061440c6040850161431e565b90509250925092565b6020808252602c908201527f46756e6374696f6e206d7573742062652063616c6c6564207468726f7567682060408201526b19195b1959d85d1958d85b1b60a21b606082015260800190565b6020808252602c908201527f46756e6374696f6e206d7573742062652063616c6c6564207468726f7567682060408201526b6163746976652070726f787960a01b606082015260800190565b634e487b7160e01b600052601160045260246000fd5b8082028115828204841417613b4b57613b4b6144ad565b634e487b7160e01b600052601260045260246000fd5b6000826144ff576144ff6144da565b500490565b81810381811115613b4b57613b4b6144ad565b80820180821115613b4b57613b4b6144ad565b6001600160e01b031991909116815260200190565b8051801515811461433057600080fd5b60006020828403121561456157600080fd5b613e8a8261453f565b60005b8381101561458557818101518382015260200161456d565b50506000910152565b600081518084526145a681602086016020860161456a565b601f01601f19169290920160200192915050565b6001600160a01b03868116825285166020820152604081018490526060810183905260a060808201819052600090613ff09083018461458e565b60006020828403121561460657600080fd5b8151613e8a81614099565b94855260208501939093526001600160a01b039190911660408401526060830152608082015260a00190565b6020808252600f908201526e6e6f74206f776e696e67206974656d60881b604082015260600190565b60006020828403121561467857600080fd5b5051919050565b602080825260139082015272696e76616c6964206e6674206164647265737360681b604082015260600190565b600080604083850312156146bf57600080fd5b82519150602083015160ff811681146146d757600080fd5b809150509250929050565b60ff8281168282160390811115613b4b57613b4b6144ad565b80825b600180861161470d5750614740565b6001600160ff1b03829004821115614727576147276144ad565b8086161561473457918102915b9490941c9380026146fe565b935093915050565b600082801561475e576001811461476857614771565b6001915050613b4b565b82915050613b4b565b508161477f57506000613b4b565b506001600082138082146147985780156147b7576147d1565b6001600160ff1b038390048311156147b2576147b26144ad565b6147d1565b6001600160ff1b038390058312156147d1576147d16144ad565b50808316156147dd5750805b6147ed8360011c838402836146fb565b600082136001600160ff1b038290048311161561480c5761480c6144ad565b60008212600160ff1b82900583121615614828576148286144ad565b029392505050565b6000613e8a60ff841683614748565b80820260008212600160ff1b8414161561485b5761485b6144ad565b8181058314821517613b4b57613b4b6144ad565b60008261487e5761487e6144da565b600160ff1b821460001984141615614898576148986144ad565b500590565b60008060008060008060c087890312156148b657600080fd5b86516148c181614099565b60208801519096506148d281614099565b809550506040870151935060608701519250608087015191506148f760a0880161453f565b90509295509295509295565b6020808252600f908201526e6e6f74206c6973746564206974656d60881b604082015260600190565b6020808252602e908201527f566f6c63616e6f4d61726b6574706c6163653a20526f79616c7479466565207460408201526d1c985b9cd9995c8819985a5b195960921b606082015260800190565b6020808252602b908201527f496e697469616c697a61626c653a20636f6e7472616374206973206e6f74206960408201526a6e697469616c697a696e6760a81b606082015260800190565b600082516149d781846020870161456a565b9190910192915050565b602081526000613e8a602083018461458e56fe360894a13ba1a3210667c828492db98dca3e2076cc3735a920a3ca505d382bbc416464726573733a206c6f772d6c6576656c2064656c65676174652063616c6c206661696c6564a26469706673582212208b3b5ed50dc32e6f5d23d4f2b7f74ae3669c71abc3d74684e01fe4a890fc146864736f6c63430008150033",
  "linkReferences": {},
  "deployedLinkReferences": {}
}