{
  "_format": "hh-sol-artifact-1",
  "contractName": "VolcanoBundleMarketplace",
  "sourceName": "contracts/VolcanoBundleMarketplace.sol",
  "abi": [
    {
      "inputs": [],
      "stateMutability": "nonpayable",
      "type": "constructor"
    },
    {
      "anonymous": false,
      "inputs": [
        {
          "indexed": false,
          "internalType": "address",
          "name": "previousAdmin",
          "type": "address"
        },
        {
          "indexed": false,
          "internalType": "address",
          "name": "newAdmin",
          "type": "address"
        }
      ],
      "name": "AdminChanged",
      "type": "event"
    },
    {
      "anonymous": false,
      "inputs": [
        {
          "indexed": true,
          "internalType": "address",
          "name": "beacon",
          "type": "address"
        }
      ],
      "name": "BeaconUpgraded",
      "type": "event"
    },
    {
      "anonymous": false,
      "inputs": [
        {
          "indexed": false,
          "internalType": "uint8",
          "name": "version",
          "type": "uint8"
        }
      ],
      "name": "Initialized",
      "type": "event"
    },
    {
      "anonymous": false,
      "inputs": [
        {
          "indexed": true,
          "internalType": "address",
          "name": "owner",
          "type": "address"
        },
        {
          "indexed": false,
          "internalType": "string",
          "name": "bundleID",
          "type": "string"
        }
      ],
      "name": "ItemCanceled",
      "type": "event"
    },
    {
      "anonymous": false,
      "inputs": [
        {
          "indexed": true,
          "internalType": "address",
          "name": "owner",
          "type": "address"
        },
        {
          "indexed": false,
          "internalType": "string",
          "name": "bundleID",
          "type": "string"
        },
        {
          "indexed": false,
          "internalType": "address",
          "name": "payToken",
          "type": "address"
        },
        {
          "indexed": false,
          "internalType": "uint256",
          "name": "price",
          "type": "uint256"
        },
        {
          "indexed": false,
          "internalType": "uint256",
          "name": "startingTime",
          "type": "uint256"
        }
      ],
      "name": "ItemListed",
      "type": "event"
    },
    {
      "anonymous": false,
      "inputs": [
        {
          "indexed": true,
          "internalType": "address",
          "name": "seller",
          "type": "address"
        },
        {
          "indexed": true,
          "internalType": "address",
          "name": "buyer",
          "type": "address"
        },
        {
          "indexed": false,
          "internalType": "string",
          "name": "bundleID",
          "type": "string"
        },
        {
          "indexed": false,
          "internalType": "address",
          "name": "payToken",
          "type": "address"
        },
        {
          "indexed": false,
          "internalType": "int256",
          "name": "payTokenPrice",
          "type": "int256"
        },
        {
          "indexed": false,
          "internalType": "uint256",
          "name": "price",
          "type": "uint256"
        }
      ],
      "name": "ItemSold",
      "type": "event"
    },
    {
      "anonymous": false,
      "inputs": [
        {
          "indexed": true,
          "internalType": "address",
          "name": "owner",
          "type": "address"
        },
        {
          "indexed": false,
          "internalType": "string",
          "name": "bundleID",
          "type": "string"
        },
        {
          "indexed": false,
          "internalType": "address[]",
          "name": "nft",
          "type": "address[]"
        },
        {
          "indexed": false,
          "internalType": "uint256[]",
          "name": "tokenId",
          "type": "uint256[]"
        },
        {
          "indexed": false,
          "internalType": "uint256[]",
          "name": "quantity",
          "type": "uint256[]"
        },
        {
          "indexed": false,
          "internalType": "address",
          "name": "payToken",
          "type": "address"
        },
        {
          "indexed": false,
          "internalType": "uint256",
          "name": "newPrice",
          "type": "uint256"
        }
      ],
      "name": "ItemUpdated",
      "type": "event"
    },
    {
      "anonymous": false,
      "inputs": [
        {
          "indexed": true,
          "internalType": "address",
          "name": "creator",
          "type": "address"
        },
        {
          "indexed": false,
          "internalType": "string",
          "name": "bundleID",
          "type": "string"
        }
      ],
      "name": "OfferCanceled",
      "type": "event"
    },
    {
      "anonymous": false,
      "inputs": [
        {
          "indexed": true,
          "internalType": "address",
          "name": "creator",
          "type": "address"
        },
        {
          "indexed": false,
          "internalType": "string",
          "name": "bundleID",
          "type": "string"
        },
        {
          "indexed": false,
          "internalType": "address",
          "name": "payToken",
          "type": "address"
        },
        {
          "indexed": false,
          "internalType": "uint256",
          "name": "price",
          "type": "uint256"
        },
        {
          "indexed": false,
          "internalType": "uint256",
          "name": "deadline",
          "type": "uint256"
        }
      ],
      "name": "OfferCreated",
      "type": "event"
    },
    {
      "anonymous": false,
      "inputs": [
        {
          "indexed": true,
          "internalType": "address",
          "name": "previousOwner",
          "type": "address"
        },
        {
          "indexed": true,
          "internalType": "address",
          "name": "newOwner",
          "type": "address"
        }
      ],
      "name": "OwnershipTransferred",
      "type": "event"
    },
    {
      "anonymous": false,
      "inputs": [
        {
          "indexed": false,
          "internalType": "address",
          "name": "account",
          "type": "address"
        }
      ],
      "name": "Paused",
      "type": "event"
    },
    {
      "anonymous": false,
      "inputs": [
        {
          "indexed": false,
          "internalType": "address",
          "name": "account",
          "type": "address"
        }
      ],
      "name": "Unpaused",
      "type": "event"
    },
    {
      "anonymous": false,
      "inputs": [
        {
          "indexed": false,
          "internalType": "uint256",
          "name": "platformFee",
          "type": "uint256"
        }
      ],
      "name": "UpdatePlatformFee",
      "type": "event"
    },
    {
      "anonymous": false,
      "inputs": [
        {
          "indexed": false,
          "internalType": "address payable",
          "name": "platformFeeRecipient",
          "type": "address"
        }
      ],
      "name": "UpdatePlatformFeeRecipient",
      "type": "event"
    },
    {
      "anonymous": false,
      "inputs": [
        {
          "indexed": true,
          "internalType": "address",
          "name": "implementation",
          "type": "address"
        }
      ],
      "name": "Upgraded",
      "type": "event"
    },
    {
      "inputs": [
        {
          "internalType": "string",
          "name": "_bundleID",
          "type": "string"
        },
        {
          "internalType": "address",
          "name": "_creator",
          "type": "address"
        }
      ],
      "name": "acceptOffer",
      "outputs": [],
      "stateMutability": "nonpayable",
      "type": "function"
    },
    {
      "inputs": [],
      "name": "addressRegistry",
      "outputs": [
        {
          "internalType": "contract IVolcanoAddressRegistry",
          "name": "",
          "type": "address"
        }
      ],
      "stateMutability": "view",
      "type": "function"
    },
    {
      "inputs": [
        {
          "internalType": "string",
          "name": "_bundleID",
          "type": "string"
        },
        {
          "internalType": "address",
          "name": "_payToken",
          "type": "address"
        }
      ],
      "name": "buyItem",
      "outputs": [],
      "stateMutability": "payable",
      "type": "function"
    },
    {
      "inputs": [
        {
          "internalType": "string",
          "name": "_bundleID",
          "type": "string"
        }
      ],
      "name": "cancelListing",
      "outputs": [],
      "stateMutability": "nonpayable",
      "type": "function"
    },
    {
      "inputs": [
        {
          "internalType": "string",
          "name": "_bundleID",
          "type": "string"
        }
      ],
      "name": "cancelOffer",
      "outputs": [],
      "stateMutability": "nonpayable",
      "type": "function"
    },
    {
      "inputs": [
        {
          "internalType": "string",
          "name": "_bundleID",
          "type": "string"
        },
        {
          "internalType": "contract IERC20",
          "name": "_payToken",
          "type": "address"
        },
        {
          "internalType": "uint256",
          "name": "_price",
          "type": "uint256"
        },
        {
          "internalType": "uint256",
          "name": "_deadline",
          "type": "uint256"
        }
      ],
      "name": "createOffer",
      "outputs": [],
      "stateMutability": "nonpayable",
      "type": "function"
    },
    {
      "inputs": [],
      "name": "feeReceipient",
      "outputs": [
        {
          "internalType": "address payable",
          "name": "",
          "type": "address"
        }
      ],
      "stateMutability": "view",
      "type": "function"
    },
    {
      "inputs": [
        {
          "internalType": "address",
          "name": "_owner",
          "type": "address"
        },
        {
          "internalType": "string",
          "name": "_bundleID",
          "type": "string"
        }
      ],
      "name": "getListing",
      "outputs": [
        {
          "internalType": "address[]",
          "name": "nfts",
          "type": "address[]"
        },
        {
          "internalType": "uint256[]",
          "name": "tokenIds",
          "type": "uint256[]"
        },
        {
          "internalType": "uint256[]",
          "name": "quantities",
          "type": "uint256[]"
        },
        {
          "internalType": "uint256",
          "name": "price",
          "type": "uint256"
        },
        {
          "internalType": "uint256",
          "name": "startingTime",
          "type": "uint256"
        }
      ],
      "stateMutability": "view",
      "type": "function"
    },
    {
      "inputs": [
        {
          "internalType": "address payable",
          "name": "_feeRecipient",
          "type": "address"
        },
        {
          "internalType": "uint256",
          "name": "_platformFee",
          "type": "uint256"
        }
      ],
      "name": "initialize",
      "outputs": [],
      "stateMutability": "nonpayable",
      "type": "function"
    },
    {
      "inputs": [
        {
          "internalType": "string",
          "name": "_bundleID",
          "type": "string"
        },
        {
          "internalType": "address[]",
          "name": "_nftAddresses",
          "type": "address[]"
        },
        {
          "internalType": "uint256[]",
          "name": "_tokenIds",
          "type": "uint256[]"
        },
        {
          "internalType": "uint256[]",
          "name": "_quantities",
          "type": "uint256[]"
        },
        {
          "internalType": "address",
          "name": "_payToken",
          "type": "address"
        },
        {
          "internalType": "uint256",
          "name": "_price",
          "type": "uint256"
        },
        {
          "internalType": "uint256",
          "name": "_startingTime",
          "type": "uint256"
        }
      ],
      "name": "listItem",
      "outputs": [],
      "stateMutability": "nonpayable",
      "type": "function"
    },
    {
      "inputs": [
        {
          "internalType": "address",
          "name": "",
          "type": "address"
        },
        {
          "internalType": "bytes32",
          "name": "",
          "type": "bytes32"
        }
      ],
      "name": "listings",
      "outputs": [
        {
          "internalType": "address",
          "name": "payToken",
          "type": "address"
        },
        {
          "internalType": "uint256",
          "name": "price",
          "type": "uint256"
        },
        {
          "internalType": "uint256",
          "name": "startingTime",
          "type": "uint256"
        }
      ],
      "stateMutability": "view",
      "type": "function"
    },
    {
      "inputs": [
        {
          "internalType": "bytes32",
          "name": "",
          "type": "bytes32"
        },
        {
          "internalType": "address",
          "name": "",
          "type": "address"
        }
      ],
      "name": "offers",
      "outputs": [
        {
          "internalType": "contract IERC20",
          "name": "payToken",
          "type": "address"
        },
        {
          "internalType": "uint256",
          "name": "price",
          "type": "uint256"
        },
        {
          "internalType": "uint256",
          "name": "deadline",
          "type": "uint256"
        }
      ],
      "stateMutability": "view",
      "type": "function"
    },
    {
      "inputs": [],
      "name": "owner",
      "outputs": [
        {
          "internalType": "address",
          "name": "",
          "type": "address"
        }
      ],
      "stateMutability": "view",
      "type": "function"
    },
    {
      "inputs": [
        {
          "internalType": "bytes32",
          "name": "",
          "type": "bytes32"
        }
      ],
      "name": "owners",
      "outputs": [
        {
          "internalType": "address",
          "name": "",
          "type": "address"
        }
      ],
      "stateMutability": "view",
      "type": "function"
    },
    {
      "inputs": [],
      "name": "paused",
      "outputs": [
        {
          "internalType": "bool",
          "name": "",
          "type": "bool"
        }
      ],
      "stateMutability": "view",
      "type": "function"
    },
    {
      "inputs": [],
      "name": "platformFee",
      "outputs": [
        {
          "internalType": "uint256",
          "name": "",
          "type": "uint256"
        }
      ],
      "stateMutability": "view",
      "type": "function"
    },
    {
      "inputs": [],
      "name": "proxiableUUID",
      "outputs": [
        {
          "internalType": "bytes32",
          "name": "",
          "type": "bytes32"
        }
      ],
      "stateMutability": "view",
      "type": "function"
    },
    {
      "inputs": [],
      "name": "renounceOwnership",
      "outputs": [],
      "stateMutability": "nonpayable",
      "type": "function"
    },
    {
      "inputs": [
        {
          "internalType": "address",
          "name": "newOwner",
          "type": "address"
        }
      ],
      "name": "transferOwnership",
      "outputs": [],
      "stateMutability": "nonpayable",
      "type": "function"
    },
    {
      "inputs": [
        {
          "internalType": "address",
          "name": "_registry",
          "type": "address"
        }
      ],
      "name": "updateAddressRegistry",
      "outputs": [],
      "stateMutability": "nonpayable",
      "type": "function"
    },
    {
      "inputs": [
        {
          "internalType": "string",
          "name": "_bundleID",
          "type": "string"
        },
        {
          "internalType": "address",
          "name": "_payToken",
          "type": "address"
        },
        {
          "internalType": "uint256",
          "name": "_newPrice",
          "type": "uint256"
        }
      ],
      "name": "updateListing",
      "outputs": [],
      "stateMutability": "nonpayable",
      "type": "function"
    },
    {
      "inputs": [
        {
          "internalType": "uint256",
          "name": "_platformFee",
          "type": "uint256"
        }
      ],
      "name": "updatePlatformFee",
      "outputs": [],
      "stateMutability": "nonpayable",
      "type": "function"
    },
    {
      "inputs": [
        {
          "internalType": "address payable",
          "name": "_platformFeeRecipient",
          "type": "address"
        }
      ],
      "name": "updatePlatformFeeRecipient",
      "outputs": [],
      "stateMutability": "nonpayable",
      "type": "function"
    },
    {
      "inputs": [
        {
          "internalType": "address",
          "name": "newImplementation",
          "type": "address"
        }
      ],
      "name": "upgradeTo",
      "outputs": [],
      "stateMutability": "nonpayable",
      "type": "function"
    },
    {
      "inputs": [
        {
          "internalType": "address",
          "name": "newImplementation",
          "type": "address"
        },
        {
          "internalType": "bytes",
          "name": "data",
          "type": "bytes"
        }
      ],
      "name": "upgradeToAndCall",
      "outputs": [],
      "stateMutability": "payable",
      "type": "function"
    },
    {
      "inputs": [
        {
          "internalType": "address",
          "name": "_nftAddress",
          "type": "address"
        },
        {
          "internalType": "uint256",
          "name": "_tokenId",
          "type": "uint256"
        },
        {
          "internalType": "uint256",
          "name": "_quantity",
          "type": "uint256"
        }
      ],
      "name": "validateItemSold",
      "outputs": [],
      "stateMutability": "nonpayable",
      "type": "function"
    }
  ],
  "bytecode": "0x60a0604052306080523480156200001557600080fd5b506200002062000026565b620000e7565b600054610100900460ff1615620000935760405162461bcd60e51b815260206004820152602760248201527f496e697469616c697a61626c653a20636f6e747261637420697320696e697469604482015266616c697a696e6760c81b606482015260840160405180910390fd5b60005460ff90811614620000e5576000805460ff191660ff9081179091556040519081527f7f26b83ff96e1f2b6a682f133852f6798a09c465da95921460cefb38474024989060200160405180910390a15b565b6080516151f46200011f60003960008181610e1501528181610e55015281816118a5015281816118e5015261197801526151f46000f3fe6080604052600436106101815760003560e01c80638da5cb5b116100d1578063ab0962dd1161008a578063f2fde38b11610064578063f2fde38b146104d9578063f3ad65f4146104f9578063f5fe7f711461051a578063fb8ad6ff1461053a57600080fd5b8063ab0962dd14610479578063cd6dc68714610499578063e831eebf146104b957600080fd5b80638da5cb5b1461033c578063943f22611461035a5780639d8820c41461037a578063a58519021461038d578063aa0b598814610404578063aa3a6b361461042457600080fd5b806349deb9771161013e5780635c975abb116101185780635c975abb146102c457806368e79e89146102e7578063715018a61461030757806384328e201461031c57600080fd5b806349deb9771461026b5780634f1ef2861461029c57806352d1902d146102af57600080fd5b806326232a2e1461018657806327c1f4f4146101b05780632d63ce27146101d25780633659cfe6146101f25780633740ebb3146102125780634994bfe51461024b575b600080fd5b34801561019257600080fd5b5061019d6101335481565b6040519081526020015b60405180910390f35b3480156101bc57600080fd5b506101d06101cb366004614655565b610571565b005b3480156101de57600080fd5b506101d06101ed366004614736565b610cf6565b3480156101fe57600080fd5b506101d061020d36600461476b565b610e0b565b34801561021e57600080fd5b5061013454610233906001600160a01b031681565b6040516001600160a01b0390911681526020016101a7565b34801561025757600080fd5b506101d06102663660046147d4565b610eea565b34801561027757600080fd5b5061028b6102863660046148b6565b6116e4565b6040516101a795949392919061497a565b6101d06102aa3660046149c8565b61189b565b3480156102bb57600080fd5b5061019d61196b565b3480156102d057600080fd5b5060335460ff1660405190151581526020016101a7565b3480156102f357600080fd5b506101d061030236600461476b565b611a1e565b34801561031357600080fd5b506101d0611a49565b34801561032857600080fd5b506101d0610337366004614a22565b611a5d565b34801561034857600080fd5b506065546001600160a01b0316610233565b34801561036657600080fd5b506101d0610375366004614736565b61235a565b6101d0610388366004614a22565b6123c0565b34801561039957600080fd5b506103df6103a8366004614a74565b6101326020908152600092835260408084209091529082529020805460018201546002909201546001600160a01b03909116919083565b604080516001600160a01b0390941684526020840192909252908201526060016101a7565b34801561041057600080fd5b506101d061041f366004614a99565b61243f565b34801561043057600080fd5b506103df61043f366004614ab2565b61012d6020908152600092835260408084209091529082529020600381015460048201546005909201546001600160a01b03909116919083565b34801561048557600080fd5b506101d0610494366004614ade565b612484565b3480156104a557600080fd5b506101d06104b4366004614ab2565b612674565b3480156104c557600080fd5b506101d06104d4366004614b38565b61282d565b3480156104e557600080fd5b506101d06104f436600461476b565b612a3d565b34801561050557600080fd5b5061013554610233906001600160a01b031681565b34801561052657600080fd5b506101d061053536600461476b565b612ab3565b34801561054657600080fd5b50610233610555366004614a99565b61012e602052600090815260409020546001600160a01b031681565b6101355460408051637d9f6db560e01b8152905133926001600160a01b031691637d9f6db59160048083019260209291908290030181865afa1580156105bb573d6000803e3d6000fd5b505050506040513d601f19601f820116820180604052508101906105df9190614b97565b6001600160a01b031614806106685750610135546040805163abc8c7af60e01b8152905133926001600160a01b03169163abc8c7af9160048083019260209291908290030181865afa158015610639573d6000803e3d6000fd5b505050506040513d601f19601f8201168201806040525081019061065d9190614b97565b6001600160a01b0316145b6106c75760405162461bcd60e51b815260206004820152602560248201527f73656e646572206d7573742062652061756374696f6e206f72206d61726b6574604482015264706c61636560d81b60648201526084015b60405180910390fd5b6001600160a01b038316600090815261012f6020908152604080832085845290915281206106f490612b0a565b905060005b81811015610cba576001600160a01b038516600090815261012f60209081526040808320878452909152812061072f9083612b1a565b600081815261012e60205260409020549091506001600160a01b03168015610ca5576001600160a01b038116600090815261012d6020908152604080832085845282528083206101319092528220805491929161078b90614bb4565b80601f01602080910402602001604051908101604052809291908181526020018280546107b790614bb4565b80156108045780601f106107d957610100808354040283529160200191610804565b820191906000526020600020905b8154815290600101906020018083116107e757829003601f168201915b505050505090506000610130600086815260200190815260200160002060008b6001600160a01b03166001600160a01b0316815260200190815260200160002060008a81526020019081526020016000205490508783600201828154811061086e5761086e614bee565b906000526020600020015411156108d0578783600201828154811061089557610895614bee565b90600052602060002001546108aa9190614c1a565b8360020182815481106108bf576108bf614bee565b600091825260209091200155610c42565b6000858152610130602090815260408083206001600160a01b038e16845282528083208c84529091528120558254600103610a0d576001600160a01b038416600090815261012d602090815260408083208884529091528120906109348282614523565b610942600183016000614523565b610950600283016000614523565b506003810180546001600160a01b0319908116909155600060048301819055600590920182905586825261012e6020908152604080842080549093169092556101319052812061099f91614541565b6040805160008082526020820181815282840182815260608401948590526001600160a01b038916947fbf004834f59fa5d831659d6ca458fe7e8675daefebc459ac53a3cab2b6816bf4946109fb948994919391928190614c7d565b60405180910390a25050505050610ca8565b8254610a1b90600190614c1a565b811015610bbc5782548390610a3290600190614c1a565b81548110610a4257610a42614bee565b60009182526020909120015483546001600160a01b0390911690849083908110610a6e57610a6e614bee565b600091825260209091200180546001600160a01b0319166001600160a01b0392909216919091179055600183810180549091610aa991614c1a565b81548110610ab957610ab9614bee565b9060005260206000200154836001018281548110610ad957610ad9614bee565b600091825260209091200155600283018054610af790600190614c1a565b81548110610b0757610b07614bee565b9060005260206000200154836002018281548110610b2757610b27614bee565b90600052602060002001819055508061013060008781526020019081526020016000206000856000018481548110610b6157610b61614bee565b60009182526020808320909101546001600160a01b03168352820192909252604001812060018601805491929185908110610b9e57610b9e614bee565b90600052602060002001548152602001908152602001600020819055505b8254839080610bcd57610bcd614ce9565b600082815260209020810160001990810180546001600160a01b031916905501905560018301805480610c0257610c02614ce9565b6001900381819060005260206000200160009055905582600201805480610c2b57610c2b614ce9565b600190038181906000526020600020016000905590555b600383015460048401546040516001600160a01b03878116937fbf004834f59fa5d831659d6ca458fe7e8675daefebc459ac53a3cab2b6816bf493610c999388938a93600185019360028601939290911691614d34565b60405180910390a25050505b50505b80610cb281614de0565b9150506106f9565b506001600160a01b038416600090815261012f602090815260408083208684529091528120908181610cec8282614523565b5050505050505050565b6000610d0182612b2d565b600081815261013260209081526040808320338452825291829020825160608101845281546001600160a01b03168152600182015492810192909252600201549181018290529192504210610d985760405162461bcd60e51b815260206004820152601b60248201527f6f66666572206e6f7420657869737473206f722065787069726564000000000060448201526064016106be565b60008281526101326020908152604080832033808552925280832080546001600160a01b0319168155600181018490556002019290925590517f7d7a082d5e9005cb920fdc04023f730c7776927c8a728347783ac7a8d2b31e7c90610dfe908690614df9565b60405180910390a2505050565b6001600160a01b037f0000000000000000000000000000000000000000000000000000000000000000163003610e535760405162461bcd60e51b81526004016106be90614e0c565b7f00000000000000000000000000000000000000000000000000000000000000006001600160a01b0316610e9c600080516020615178833981519152546001600160a01b031690565b6001600160a01b031614610ec25760405162461bcd60e51b81526004016106be90614e58565b610ecb81612b5d565b60408051600080825260208201909252610ee791839190612b65565b50565b6000610ef58b612b2d565b600081815261013160205260409020909150610f118c82614ef2565b508887148015610f2057508685145b610f5b5760405162461bcd60e51b815260206004820152600c60248201526b696e76616c6964206461746160a01b60448201526064016106be565b600081815261012e60205260409020546001600160a01b03161580610fbe5750600081815261012e60205260409020546001600160a01b031633148015610fbe575033600090815261012d60209081526040808320848452909152902060040154155b610ffb5760405162461bcd60e51b815260206004820152600e60248201526d185b1c9958591e481b1a5cdd195960921b60448201526064016106be565b6101355460408051639d23c4c760e01b815290516000926001600160a01b031691639d23c4c79160048083019260209291908290030181865afa158015611046573d6000803e3d6000fd5b505050506040513d601f19601f8201168201806040525081019061106a9190614b97565b90506001600160a01b03851615806110fc57506001600160a01b038116158015906110fc57506040516398afdfe360e01b81526001600160a01b0386811660048301528216906398afdfe3906024016020604051808303816000875af11580156110d8573d6000803e3d6000fd5b505050506040513d601f19601f820116820180604052508101906110fc9190614fb2565b6111185760405162461bcd60e51b81526004016106be90614fd4565b33600090815261012d6020908152604080832085845290915281209061113f908290614523565b61114d600182016000614523565b61115b600282016000614523565b60005b8b8110156116195761119d8d8d8381811061117b5761117b614bee565b9050602002016020810190611190919061476b565b6380ac58cd60e01b612cd0565b156112e35760008d8d838181106111b6576111b6614bee565b90506020020160208101906111cb919061476b565b90506112168e8e848181106111e2576111e2614bee565b90506020020160208101906111f7919061476b565b8d8d8581811061120957611209614bee565b9050602002013533612d45565b60405163e985e9c560e01b81523360048201523060248201526001600160a01b0382169063e985e9c590604401602060405180830381865afa158015611260573d6000803e3d6000fd5b505050506040513d601f19601f820116820180604052508101906112849190614fb2565b6112c45760405162461bcd60e51b81526020600482015260116024820152701a5d195b481b9bdd08185c1c1c9bdd9959607a1b60448201526064016106be565b50600282018054600181810183556000928352602090922001556114d7565b61131a8d8d838181106112f8576112f8614bee565b905060200201602081019061130d919061476b565b636cdb3d1360e11b612cd0565b156114995760008d8d8381811061133357611333614bee565b9050602002016020810190611348919061476b565b90506113ac8e8e8481811061135f5761135f614bee565b9050602002016020810190611374919061476b565b8d8d8581811061138657611386614bee565b905060200201358c8c8681811061139f5761139f614bee565b9050602002013533612dd9565b60405163e985e9c560e01b81523360048201523060248201526001600160a01b0382169063e985e9c590604401602060405180830381865afa1580156113f6573d6000803e3d6000fd5b505050506040513d601f19601f8201168201806040525081019061141a9190614fb2565b61145a5760405162461bcd60e51b81526020600482015260116024820152701a5d195b481b9bdd08185c1c1c9bdd9959607a1b60448201526064016106be565b826002018a8a8481811061147057611470614bee565b835460018101855560009485526020948590209190940292909201359190920155506114d79050565b60405162461bcd60e51b8152602060048201526013602482015272696e76616c6964206e6674206164647265737360681b60448201526064016106be565b60008d8d838181106114eb576114eb614bee565b9050602002016020810190611500919061476b565b83546001808201865560008681526020902090910180546001600160a01b0319166001600160a01b03841617905590915083018c8c8481811061154557611545614bee565b8354600181018555600094855260208086209281029490940135910155506001600160a01b038316825261012f9052604081206115b4918791908f8f8781811061159157611591614bee565b905060200201358152602001908152602001600020612e6f90919063ffffffff16565b506000858152610130602090815260408083206001600160a01b0385168452909152812083918e8e848181106115ec576115ec614bee565b9050602002013581526020019081526020016000208190555050808061161190614de0565b91505061115e565b50858160030160006101000a8154816001600160a01b0302191690836001600160a01b031602179055508481600401819055508381600501819055503361012e600085815260200190815260200160002060006101000a8154816001600160a01b0302191690836001600160a01b03160217905550336001600160a01b03167f1dd1f9de6505bd1f4c42382f88f7e9475dedc3c10ff5bd77cf14490a5d74fab28e8888886040516116cd9493929190614fff565b60405180910390a250505050505050505050505050565b606080606060008060006116f787612b2d565b6001600160a01b038916600090815261012d60209081526040808320848452825291829020805483518184028101840190945280845293945091929083018282801561176c57602002820191906000526020600020905b81546001600160a01b0316815260019091019060200180831161174e575b505050506001600160a01b038a16600090815261012d602090815260408083208684528252918290206001018054835181840281018401909452808452949a5091939192508301828280156117e057602002820191906000526020600020905b8154815260200190600101908083116117cc575b505050506001600160a01b038a16600090815261012d602090815260408083208684528252918290206002018054835181840281018401909452808452949950919391925083018282801561185457602002820191906000526020600020905b815481526020019060010190808311611840575b505050506001600160a01b0399909916600090815261012d602090815260408083209483529390529190912060048101546005909101549699959850909650949392505050565b6001600160a01b037f00000000000000000000000000000000000000000000000000000000000000001630036118e35760405162461bcd60e51b81526004016106be90614e0c565b7f00000000000000000000000000000000000000000000000000000000000000006001600160a01b031661192c600080516020615178833981519152546001600160a01b031690565b6001600160a01b0316146119525760405162461bcd60e51b81526004016106be90614e58565b61195b82612b5d565b61196782826001612b65565b5050565b6000306001600160a01b037f00000000000000000000000000000000000000000000000000000000000000001614611a0b5760405162461bcd60e51b815260206004820152603860248201527f555550535570677261646561626c653a206d757374206e6f742062652063616c60448201527f6c6564207468726f7567682064656c656761746563616c6c000000000000000060648201526084016106be565b5060008051602061517883398151915290565b611a26612e7b565b61013580546001600160a01b0319166001600160a01b0392909216919091179055565b611a51612e7b565b611a5b6000612ed5565b565b611a65612f27565b6000611a7083612b2d565b600081815261012e60205260409020549091506001600160a01b03163314611aaa5760405162461bcd60e51b81526004016106be90615037565b6000818152610132602090815260408083206001600160a01b038681168552908352928190208151606081018352815490941684526001810154928401929092526002909101549082018190524210611b455760405162461bcd60e51b815260206004820152601b60248201527f6f66666572206e6f7420657869737473206f722065787069726564000000000060448201526064016106be565b6020810151610133546000906103e890611b5f9084615060565b611b699190615077565b835161013454919250611b879187906001600160a01b031684612f80565b8251611b9e908633611b998587614c1a565b612f80565b33600090815261012d6020908152604080832087845282528083208151815460e09481028201850190935260c08101838152909391928492849190840182828015611c1257602002820191906000526020600020905b81546001600160a01b03168152600190910190602001808311611bf4575b5050505050815260200160018201805480602002602001604051908101604052809291908181526020018280548015611c6a57602002820191906000526020600020905b815481526020019060010190808311611c56575b5050505050815260200160028201805480602002602001604051908101604052809291908181526020018280548015611cc257602002820191906000526020600020905b815481526020019060010190808311611cae575b505050918352505060038201546001600160a01b0316602082015260048201546040820152600590910154606090910152905060005b81515181101561201457611d3082600001518281518110611d1b57611d1b614bee565b60200260200101516380ac58cd60e01b612cd0565b15611dee578151805182908110611d4957611d49614bee565b60200260200101516001600160a01b03166342842e0e338985602001518581518110611d7757611d77614bee565b60209081029190910101516040516001600160e01b031960e086901b1681526001600160a01b0393841660048201529290911660248301526044820152606401600060405180830381600087803b158015611dd157600080fd5b505af1158015611de5573d6000803e3d6000fd5b50505050611eb9565b8151805182908110611e0257611e02614bee565b60200260200101516001600160a01b031663f242432a338985602001518581518110611e3057611e30614bee565b602002602001015186604001518681518110611e4e57611e4e614bee565b6020026020010151604051806020016040528060008152506040518663ffffffff1660e01b8152600401611e86959493929190615099565b600060405180830381600087803b158015611ea057600080fd5b505af1158015611eb4573d6000803e3d6000fd5b505050505b61013560009054906101000a90046001600160a01b03166001600160a01b031663abc8c7af6040518163ffffffff1660e01b8152600401602060405180830381865afa158015611f0d573d6000803e3d6000fd5b505050506040513d601f19601f82011682018060405250810190611f319190614b97565b6001600160a01b031663e940ebeb83600001518381518110611f5557611f55614bee565b602002602001015184602001518481518110611f7357611f73614bee565b60209081029190910181015160008b815261012e90925260409182902054915160e085901b6001600160e01b03191681526001600160a01b03938416600482015260248101919091529082166044820152908a166064820152608401600060405180830381600087803b158015611fe957600080fd5b505af1158015611ffd573d6000803e3d6000fd5b50505050808061200c90614de0565b915050611cf8565b5033600090815261012d6020908152604080832088845290915281209061203b8282614523565b612049600183016000614523565b612057600283016000614523565b506003810180546001600160a01b03191690556000600482018190556005909101819055608082018190526001600160a01b038716815261012d6020908152604080832088845282529091208251805184936120b792849291019061457b565b5060208281015180516120d092600185019201906145e0565b50604082015180516120ec9160028401916020909101906145e0565b5060608201518160030160006101000a8154816001600160a01b0302191690836001600160a01b031602179055506080820151816004015560a082015181600501559050508561012e600087815260200190815260200160002060006101000a8154816001600160a01b0302191690836001600160a01b0316021790555061013260008681526020019081526020016000206000876001600160a01b03166001600160a01b03168152602001908152602001600020600080820160006101000a8154906001600160a01b030219169055600182016000905560028201600090555050856001600160a01b0316336001600160a01b03167f586a7960ce4f3631680ea77efd69fa758b24388a9a5183f452209aa9f1c74bfd89876000015161013560009054906101000a90046001600160a01b03166001600160a01b031663abc8c7af6040518163ffffffff1660e01b8152600401602060405180830381865afa15801561225d573d6000803e3d6000fd5b505050506040513d601f19601f820116820180604052508101906122819190614b97565b89516040516341976e0960e01b81526001600160a01b0391821660048201529116906341976e0990602401602060405180830381865afa1580156122c9573d6000803e3d6000fd5b505050506040513d601f19601f820116820180604052508101906122ed91906150d3565b89602001516040516123029493929190614fff565b60405180910390a3856001600160a01b03167f7d7a082d5e9005cb920fdc04023f730c7776927c8a728347783ac7a8d2b31e7c886040516123439190614df9565b60405180910390a25050505050611967600160fb55565b612362612f27565b600061236d82612b2d565b33600090815261012d602090815260408083208484529091529020600401549091506123ab5760405162461bcd60e51b81526004016106be906150ec565b6123b53383612fe1565b50610ee7600160fb55565b6123c8612f27565b60006123d383612b2d565b600081815261012e60205260409020549091506001600160a01b0316806124295760405162461bcd60e51b815260206004820152600a6024820152691a5b9d985b1a59081a5960b21b60448201526064016106be565b6124338484613354565b5050611967600160fb55565b612447612e7b565b6101338190556040518181527f2644fd26359c107ff7991b6dfc36ce902b334ce4e3891bbecacc5922aa620efa906020015b60405180910390a150565b61248c612f27565b600061249784612b2d565b33600090815261012d6020908152604080832084845290915290206004810154919250906124d75760405162461bcd60e51b81526004016106be906150ec565b6101355460408051639d23c4c760e01b815290516000926001600160a01b031691639d23c4c79160048083019260209291908290030181865afa158015612522573d6000803e3d6000fd5b505050506040513d601f19601f820116820180604052508101906125469190614b97565b90506001600160a01b03851615806125d857506001600160a01b038116158015906125d857506040516398afdfe360e01b81526001600160a01b0386811660048301528216906398afdfe3906024016020604051808303816000875af11580156125b4573d6000803e3d6000fd5b505050506040513d601f19601f820116820180604052508101906125d89190614fb2565b6125f45760405162461bcd60e51b81526004016106be90614fd4565b6003820180546001600160a01b0319166001600160a01b0387161790556004820184905560405133907fbf004834f59fa5d831659d6ca458fe7e8675daefebc459ac53a3cab2b6816bf49061265a9089908690600182019060028301908c908c90614d34565b60405180910390a250505061266f600160fb55565b505050565b600054610100900460ff16158080156126945750600054600160ff909116105b806126ae5750303b1580156126ae575060005460ff166001145b6127115760405162461bcd60e51b815260206004820152602e60248201527f496e697469616c697a61626c653a20636f6e747261637420697320616c72656160448201526d191e481a5b9a5d1a585b1a5e995960921b60648201526084016106be565b6000805460ff191660011790558015612734576000805461ff0019166101001790555b6001600160a01b0383166127a15760405162461bcd60e51b815260206004820152602e60248201527f566f6c63616e6f41756374696f6e3a20496e76616c696420506c6174666f726d60448201526d0811995948149958da5c1a595b9d60921b60648201526084016106be565b61013382905561013480546001600160a01b0319166001600160a01b0385161790556127cb613e6a565b6127d3613e99565b6127db613ec8565b6127e3613eef565b801561266f576000805461ff0019169055604051600181527f7f26b83ff96e1f2b6a682f133852f6798a09c465da95921460cefb38474024989060200160405180910390a1505050565b600061283885612b2d565b600081815261012e60205260409020549091506001600160a01b031661288d5760405162461bcd60e51b815260206004820152600a6024820152691a5b9d985b1a59081a5960b21b60448201526064016106be565b4282116128d15760405162461bcd60e51b815260206004820152601260248201527134b73b30b634b21032bc3834b930ba34b7b760711b60448201526064016106be565b600083116129115760405162461bcd60e51b815260206004820152600d60248201526c696e76616c696420707269636560981b60448201526064016106be565b600081815261013260209081526040808320338452825291829020825160608101845281546001600160a01b0316815260018201549281019290925260020154918101829052904210156129965760405162461bcd60e51b815260206004820152600c60248201526b6f666665722065786973747360a01b60448201526064016106be565b604080516060810182526001600160a01b038781168252602080830188815283850188815260008881526101328452868120338083529452869020945185546001600160a01b0319169416939093178455516001840155905160029092019190915590517f6c59d59bc0c5e094ffd184dd57ea02b8f8e2e2299fd34ffebdd4888864b547b990612a2d908990899089908990614fff565b60405180910390a2505050505050565b612a45612e7b565b6001600160a01b038116612aaa5760405162461bcd60e51b815260206004820152602660248201527f4f776e61626c653a206e6577206f776e657220697320746865207a65726f206160448201526564647265737360d01b60648201526084016106be565b610ee781612ed5565b612abb612e7b565b61013480546001600160a01b0319166001600160a01b0383169081179091556040519081527fe57e7c1f36cc83fade34e32351e6eee7eb9da532662b1b5da10c631e8222aca790602001612479565b6000612b14825490565b92915050565b6000612b268383613f1e565b9392505050565b600081604051602001612b409190615110565b604051602081830303815290604052805190602001209050919050565b610ee7612e7b565b7f4910fdfa16fed3260ed0e7147f7cc6da11a60208b5b9406d12a635614ffd91435460ff1615612b985761266f83613f48565b826001600160a01b03166352d1902d6040518163ffffffff1660e01b8152600401602060405180830381865afa925050508015612bf2575060408051601f3d908101601f19168201909252612bef918101906150d3565b60015b612c555760405162461bcd60e51b815260206004820152602e60248201527f45524331393637557067726164653a206e657720696d706c656d656e7461746960448201526d6f6e206973206e6f74205555505360901b60648201526084016106be565b6000805160206151788339815191528114612cc45760405162461bcd60e51b815260206004820152602960248201527f45524331393637557067726164653a20756e737570706f727465642070726f786044820152681a58589b195555525160ba1b60648201526084016106be565b5061266f838383613fe4565b6040516301ffc9a760e01b81526001600160e01b0319821660048201526000906001600160a01b038416906301ffc9a790602401602060405180830381865afa158015612d21573d6000803e3d6000fd5b505050506040513d601f19601f82011682018060405250810190612b269190614fb2565b6040516331a9108f60e11b8152600481018390526001600160a01b038083169190851690636352211e90602401602060405180830381865afa158015612d8f573d6000803e3d6000fd5b505050506040513d601f19601f82011682018060405250810190612db39190614b97565b6001600160a01b03161461266f5760405162461bcd60e51b81526004016106be90615037565b604051627eeac760e11b81526001600160a01b0382811660048301526024820185905283919086169062fdd58e90604401602060405180830381865afa158015612e27573d6000803e3d6000fd5b505050506040513d601f19601f82011682018060405250810190612e4b91906150d3565b1015612e695760405162461bcd60e51b81526004016106be90615037565b50505050565b6000612b268383614009565b6065546001600160a01b03163314611a5b5760405162461bcd60e51b815260206004820181905260248201527f4f776e61626c653a2063616c6c6572206973206e6f7420746865206f776e657260448201526064016106be565b606580546001600160a01b038381166001600160a01b0319831681179093556040519116919082907f8be0079c531659141344cd1fd0a4f28419497f9722a3daafe3b4186f6b6457e090600090a35050565b600260fb5403612f795760405162461bcd60e51b815260206004820152601f60248201527f5265656e7472616e637947756172643a207265656e7472616e742063616c6c0060448201526064016106be565b600260fb55565b604080516001600160a01b0385811660248301528416604482015260648082018490528251808303909101815260849091019091526020810180516001600160e01b03166323b872dd60e01b179052612e69908590614058565b600160fb55565b6000612fec82612b2d565b6001600160a01b038416600090815261012d6020908152604080832084845282528083208151815460e09481028201850190935260c08101838152959650939490928492849184018282801561306b57602002820191906000526020600020905b81546001600160a01b0316815260019091019060200180831161304d575b50505050508152602001600182018054806020026020016040519081016040528092919081815260200182805480156130c357602002820191906000526020600020905b8154815260200190600101908083116130af575b505050505081526020016002820180548060200260200160405190810160405280929190818152602001828054801561311b57602002820191906000526020600020905b815481526020019060010190808311613107575b505050918352505060038201546001600160a01b0316602082015260048201546040820152600590910154606090910152905060005b815151811015613272576131de8361012f60008560000151858151811061317a5761317a614bee565b60200260200101516001600160a01b03166001600160a01b031681526020019081526020016000206000856020015185815181106131ba576131ba614bee565b6020026020010151815260200190815260200160002061412d90919063ffffffff16565b50600083815261013060205260408120835180519192918490811061320557613205614bee565b60200260200101516001600160a01b03166001600160a01b0316815260200190815260200160002060008360200151838151811061324557613245614bee565b6020026020010151815260200190815260200160002060009055808061326a90614de0565b915050613151565b506001600160a01b038416600090815261012d602090815260408083208584529091528120906132a28282614523565b6132b0600183016000614523565b6132be600283016000614523565b506003810180546001600160a01b0319908116909155600060048301819055600590920182905583825261012e6020908152604080842080549093169092556101319052812061330d91614541565b836001600160a01b03167f71a0e856c3470e868cc72d9c038e190004e167ea6490f2063682cd37679a302a846040516133469190614df9565b60405180910390a250505050565b600061335f83612b2d565b600081815261012e60209081526040808320546001600160a01b031680845261012d835281842085855283528184208251815460e09581028201860190945260c081018481529697509195919390928492918491908401828280156133ed57602002820191906000526020600020905b81546001600160a01b031681526001909101906020018083116133cf575b505050505081526020016001820180548060200260200160405190810160405280929190818152602001828054801561344557602002820191906000526020600020905b815481526020019060010190808311613431575b505050505081526020016002820180548060200260200160405190810160405280929190818152602001828054801561349d57602002820191906000526020600020905b815481526020019060010190808311613489575b505050918352505060038201546001600160a01b031660208201526004820154604082015260059091015460609091015260808101519091506134f25760405162461bcd60e51b81526004016106be906150ec565b836001600160a01b031681606001516001600160a01b0316146135275760405162461bcd60e51b81526004016106be90614fd4565b60005b8151518110156136445761354d82600001518281518110611d1b57611d1b614bee565b1561359c576135978260000151828151811061356b5761356b614bee565b60200260200101518360200151838151811061358957613589614bee565b602002602001015185612d45565b613632565b6135ca826000015182815181106135b5576135b5614bee565b602002602001015163d9b67a2660e01b612cd0565b1561363257613632826000015182815181106135e8576135e8614bee565b60200260200101518360200151838151811061360657613606614bee565b60200260200101518460400151848151811061362457613624614bee565b602002602001015186612dd9565b8061363c81614de0565b91505061352a565b5060a08101514210156136875760405162461bcd60e51b815260206004820152600b60248201526a6e6f742062757961626c6560a81b60448201526064016106be565b6080810151610133546000906103e8906136a19084615060565b6136ab9190615077565b90506001600160a01b03861661388e578134146137195760405162461bcd60e51b815260206004820152602660248201527f696e73756666696369656e74206f7220696e636f72726563742076616c756520604482015265746f2062757960d01b60648201526084016106be565b610134546040516000916001600160a01b03169083908381818185875af1925050503d8060008114613767576040519150601f19603f3d011682016040523d82523d6000602084013e61376c565b606091505b50509050806137cd5760405162461bcd60e51b815260206004820152602760248201527f566f6c63616e6f4d61726b6574706c6163653a20466565207472616e736665726044820152660819985a5b195960ca1b60648201526084016106be565b60006001600160a01b0386166137e38486614c1a565b604051600081818185875af1925050503d806000811461381f576040519150601f19603f3d011682016040523d82523d6000602084013e613824565b606091505b50509050806138875760405162461bcd60e51b815260206004820152602960248201527f566f6c63616e6f4d61726b6574706c6163653a204f776e6572207472616e7366604482015268195c8819985a5b195960ba1b60648201526084016106be565b50506138b9565b610134546138a990879033906001600160a01b031684612f80565b6138b9863386611b998587614c1a565b60005b835151811015613baf576138df84600001518281518110611d1b57611d1b614bee565b1561399d5783518051829081106138f8576138f8614bee565b60200260200101516001600160a01b03166342842e0e86338760200151858151811061392657613926614bee565b60209081029190910101516040516001600160e01b031960e086901b1681526001600160a01b0393841660048201529290911660248301526044820152606401600060405180830381600087803b15801561398057600080fd5b505af1158015613994573d6000803e3d6000fd5b50505050613a68565b83518051829081106139b1576139b1614bee565b60200260200101516001600160a01b031663f242432a8633876020015185815181106139df576139df614bee565b6020026020010151886040015186815181106139fd576139fd614bee565b6020026020010151604051806020016040528060008152506040518663ffffffff1660e01b8152600401613a35959493929190615099565b600060405180830381600087803b158015613a4f57600080fd5b505af1158015613a63573d6000803e3d6000fd5b505050505b61013560009054906101000a90046001600160a01b03166001600160a01b031663abc8c7af6040518163ffffffff1660e01b8152600401602060405180830381865afa158015613abc573d6000803e3d6000fd5b505050506040513d601f19601f82011682018060405250810190613ae09190614b97565b6001600160a01b031663e940ebeb85600001518381518110613b0457613b04614bee565b602002602001015186602001518481518110613b2257613b22614bee565b60209081029190910101516040516001600160e01b031960e085901b1681526001600160a01b03928316600482015260248101919091529088166044820152336064820152608401600060405180830381600087803b158015613b8457600080fd5b505af1158015613b98573d6000803e3d6000fd5b505050508080613ba790614de0565b9150506138bc565b506001600160a01b038416600090815261012d60209081526040808320888452909152812090613bdf8282614523565b613bed600183016000614523565b613bfb600283016000614523565b506003810180546001600160a01b031916905560006004820181905560059091018190556080840181905233815261012d602090815260408083208884528252909120845180518693613c5292849291019061457b565b506020828101518051613c6b92600185019201906145e0565b5060408201518051613c879160028401916020909101906145e0565b5060608201516003820180546001600160a01b039283166001600160a01b031991821617909155608084015160048085019190915560a090940151600590930192909255600088815261012e60209081526040808320805486163390811790915561013283528184208185528352818420805490961686556001860184905560029095019290925561013554825163abc8c7af60e01b8152925194958a8516957f586a7960ce4f3631680ea77efd69fa758b24388a9a5183f452209aa9f1c74bfd958f958f95949091169363abc8c7af938281019391928290030181865afa158015613d77573d6000803e3d6000fd5b505050506040513d601f19601f82011682018060405250810190613d9b9190614b97565b6040516341976e0960e01b81526001600160a01b038d8116600483015291909116906341976e0990602401602060405180830381865afa158015613de3573d6000803e3d6000fd5b505050506040513d601f19601f82011682018060405250810190613e0791906150d3565b87604051613e189493929190614fff565b60405180910390a3336001600160a01b03167f7d7a082d5e9005cb920fdc04023f730c7776927c8a728347783ac7a8d2b31e7c88604051613e599190614df9565b60405180910390a250505050505050565b600054610100900460ff16613e915760405162461bcd60e51b81526004016106be9061512c565b611a5b614139565b600054610100900460ff16613ec05760405162461bcd60e51b81526004016106be9061512c565b611a5b61416c565b600054610100900460ff16611a5b5760405162461bcd60e51b81526004016106be9061512c565b600054610100900460ff16613f165760405162461bcd60e51b81526004016106be9061512c565b611a5b61419c565b6000826000018281548110613f3557613f35614bee565b9060005260206000200154905092915050565b6001600160a01b0381163b613fb55760405162461bcd60e51b815260206004820152602d60248201527f455243313936373a206e657720696d706c656d656e746174696f6e206973206e60448201526c1bdd08184818dbdb9d1c9858dd609a1b60648201526084016106be565b60008051602061517883398151915280546001600160a01b0319166001600160a01b0392909216919091179055565b613fed836141c3565b600082511180613ffa5750805b1561266f57612e698383614203565b600081815260018301602052604081205461405057508154600181810184556000848152602080822090930184905584548482528286019093526040902091909155612b14565b506000612b14565b60006140ad826040518060400160405280602081526020017f5361666545524332303a206c6f772d6c6576656c2063616c6c206661696c6564815250856001600160a01b03166142289092919063ffffffff16565b90508051600014806140ce5750808060200190518101906140ce9190614fb2565b61266f5760405162461bcd60e51b815260206004820152602a60248201527f5361666545524332303a204552433230206f7065726174696f6e20646964206e6044820152691bdd081cdd58d8d9595960b21b60648201526084016106be565b6000612b26838361423f565b600054610100900460ff166141605760405162461bcd60e51b81526004016106be9061512c565b6033805460ff19169055565b600054610100900460ff166141935760405162461bcd60e51b81526004016106be9061512c565b611a5b33612ed5565b600054610100900460ff16612fda5760405162461bcd60e51b81526004016106be9061512c565b6141cc81613f48565b6040516001600160a01b038216907fbc7cd75a20ee27fd9adebab32041f755214dbc6bffa90cc0225b39da2e5c2d3b90600090a250565b6060612b26838360405180606001604052806027815260200161519860279139614332565b606061423784846000856143aa565b949350505050565b60008181526001830160205260408120548015614328576000614263600183614c1a565b855490915060009061427790600190614c1a565b90508181146142dc57600086600001828154811061429757614297614bee565b90600052602060002001549050808760000184815481106142ba576142ba614bee565b6000918252602080832090910192909255918252600188019052604090208390555b85548690806142ed576142ed614ce9565b600190038181906000526020600020016000905590558560010160008681526020019081526020016000206000905560019350505050612b14565b6000915050612b14565b6060600080856001600160a01b03168560405161434f9190615110565b600060405180830381855af49150503d806000811461438a576040519150601f19603f3d011682016040523d82523d6000602084013e61438f565b606091505b50915091506143a086838387614485565b9695505050505050565b60608247101561440b5760405162461bcd60e51b815260206004820152602660248201527f416464726573733a20696e73756666696369656e742062616c616e636520666f6044820152651c8818d85b1b60d21b60648201526084016106be565b600080866001600160a01b031685876040516144279190615110565b60006040518083038185875af1925050503d8060008114614464576040519150601f19603f3d011682016040523d82523d6000602084013e614469565b606091505b509150915061447a87838387614485565b979650505050505050565b606083156144f45782516000036144ed576001600160a01b0385163b6144ed5760405162461bcd60e51b815260206004820152601d60248201527f416464726573733a2063616c6c20746f206e6f6e2d636f6e747261637400000060448201526064016106be565b5081614237565b61423783838151156145095781518083602001fd5b8060405162461bcd60e51b81526004016106be9190614df9565b5080546000825590600052602060002090810190610ee7919061461b565b50805461454d90614bb4565b6000825580601f1061455d575050565b601f016020900490600052602060002090810190610ee7919061461b565b8280548282559060005260206000209081019282156145d0579160200282015b828111156145d057825182546001600160a01b0319166001600160a01b0390911617825560209092019160019091019061459b565b506145dc92915061461b565b5090565b8280548282559060005260206000209081019282156145d0579160200282015b828111156145d0578251825591602001919060010190614600565b5b808211156145dc576000815560010161461c565b6001600160a01b0381168114610ee757600080fd5b803561465081614630565b919050565b60008060006060848603121561466a57600080fd5b833561467581614630565b95602085013595506040909401359392505050565b634e487b7160e01b600052604160045260246000fd5b600067ffffffffffffffff808411156146bb576146bb61468a565b604051601f8501601f19908116603f011681019082821181831017156146e3576146e361468a565b816040528093508581528686860111156146fc57600080fd5b858560208301376000602087830101525050509392505050565b600082601f83011261472757600080fd5b612b26838335602085016146a0565b60006020828403121561474857600080fd5b813567ffffffffffffffff81111561475f57600080fd5b61423784828501614716565b60006020828403121561477d57600080fd5b8135612b2681614630565b60008083601f84011261479a57600080fd5b50813567ffffffffffffffff8111156147b257600080fd5b6020830191508360208260051b85010111156147cd57600080fd5b9250929050565b60008060008060008060008060008060e08b8d0312156147f357600080fd5b8a3567ffffffffffffffff8082111561480b57600080fd5b6148178e838f01614716565b9b5060208d013591508082111561482d57600080fd5b6148398e838f01614788565b909b50995060408d013591508082111561485257600080fd5b61485e8e838f01614788565b909950975060608d013591508082111561487757600080fd5b506148848d828e01614788565b9096509450614897905060808c01614645565b925060a08b0135915060c08b013590509295989b9194979a5092959850565b600080604083850312156148c957600080fd5b82356148d481614630565b9150602083013567ffffffffffffffff8111156148f057600080fd5b6148fc85828601614716565b9150509250929050565b600081518084526020808501945080840160005b8381101561493f5781516001600160a01b03168752958201959082019060010161491a565b509495945050505050565b600081518084526020808501945080840160005b8381101561493f5781518752958201959082019060010161495e565b60a08152600061498d60a0830188614906565b828103602084015261499f818861494a565b905082810360408401526149b3818761494a565b60608401959095525050608001529392505050565b600080604083850312156149db57600080fd5b82356149e681614630565b9150602083013567ffffffffffffffff811115614a0257600080fd5b8301601f81018513614a1357600080fd5b6148fc858235602084016146a0565b60008060408385031215614a3557600080fd5b823567ffffffffffffffff811115614a4c57600080fd5b614a5885828601614716565b9250506020830135614a6981614630565b809150509250929050565b60008060408385031215614a8757600080fd5b823591506020830135614a6981614630565b600060208284031215614aab57600080fd5b5035919050565b60008060408385031215614ac557600080fd5b8235614ad081614630565b946020939093013593505050565b600080600060608486031215614af357600080fd5b833567ffffffffffffffff811115614b0a57600080fd5b614b1686828701614716565b9350506020840135614b2781614630565b929592945050506040919091013590565b60008060008060808587031215614b4e57600080fd5b843567ffffffffffffffff811115614b6557600080fd5b614b7187828801614716565b9450506020850135614b8281614630565b93969395505050506040820135916060013590565b600060208284031215614ba957600080fd5b8151612b2681614630565b600181811c90821680614bc857607f821691505b602082108103614be857634e487b7160e01b600052602260045260246000fd5b50919050565b634e487b7160e01b600052603260045260246000fd5b634e487b7160e01b600052601160045260246000fd5b81810381811115612b1457612b14614c04565b60005b83811015614c48578181015183820152602001614c30565b50506000910152565b60008151808452614c69816020860160208601614c2d565b601f01601f19169290920160200192915050565b60c081526000614c9060c0830189614c51565b8281036020840152614ca28189614906565b90508281036040840152614cb6818861494a565b90508281036060840152614cca818761494a565b6001600160a01b03959095166080840152505060a00152949350505050565b634e487b7160e01b600052603160045260246000fd5b6000815480845260208085019450836000528060002060005b8381101561493f57815487529582019560019182019101614d18565b60c081526000614d4760c0830189614c51565b60208382038185015281895480845282840191508a60005282600020935060005b81811015614d8d5784546001600160a01b031683526001948501949284019201614d68565b50508481036040860152614da1818a614cff565b925050508281036060840152614db78187614cff565b915050614dcf60808301856001600160a01b03169052565b8260a0830152979650505050505050565b600060018201614df257614df2614c04565b5060010190565b602081526000612b266020830184614c51565b6020808252602c908201527f46756e6374696f6e206d7573742062652063616c6c6564207468726f7567682060408201526b19195b1959d85d1958d85b1b60a21b606082015260800190565b6020808252602c908201527f46756e6374696f6e206d7573742062652063616c6c6564207468726f7567682060408201526b6163746976652070726f787960a01b606082015260800190565b601f82111561266f57600081815260208120601f850160051c81016020861015614ecb5750805b601f850160051c820191505b81811015614eea57828155600101614ed7565b505050505050565b815167ffffffffffffffff811115614f0c57614f0c61468a565b614f2081614f1a8454614bb4565b84614ea4565b602080601f831160018114614f555760008415614f3d5750858301515b600019600386901b1c1916600185901b178555614eea565b600085815260208120601f198616915b82811015614f8457888601518255948401946001909101908401614f65565b5085821015614fa25787850151600019600388901b60f8161c191681555b5050505050600190811b01905550565b600060208284031215614fc457600080fd5b81518015158114612b2657600080fd5b60208082526011908201527034b73b30b634b2103830bc903a37b5b2b760791b604082015260600190565b6080815260006150126080830187614c51565b6001600160a01b03959095166020830152506040810192909252606090910152919050565b6020808252600f908201526e6e6f74206f776e696e67206974656d60881b604082015260600190565b8082028115828204841417612b1457612b14614c04565b60008261509457634e487b7160e01b600052601260045260246000fd5b500490565b6001600160a01b03868116825285166020820152604081018490526060810183905260a06080820181905260009061447a90830184614c51565b6000602082840312156150e557600080fd5b5051919050565b6020808252600a90820152691b9bdd081b1a5cdd195960b21b604082015260600190565b60008251615122818460208701614c2d565b9190910192915050565b6020808252602b908201527f496e697469616c697a61626c653a20636f6e7472616374206973206e6f74206960408201526a6e697469616c697a696e6760a81b60608201526080019056fe360894a13ba1a3210667c828492db98dca3e2076cc3735a920a3ca505d382bbc416464726573733a206c6f772d6c6576656c2064656c65676174652063616c6c206661696c6564a264697066735822122028fc4c53e8865fac46db729c6105dbb4081c18b3c5b79bc7f2fa02a8bab42d0c64736f6c63430008150033",
  "linkReferences": {},
  "deployedLinkReferences": {}
}