{
  "_format": "hh-sol-artifact-1",
  "contractName": "VolcanoPriceFeed",
  "sourceName": "contracts/VolcanoPriceFeed.sol",
  "abi": [
    {
      "inputs": [
        {
          "internalType": "address",
          "name": "_addressRegistry",
          "type": "address"
        },
        {
          "internalType": "address",
          "name": "_wFTM",
          "type": "address"
        }
      ],
      "stateMutability": "nonpayable",
      "type": "constructor"
    },
    {
      "anonymous": false,
      "inputs": [
        {
          "indexed": true,
          "internalType": "address",
          "name": "previousOwner",
          "type": "address"
        },
        {
          "indexed": true,
          "internalType": "address",
          "name": "newOwner",
          "type": "address"
        }
      ],
      "name": "OwnershipTransferred",
      "type": "event"
    },
    {
      "inputs": [],
      "name": "addressRegistry",
      "outputs": [
        {
          "internalType": "address",
          "name": "",
          "type": "address"
        }
      ],
      "stateMutability": "view",
      "type": "function"
    },
    {
      "inputs": [
        {
          "internalType": "address",
          "name": "_token",
          "type": "address"
        }
      ],
      "name": "getPrice",
      "outputs": [
        {
          "internalType": "int256",
          "name": "",
          "type": "int256"
        },
        {
          "internalType": "uint8",
          "name": "",
          "type": "uint8"
        }
      ],
      "stateMutability": "view",
      "type": "function"
    },
    {
      "inputs": [
        {
          "internalType": "address",
          "name": "",
          "type": "address"
        }
      ],
      "name": "oracles",
      "outputs": [
        {
          "internalType": "address",
          "name": "",
          "type": "address"
        }
      ],
      "stateMutability": "view",
      "type": "function"
    },
    {
      "inputs": [],
      "name": "owner",
      "outputs": [
        {
          "internalType": "address",
          "name": "",
          "type": "address"
        }
      ],
      "stateMutability": "view",
      "type": "function"
    },
    {
      "inputs": [
        {
          "internalType": "address",
          "name": "_token",
          "type": "address"
        },
        {
          "internalType": "address",
          "name": "_oracle",
          "type": "address"
        }
      ],
      "name": "registerOracle",
      "outputs": [],
      "stateMutability": "nonpayable",
      "type": "function"
    },
    {
      "inputs": [],
      "name": "renounceOwnership",
      "outputs": [],
      "stateMutability": "nonpayable",
      "type": "function"
    },
    {
      "inputs": [
        {
          "internalType": "address",
          "name": "newOwner",
          "type": "address"
        }
      ],
      "name": "transferOwnership",
      "outputs": [],
      "stateMutability": "nonpayable",
      "type": "function"
    },
    {
      "inputs": [
        {
          "internalType": "address",
          "name": "_addressRegistry",
          "type": "address"
        }
      ],
      "name": "updateAddressRegistry",
      "outputs": [],
      "stateMutability": "nonpayable",
      "type": "function"
    },
    {
      "inputs": [
        {
          "internalType": "address",
          "name": "_token",
          "type": "address"
        },
        {
          "internalType": "address",
          "name": "_oracle",
          "type": "address"
        }
      ],
      "name": "updateOracle",
      "outputs": [],
      "stateMutability": "nonpayable",
      "type": "function"
    },
    {
      "inputs": [],
      "name": "wFTM",
      "outputs": [
        {
          "internalType": "address",
          "name": "",
          "type": "address"
        }
      ],
      "stateMutability": "view",
      "type": "function"
    }
  ],
  "bytecode": "0x608060405234801561001057600080fd5b5060405161089238038061089283398101604081905261002f916100d5565b61003833610069565b600280546001600160a01b039384166001600160a01b03199182161790915560038054929093169116179055610108565b600080546001600160a01b038381166001600160a01b0319831681178455604051919092169283917f8be0079c531659141344cd1fd0a4f28419497f9722a3daafe3b4186f6b6457e09190a35050565b80516001600160a01b03811681146100d057600080fd5b919050565b600080604083850312156100e857600080fd5b6100f1836100b9565b91506100ff602084016100b9565b90509250929050565b61077b806101176000396000f3fe608060405234801561001057600080fd5b506004361061009e5760003560e01c806388270e0c1161006657806388270e0c1461012d5780638da5cb5b14610140578063addd509914610151578063f2fde38b1461017a578063f3ad65f41461018d57600080fd5b8063050d63ec146100a357806341976e09146100d357806368e79e89146100fd578063715018a61461011257806383d998ae1461011a575b600080fd5b6003546100b6906001600160a01b031681565b6040516001600160a01b0390911681526020015b60405180910390f35b6100e66100e136600461066d565b6101a0565b6040805192835260ff9091166020830152016100ca565b61011061010b36600461066d565b6102b6565b005b6101106102e0565b610110610128366004610691565b6102f4565b61011061013b366004610691565b610387565b6000546001600160a01b03166100b6565b6100b661015f36600461066d565b6001602052600090815260409020546001600160a01b031681565b61011061018836600461066d565b610535565b6002546100b6906001600160a01b031681565b6001600160a01b0381811660009081526001602052604081205490918291166101ce57506000928392509050565b6001600160a01b038084166000908152600160209081526040918290205482516350d25bcd60e01b8152925193169283926350d25bcd9260048083019391928290030181865afa158015610226573d6000803e3d6000fd5b505050506040513d601f19601f8201168201806040525081019061024a91906106ca565b816001600160a01b031663313ce5676040518163ffffffff1660e01b8152600401602060405180830381865afa158015610288573d6000803e3d6000fd5b505050506040513d601f19601f820116820180604052508101906102ac91906106e3565b9250925050915091565b6102be6105ae565b600280546001600160a01b0319166001600160a01b0392909216919091179055565b6102e86105ae565b6102f26000610608565b565b6102fc6105ae565b6001600160a01b03828116600090815260016020526040902054166103595760405162461bcd60e51b815260206004820152600e60248201526d1bdc9858db19481b9bdd081cd95d60921b60448201526064015b60405180910390fd5b6001600160a01b03918216600090815260016020526040902080546001600160a01b03191691909216179055565b61038f6105ae565b60025460408051639d23c4c760e01b815290516000926001600160a01b031691639d23c4c79160048083019260209291908290030181865afa1580156103d9573d6000803e3d6000fd5b505050506040513d601f19601f820116820180604052508101906103fd9190610706565b6040516398afdfe360e01b81526001600160a01b038581166004830152919250908216906398afdfe3906024016020604051808303816000875af1158015610449573d6000803e3d6000fd5b505050506040513d601f19601f8201168201806040525081019061046d9190610723565b6104a95760405162461bcd60e51b815260206004820152600d60248201526c34b73b30b634b2103a37b5b2b760991b6044820152606401610350565b6001600160a01b0383811660009081526001602052604090205416156105065760405162461bcd60e51b81526020600482015260126024820152711bdc9858db1948185b1c9958591e481cd95d60721b6044820152606401610350565b506001600160a01b03918216600090815260016020526040902080546001600160a01b03191691909216179055565b61053d6105ae565b6001600160a01b0381166105a25760405162461bcd60e51b815260206004820152602660248201527f4f776e61626c653a206e6577206f776e657220697320746865207a65726f206160448201526564647265737360d01b6064820152608401610350565b6105ab81610608565b50565b6000546001600160a01b031633146102f25760405162461bcd60e51b815260206004820181905260248201527f4f776e61626c653a2063616c6c6572206973206e6f7420746865206f776e65726044820152606401610350565b600080546001600160a01b038381166001600160a01b0319831681178455604051919092169283917f8be0079c531659141344cd1fd0a4f28419497f9722a3daafe3b4186f6b6457e09190a35050565b6001600160a01b03811681146105ab57600080fd5b60006020828403121561067f57600080fd5b813561068a81610658565b9392505050565b600080604083850312156106a457600080fd5b82356106af81610658565b915060208301356106bf81610658565b809150509250929050565b6000602082840312156106dc57600080fd5b5051919050565b6000602082840312156106f557600080fd5b815160ff8116811461068a57600080fd5b60006020828403121561071857600080fd5b815161068a81610658565b60006020828403121561073557600080fd5b8151801515811461068a57600080fdfea26469706673582212200fd8db94f33655a9ec78a42a94639f103da659ce20b136e3b8581c3d4d0f9f8164736f6c63430008150033",
  "linkReferences": {},
  "deployedLinkReferences": {}
}