{
  "_format": "hh-sol-artifact-1",
  "contractName": "VolcanoERC721",
  "sourceName": "contracts/mock/_PricyERC721.sol",
  "abi": [
    {
      "inputs": [
        {
          "internalType": "address payable",
          "name": "_feeRecipient",
          "type": "address"
        },
        {
          "internalType": "uint256",
          "name": "_platformFee",
          "type": "uint256"
        }
      ],
      "stateMutability": "nonpayable",
      "type": "constructor"
    },
    {
      "anonymous": false,
      "inputs": [
        {
          "indexed": true,
          "internalType": "address",
          "name": "owner",
          "type": "address"
        },
        {
          "indexed": true,
          "internalType": "address",
          "name": "approved",
          "type": "address"
        },
        {
          "indexed": true,
          "internalType": "uint256",
          "name": "tokenId",
          "type": "uint256"
        }
      ],
      "name": "Approval",
      "type": "event"
    },
    {
      "anonymous": false,
      "inputs": [
        {
          "indexed": true,
          "internalType": "address",
          "name": "owner",
          "type": "address"
        },
        {
          "indexed": true,
          "internalType": "address",
          "name": "operator",
          "type": "address"
        },
        {
          "indexed": false,
          "internalType": "bool",
          "name": "approved",
          "type": "bool"
        }
      ],
      "name": "ApprovalForAll",
      "type": "event"
    },
    {
      "anonymous": false,
      "inputs": [
        {
          "indexed": false,
          "internalType": "uint256",
          "name": "_fromTokenId",
          "type": "uint256"
        },
        {
          "indexed": false,
          "internalType": "uint256",
          "name": "_toTokenId",
          "type": "uint256"
        }
      ],
      "name": "BatchMetadataUpdate",
      "type": "event"
    },
    {
      "anonymous": false,
      "inputs": [
        {
          "indexed": false,
          "internalType": "uint256",
          "name": "_tokenId",
          "type": "uint256"
        }
      ],
      "name": "MetadataUpdate",
      "type": "event"
    },
    {
      "anonymous": false,
      "inputs": [
        {
          "indexed": false,
          "internalType": "uint256",
          "name": "tokenId",
          "type": "uint256"
        },
        {
          "indexed": false,
          "internalType": "address",
          "name": "beneficiary",
          "type": "address"
        },
        {
          "indexed": false,
          "internalType": "string",
          "name": "tokenUri",
          "type": "string"
        },
        {
          "indexed": false,
          "internalType": "address",
          "name": "minter",
          "type": "address"
        }
      ],
      "name": "Minted",
      "type": "event"
    },
    {
      "anonymous": false,
      "inputs": [
        {
          "indexed": true,
          "internalType": "address",
          "name": "previousOwner",
          "type": "address"
        },
        {
          "indexed": true,
          "internalType": "address",
          "name": "newOwner",
          "type": "address"
        }
      ],
      "name": "OwnershipTransferred",
      "type": "event"
    },
    {
      "anonymous": false,
      "inputs": [
        {
          "indexed": true,
          "internalType": "address",
          "name": "from",
          "type": "address"
        },
        {
          "indexed": true,
          "internalType": "address",
          "name": "to",
          "type": "address"
        },
        {
          "indexed": true,
          "internalType": "uint256",
          "name": "tokenId",
          "type": "uint256"
        }
      ],
      "name": "Transfer",
      "type": "event"
    },
    {
      "anonymous": false,
      "inputs": [
        {
          "indexed": false,
          "internalType": "uint256",
          "name": "platformFee",
          "type": "uint256"
        }
      ],
      "name": "UpdatePlatformFee",
      "type": "event"
    },
    {
      "anonymous": false,
      "inputs": [
        {
          "indexed": false,
          "internalType": "address payable",
          "name": "platformFeeRecipient",
          "type": "address"
        }
      ],
      "name": "UpdatePlatformFeeRecipient",
      "type": "event"
    },
    {
      "inputs": [
        {
          "internalType": "address",
          "name": "to",
          "type": "address"
        },
        {
          "internalType": "uint256",
          "name": "tokenId",
          "type": "uint256"
        }
      ],
      "name": "approve",
      "outputs": [],
      "stateMutability": "nonpayable",
      "type": "function"
    },
    {
      "inputs": [
        {
          "internalType": "address",
          "name": "owner",
          "type": "address"
        }
      ],
      "name": "balanceOf",
      "outputs": [
        {
          "internalType": "uint256",
          "name": "",
          "type": "uint256"
        }
      ],
      "stateMutability": "view",
      "type": "function"
    },
    {
      "inputs": [
        {
          "internalType": "uint256",
          "name": "tokenId",
          "type": "uint256"
        }
      ],
      "name": "burn",
      "outputs": [],
      "stateMutability": "nonpayable",
      "type": "function"
    },
    {
      "inputs": [
        {
          "internalType": "uint256",
          "name": "",
          "type": "uint256"
        }
      ],
      "name": "creators",
      "outputs": [
        {
          "internalType": "address",
          "name": "",
          "type": "address"
        }
      ],
      "stateMutability": "view",
      "type": "function"
    },
    {
      "inputs": [
        {
          "internalType": "uint256",
          "name": "_tokenId",
          "type": "uint256"
        }
      ],
      "name": "exists",
      "outputs": [
        {
          "internalType": "bool",
          "name": "",
          "type": "bool"
        }
      ],
      "stateMutability": "view",
      "type": "function"
    },
    {
      "inputs": [],
      "name": "feeReceipient",
      "outputs": [
        {
          "internalType": "address payable",
          "name": "",
          "type": "address"
        }
      ],
      "stateMutability": "view",
      "type": "function"
    },
    {
      "inputs": [
        {
          "internalType": "uint256",
          "name": "tokenId",
          "type": "uint256"
        }
      ],
      "name": "getApproved",
      "outputs": [
        {
          "internalType": "address",
          "name": "",
          "type": "address"
        }
      ],
      "stateMutability": "view",
      "type": "function"
    },
    {
      "inputs": [
        {
          "internalType": "uint256",
          "name": "_tokenId",
          "type": "uint256"
        },
        {
          "internalType": "address",
          "name": "_operator",
          "type": "address"
        }
      ],
      "name": "isApproved",
      "outputs": [
        {
          "internalType": "bool",
          "name": "",
          "type": "bool"
        }
      ],
      "stateMutability": "view",
      "type": "function"
    },
    {
      "inputs": [
        {
          "internalType": "address",
          "name": "owner",
          "type": "address"
        },
        {
          "internalType": "address",
          "name": "operator",
          "type": "address"
        }
      ],
      "name": "isApprovedForAll",
      "outputs": [
        {
          "internalType": "bool",
          "name": "",
          "type": "bool"
        }
      ],
      "stateMutability": "view",
      "type": "function"
    },
    {
      "inputs": [
        {
          "internalType": "address",
          "name": "_beneficiary",
          "type": "address"
        },
        {
          "internalType": "string",
          "name": "_tokenUri",
          "type": "string"
        }
      ],
      "name": "mint",
      "outputs": [
        {
          "internalType": "uint256",
          "name": "",
          "type": "uint256"
        }
      ],
      "stateMutability": "payable",
      "type": "function"
    },
    {
      "inputs": [],
      "name": "name",
      "outputs": [
        {
          "internalType": "string",
          "name": "",
          "type": "string"
        }
      ],
      "stateMutability": "view",
      "type": "function"
    },
    {
      "inputs": [],
      "name": "owner",
      "outputs": [
        {
          "internalType": "address",
          "name": "",
          "type": "address"
        }
      ],
      "stateMutability": "view",
      "type": "function"
    },
    {
      "inputs": [
        {
          "internalType": "uint256",
          "name": "tokenId",
          "type": "uint256"
        }
      ],
      "name": "ownerOf",
      "outputs": [
        {
          "internalType": "address",
          "name": "",
          "type": "address"
        }
      ],
      "stateMutability": "view",
      "type": "function"
    },
    {
      "inputs": [],
      "name": "platformFee",
      "outputs": [
        {
          "internalType": "uint256",
          "name": "",
          "type": "uint256"
        }
      ],
      "stateMutability": "view",
      "type": "function"
    },
    {
      "inputs": [],
      "name": "renounceOwnership",
      "outputs": [],
      "stateMutability": "nonpayable",
      "type": "function"
    },
    {
      "inputs": [
        {
          "internalType": "address",
          "name": "from",
          "type": "address"
        },
        {
          "internalType": "address",
          "name": "to",
          "type": "address"
        },
        {
          "internalType": "uint256",
          "name": "tokenId",
          "type": "uint256"
        }
      ],
      "name": "safeTransferFrom",
      "outputs": [],
      "stateMutability": "nonpayable",
      "type": "function"
    },
    {
      "inputs": [
        {
          "internalType": "address",
          "name": "from",
          "type": "address"
        },
        {
          "internalType": "address",
          "name": "to",
          "type": "address"
        },
        {
          "internalType": "uint256",
          "name": "tokenId",
          "type": "uint256"
        },
        {
          "internalType": "bytes",
          "name": "data",
          "type": "bytes"
        }
      ],
      "name": "safeTransferFrom",
      "outputs": [],
      "stateMutability": "nonpayable",
      "type": "function"
    },
    {
      "inputs": [
        {
          "internalType": "address",
          "name": "operator",
          "type": "address"
        },
        {
          "internalType": "bool",
          "name": "approved",
          "type": "bool"
        }
      ],
      "name": "setApprovalForAll",
      "outputs": [],
      "stateMutability": "nonpayable",
      "type": "function"
    },
    {
      "inputs": [
        {
          "internalType": "bytes4",
          "name": "interfaceId",
          "type": "bytes4"
        }
      ],
      "name": "supportsInterface",
      "outputs": [
        {
          "internalType": "bool",
          "name": "",
          "type": "bool"
        }
      ],
      "stateMutability": "view",
      "type": "function"
    },
    {
      "inputs": [],
      "name": "symbol",
      "outputs": [
        {
          "internalType": "string",
          "name": "",
          "type": "string"
        }
      ],
      "stateMutability": "view",
      "type": "function"
    },
    {
      "inputs": [
        {
          "internalType": "uint256",
          "name": "index",
          "type": "uint256"
        }
      ],
      "name": "tokenByIndex",
      "outputs": [
        {
          "internalType": "uint256",
          "name": "",
          "type": "uint256"
        }
      ],
      "stateMutability": "view",
      "type": "function"
    },
    {
      "inputs": [
        {
          "internalType": "address",
          "name": "owner",
          "type": "address"
        },
        {
          "internalType": "uint256",
          "name": "index",
          "type": "uint256"
        }
      ],
      "name": "tokenOfOwnerByIndex",
      "outputs": [
        {
          "internalType": "uint256",
          "name": "",
          "type": "uint256"
        }
      ],
      "stateMutability": "view",
      "type": "function"
    },
    {
      "inputs": [
        {
          "internalType": "uint256",
          "name": "tokenId",
          "type": "uint256"
        }
      ],
      "name": "tokenURI",
      "outputs": [
        {
          "internalType": "string",
          "name": "",
          "type": "string"
        }
      ],
      "stateMutability": "view",
      "type": "function"
    },
    {
      "inputs": [],
      "name": "totalSupply",
      "outputs": [
        {
          "internalType": "uint256",
          "name": "",
          "type": "uint256"
        }
      ],
      "stateMutability": "view",
      "type": "function"
    },
    {
      "inputs": [
        {
          "internalType": "address",
          "name": "from",
          "type": "address"
        },
        {
          "internalType": "address",
          "name": "to",
          "type": "address"
        },
        {
          "internalType": "uint256",
          "name": "tokenId",
          "type": "uint256"
        }
      ],
      "name": "transferFrom",
      "outputs": [],
      "stateMutability": "nonpayable",
      "type": "function"
    },
    {
      "inputs": [
        {
          "internalType": "address",
          "name": "newOwner",
          "type": "address"
        }
      ],
      "name": "transferOwnership",
      "outputs": [],
      "stateMutability": "nonpayable",
      "type": "function"
    },
    {
      "inputs": [
        {
          "internalType": "uint256",
          "name": "_platformFee",
          "type": "uint256"
        }
      ],
      "name": "updatePlatformFee",
      "outputs": [],
      "stateMutability": "nonpayable",
      "type": "function"
    },
    {
      "inputs": [
        {
          "internalType": "address payable",
          "name": "_platformFeeRecipient",
          "type": "address"
        }
      ],
      "name": "updatePlatformFeeRecipient",
      "outputs": [],
      "stateMutability": "nonpayable",
      "type": "function"
    }
  ],
  "bytecode": "0x60806040523480156200001157600080fd5b50604051620027f9380380620027f983398101604081905262000034916200012f565b6040518060400160405280600a815260200169566f6c63616e6f436f6d60b01b8152506040518060400160405280600381526020016250525960e81b815250816000908162000084919062000210565b50600162000093828262000210565b505050620000b0620000aa620000d960201b60201c565b620000dd565b600e55600f80546001600160a01b0319166001600160a01b0392909216919091179055620002dc565b3390565b600b80546001600160a01b038381166001600160a01b0319831681179093556040519116919082907f8be0079c531659141344cd1fd0a4f28419497f9722a3daafe3b4186f6b6457e090600090a35050565b600080604083850312156200014357600080fd5b82516001600160a01b03811681146200015b57600080fd5b6020939093015192949293505050565b634e487b7160e01b600052604160045260246000fd5b600181811c908216806200019657607f821691505b602082108103620001b757634e487b7160e01b600052602260045260246000fd5b50919050565b601f8211156200020b57600081815260208120601f850160051c81016020861015620001e65750805b601f850160051c820191505b818110156200020757828155600101620001f2565b5050505b505050565b81516001600160401b038111156200022c576200022c6200016b565b62000244816200023d845462000181565b84620001bd565b602080601f8311600181146200027c5760008415620002635750858301515b600019600386901b1c1916600185901b17855562000207565b600085815260208120601f198616915b82811015620002ad578886015182559484019460019091019084016200028c565b5085821015620002cc5787850151600019600388901b60f8161c191681555b5050505050600190811b01905550565b61250d80620002ec6000396000f3fe6080604052600436106101b75760003560e01c80636352211e116100ec578063b88d4fde1161008a578063d0def52111610064578063d0def521146104e0578063e985e9c5146104f3578063f2fde38b14610513578063f5fe7f711461053357600080fd5b8063b88d4fde1461046a578063c87b56dd1461048a578063cd53d08e146104aa57600080fd5b80638da5cb5b116100c65780638da5cb5b146103f757806395d89b4114610415578063a22cb4651461042a578063aa0b59881461044a57600080fd5b80636352211e146103a257806370a08231146103c2578063715018a6146103e257600080fd5b80632f745c591161015957806342966c681161013357806342966c68146103225780634f558e79146103425780634f6ccce71461036257806356c316371461038257600080fd5b80632f745c59146102c25780633740ebb3146102e257806342842e0e1461030257600080fd5b8063095ea7b311610195578063095ea7b31461024b57806318160ddd1461026d57806323b872dd1461028c57806326232a2e146102ac57600080fd5b806301ffc9a7146101bc57806306fdde03146101f1578063081812fc14610213575b600080fd5b3480156101c857600080fd5b506101dc6101d7366004611e3c565b610553565b60405190151581526020015b60405180910390f35b3480156101fd57600080fd5b50610206610564565b6040516101e89190611ea9565b34801561021f57600080fd5b5061023361022e366004611ebc565b6105f6565b6040516001600160a01b0390911681526020016101e8565b34801561025757600080fd5b5061026b610266366004611eea565b61061d565b005b34801561027957600080fd5b506008545b6040519081526020016101e8565b34801561029857600080fd5b5061026b6102a7366004611f16565b610737565b3480156102b857600080fd5b5061027e600e5481565b3480156102ce57600080fd5b5061027e6102dd366004611eea565b610769565b3480156102ee57600080fd5b50600f54610233906001600160a01b031681565b34801561030e57600080fd5b5061026b61031d366004611f16565b6107ff565b34801561032e57600080fd5b5061026b61033d366004611ebc565b61081a565b34801561034e57600080fd5b506101dc61035d366004611ebc565b61084b565b34801561036e57600080fd5b5061027e61037d366004611ebc565b61086a565b34801561038e57600080fd5b506101dc61039d366004611f57565b6108fd565b3480156103ae57600080fd5b506102336103bd366004611ebc565b61093c565b3480156103ce57600080fd5b5061027e6103dd366004611f87565b61099c565b3480156103ee57600080fd5b5061026b610a22565b34801561040357600080fd5b50600b546001600160a01b0316610233565b34801561042157600080fd5b50610206610a36565b34801561043657600080fd5b5061026b610445366004611fa4565b610a45565b34801561045657600080fd5b5061026b610465366004611ebc565b610a54565b34801561047657600080fd5b5061026b610485366004611fed565b610a98565b34801561049657600080fd5b506102066104a5366004611ebc565b610ad0565b3480156104b657600080fd5b506102336104c5366004611ebc565b600d602052600090815260409020546001600160a01b031681565b61027e6104ee3660046120cd565b610adb565b3480156104ff57600080fd5b506101dc61050e366004612152565b610c41565b34801561051f57600080fd5b5061026b61052e366004611f87565b610c6f565b34801561053f57600080fd5b5061026b61054e366004611f87565b610ce5565b600061055e82610d3b565b92915050565b60606000805461057390612180565b80601f016020809104026020016040519081016040528092919081815260200182805461059f90612180565b80156105ec5780601f106105c1576101008083540402835291602001916105ec565b820191906000526020600020905b8154815290600101906020018083116105cf57829003601f168201915b5050505050905090565b600061060182610d60565b506000908152600460205260409020546001600160a01b031690565b60006106288261093c565b9050806001600160a01b0316836001600160a01b03160361069a5760405162461bcd60e51b815260206004820152602160248201527f4552433732313a20617070726f76616c20746f2063757272656e74206f776e656044820152603960f91b60648201526084015b60405180910390fd5b336001600160a01b03821614806106b657506106b68133610c41565b6107285760405162461bcd60e51b815260206004820152603d60248201527f4552433732313a20617070726f76652063616c6c6572206973206e6f7420746f60448201527f6b656e206f776e6572206f7220617070726f76656420666f7220616c6c0000006064820152608401610691565b6107328383610dbf565b505050565b610742335b82610e2d565b61075e5760405162461bcd60e51b8152600401610691906121ba565b610732838383610e8c565b60006107748361099c565b82106107d65760405162461bcd60e51b815260206004820152602b60248201527f455243373231456e756d657261626c653a206f776e657220696e646578206f7560448201526a74206f6620626f756e647360a81b6064820152608401610691565b506001600160a01b03919091166000908152600660209081526040808320938352929052205490565b61073283838360405180602001604052806000815250610a98565b6108233361073c565b61083f5760405162461bcd60e51b8152600401610691906121ba565b61084881610ffd565b50565b6000818152600260205260408120546001600160a01b0316151561055e565b600061087560085490565b82106108d85760405162461bcd60e51b815260206004820152602c60248201527f455243373231456e756d657261626c653a20676c6f62616c20696e646578206f60448201526b7574206f6620626f756e647360a01b6064820152608401610691565b600882815481106108eb576108eb612207565b90600052602060002001549050919050565b600061091161090b8461093c565b83610c41565b806109355750816001600160a01b031661092a846105f6565b6001600160a01b0316145b9392505050565b6000818152600260205260408120546001600160a01b03168061055e5760405162461bcd60e51b8152602060048201526018602482015277115490cdcc8c4e881a5b9d985b1a59081d1bdad95b88125160421b6044820152606401610691565b60006001600160a01b038216610a065760405162461bcd60e51b815260206004820152602960248201527f4552433732313a2061646472657373207a65726f206973206e6f7420612076616044820152683634b21037bbb732b960b91b6064820152608401610691565b506001600160a01b031660009081526003602052604090205490565b610a2a611096565b610a3460006110f0565b565b60606001805461057390612180565b610a50338383611142565b5050565b610a5c611096565b600e8190556040518181527f2644fd26359c107ff7991b6dfc36ce902b334ce4e3891bbecacc5922aa620efa906020015b60405180910390a150565b610aa23383610e2d565b610abe5760405162461bcd60e51b8152600401610691906121ba565b610aca84848484611210565b50505050565b606061055e82611243565b6000600e54341015610b2f5760405162461bcd60e51b815260206004820152601b60248201527f496e73756666696369656e742066756e647320746f206d696e742e00000000006044820152606401610691565b610b3a83833361134b565b610b48600c80546001019055565b6000610b53600c5490565b9050610b5f8582611420565b610b9f8185858080601f01602080910402602001604051908101604052809392919081815260200183838082843760009201919091525061143a92505050565b600f546040516001600160a01b03909116903480156108fc02916000818181858888f19350505050158015610bd8573d6000803e3d6000fd5b506000818152600d60205260409081902080546001600160a01b0319163390811790915590517f997115af5924f5e38964c6d65c804d4cb85129b65e62eb20a8ca6329dbe57e1891610c3191849189918991899161221d565b60405180910390a1949350505050565b6001600160a01b03918216600090815260056020908152604080832093909416825291909152205460ff1690565b610c77611096565b6001600160a01b038116610cdc5760405162461bcd60e51b815260206004820152602660248201527f4f776e61626c653a206e6577206f776e657220697320746865207a65726f206160448201526564647265737360d01b6064820152608401610691565b610848816110f0565b610ced611096565b600f80546001600160a01b0319166001600160a01b0383169081179091556040519081527fe57e7c1f36cc83fade34e32351e6eee7eb9da532662b1b5da10c631e8222aca790602001610a8d565b60006001600160e01b03198216632483248360e11b148061055e575061055e82611505565b6000818152600260205260409020546001600160a01b03166108485760405162461bcd60e51b8152602060048201526018602482015277115490cdcc8c4e881a5b9d985b1a59081d1bdad95b88125160421b6044820152606401610691565b600081815260046020526040902080546001600160a01b0319166001600160a01b0384169081179091558190610df48261093c565b6001600160a01b03167f8c5be1e5ebec7d5bd14f71427d1e84f3dd0314c0f7b2291e5b200ac8c7c3b92560405160405180910390a45050565b600080610e398361093c565b9050806001600160a01b0316846001600160a01b03161480610e605750610e608185610c41565b80610e845750836001600160a01b0316610e79846105f6565b6001600160a01b0316145b949350505050565b826001600160a01b0316610e9f8261093c565b6001600160a01b031614610ec55760405162461bcd60e51b815260040161069190612272565b6001600160a01b038216610f275760405162461bcd60e51b8152602060048201526024808201527f4552433732313a207472616e7366657220746f20746865207a65726f206164646044820152637265737360e01b6064820152608401610691565b610f34838383600161152a565b826001600160a01b0316610f478261093c565b6001600160a01b031614610f6d5760405162461bcd60e51b815260040161069190612272565b600081815260046020908152604080832080546001600160a01b03199081169091556001600160a01b0387811680865260038552838620805460001901905590871680865283862080546001019055868652600290945282852080549092168417909155905184937fddf252ad1be2c89b69c2b068fc378daa952ba7f163c4a11628f55a4df523b3ef91a4505050565b33806110088361093c565b6001600160a01b03161480611022575061102282826108fd565b61106e5760405162461bcd60e51b815260206004820152601e60248201527f4f6e6c79206761726d656e74206f776e6572206f7220617070726f76656400006044820152606401610691565b61107782611536565b506000908152600d6020526040902080546001600160a01b0319169055565b600b546001600160a01b03163314610a345760405162461bcd60e51b815260206004820181905260248201527f4f776e61626c653a2063616c6c6572206973206e6f7420746865206f776e65726044820152606401610691565b600b80546001600160a01b038381166001600160a01b0319831681179093556040519116919082907f8be0079c531659141344cd1fd0a4f28419497f9722a3daafe3b4186f6b6457e090600090a35050565b816001600160a01b0316836001600160a01b0316036111a35760405162461bcd60e51b815260206004820152601960248201527f4552433732313a20617070726f766520746f2063616c6c6572000000000000006044820152606401610691565b6001600160a01b03838116600081815260056020908152604080832094871680845294825291829020805460ff191686151590811790915591519182527f17307eab39ab6107e8899845ad3d59bd9653f200f220920489ca2b5937696c31910160405180910390a3505050565b61121b848484610e8c565b61122784848484611576565b610aca5760405162461bcd60e51b8152600401610691906122b7565b606061124e82610d60565b6000828152600a60205260408120805461126790612180565b80601f016020809104026020016040519081016040528092919081815260200182805461129390612180565b80156112e05780601f106112b5576101008083540402835291602001916112e0565b820191906000526020600020905b8154815290600101906020018083116112c357829003601f168201915b5050505050905060006112fe60408051602081019091526000815290565b90508051600003611310575092915050565b81511561134257808260405160200161132a929190612309565b60405160208183030381529060405292505050919050565b610e8484611677565b816113ae5760405162461bcd60e51b815260206004820152602d60248201527f5f6173736572744d696e74696e67506172616d7356616c69643a20546f6b656e60448201526c2055524920697320656d70747960981b6064820152608401610691565b6001600160a01b0381166107325760405162461bcd60e51b815260206004820152603360248201527f5f6173736572744d696e74696e67506172616d7356616c69643a2044657369676044820152726e6572206973207a65726f206164647265737360681b6064820152608401610691565b610a508282604051806020016040528060008152506116ea565b6000828152600260205260409020546001600160a01b03166114b55760405162461bcd60e51b815260206004820152602e60248201527f45524337323155524953746f726167653a2055524920736574206f66206e6f6e60448201526d32bc34b9ba32b73a103a37b5b2b760911b6064820152608401610691565b6000828152600a602052604090206114cd8282612386565b506040518281527ff8e1a15aba9398e019f0b49df1a4fde98ee17ae345cb5f6b5e2c27f5033e8ce79060200160405180910390a15050565b60006001600160e01b0319821663780e9d6360e01b148061055e575061055e8261171d565b610aca8484848461176d565b61153f816118a1565b6000818152600a60205260409020805461155890612180565b159050610848576000818152600a6020526040812061084891611dd8565b60006001600160a01b0384163b1561166c57604051630a85bd0160e11b81526001600160a01b0385169063150b7a02906115ba903390899088908890600401612446565b6020604051808303816000875af19250505080156115f5575060408051601f3d908101601f191682019092526115f291810190612483565b60015b611652573d808015611623576040519150601f19603f3d011682016040523d82523d6000602084013e611628565b606091505b50805160000361164a5760405162461bcd60e51b8152600401610691906122b7565b805181602001fd5b6001600160e01b031916630a85bd0160e11b149050610e84565b506001949350505050565b606061168282610d60565b600061169960408051602081019091526000815290565b905060008151116116b95760405180602001604052806000815250610935565b806116c384611944565b6040516020016116d4929190612309565b6040516020818303038152906040529392505050565b6116f483836119d7565b6117016000848484611576565b6107325760405162461bcd60e51b8152600401610691906122b7565b60006001600160e01b031982166380ac58cd60e01b148061174e57506001600160e01b03198216635b5e139f60e01b145b8061055e57506301ffc9a760e01b6001600160e01b031983161461055e565b60018111156117dc5760405162461bcd60e51b815260206004820152603560248201527f455243373231456e756d657261626c653a20636f6e7365637574697665207472604482015274185b9cd9995c9cc81b9bdd081cdd5c1c1bdc9d1959605a1b6064820152608401610691565b816001600160a01b0385166118385761183381600880546000838152600960205260408120829055600182018355919091527ff3f7a9fe364faab93b216da50a3214154f22a0a2b415b23a84c8169e8b636ee30155565b61185b565b836001600160a01b0316856001600160a01b03161461185b5761185b8582611b70565b6001600160a01b0384166118775761187281611c0d565b61189a565b846001600160a01b0316846001600160a01b03161461189a5761189a8482611cbc565b5050505050565b60006118ac8261093c565b90506118bc81600084600161152a565b6118c58261093c565b600083815260046020908152604080832080546001600160a01b03199081169091556001600160a01b0385168085526003845282852080546000190190558785526002909352818420805490911690555192935084927fddf252ad1be2c89b69c2b068fc378daa952ba7f163c4a11628f55a4df523b3ef908390a45050565b6060600061195183611d00565b600101905060008167ffffffffffffffff81111561197157611971611fd7565b6040519080825280601f01601f19166020018201604052801561199b576020820181803683370190505b5090508181016020015b600019016f181899199a1a9b1b9c1cb0b131b232b360811b600a86061a8153600a85049450846119a557509392505050565b6001600160a01b038216611a2d5760405162461bcd60e51b815260206004820181905260248201527f4552433732313a206d696e7420746f20746865207a65726f20616464726573736044820152606401610691565b6000818152600260205260409020546001600160a01b031615611a925760405162461bcd60e51b815260206004820152601c60248201527f4552433732313a20746f6b656e20616c7265616479206d696e746564000000006044820152606401610691565b611aa060008383600161152a565b6000818152600260205260409020546001600160a01b031615611b055760405162461bcd60e51b815260206004820152601c60248201527f4552433732313a20746f6b656e20616c7265616479206d696e746564000000006044820152606401610691565b6001600160a01b038216600081815260036020908152604080832080546001019055848352600290915280822080546001600160a01b0319168417905551839291907fddf252ad1be2c89b69c2b068fc378daa952ba7f163c4a11628f55a4df523b3ef908290a45050565b60006001611b7d8461099c565b611b8791906124a0565b600083815260076020526040902054909150808214611bda576001600160a01b03841660009081526006602090815260408083208584528252808320548484528184208190558352600790915290208190555b5060009182526007602090815260408084208490556001600160a01b039094168352600681528383209183525290812055565b600854600090611c1f906001906124a0565b60008381526009602052604081205460088054939450909284908110611c4757611c47612207565b906000526020600020015490508060088381548110611c6857611c68612207565b6000918252602080832090910192909255828152600990915260408082208490558582528120556008805480611ca057611ca06124c1565b6001900381819060005260206000200160009055905550505050565b6000611cc78361099c565b6001600160a01b039093166000908152600660209081526040808320868452825280832085905593825260079052919091209190915550565b60008072184f03e93ff9f4daa797ed6e38ed64bf6a1f0160401b8310611d3f5772184f03e93ff9f4daa797ed6e38ed64bf6a1f0160401b830492506040015b6d04ee2d6d415b85acef81000000008310611d6b576d04ee2d6d415b85acef8100000000830492506020015b662386f26fc100008310611d8957662386f26fc10000830492506010015b6305f5e1008310611da1576305f5e100830492506008015b6127108310611db557612710830492506004015b60648310611dc7576064830492506002015b600a831061055e5760010192915050565b508054611de490612180565b6000825580601f10611df4575050565b601f01602090049060005260206000209081019061084891905b80821115611e225760008155600101611e0e565b5090565b6001600160e01b03198116811461084857600080fd5b600060208284031215611e4e57600080fd5b813561093581611e26565b60005b83811015611e74578181015183820152602001611e5c565b50506000910152565b60008151808452611e95816020860160208601611e59565b601f01601f19169290920160200192915050565b6020815260006109356020830184611e7d565b600060208284031215611ece57600080fd5b5035919050565b6001600160a01b038116811461084857600080fd5b60008060408385031215611efd57600080fd5b8235611f0881611ed5565b946020939093013593505050565b600080600060608486031215611f2b57600080fd5b8335611f3681611ed5565b92506020840135611f4681611ed5565b929592945050506040919091013590565b60008060408385031215611f6a57600080fd5b823591506020830135611f7c81611ed5565b809150509250929050565b600060208284031215611f9957600080fd5b813561093581611ed5565b60008060408385031215611fb757600080fd5b8235611fc281611ed5565b915060208301358015158114611f7c57600080fd5b634e487b7160e01b600052604160045260246000fd5b6000806000806080858703121561200357600080fd5b843561200e81611ed5565b9350602085013561201e81611ed5565b925060408501359150606085013567ffffffffffffffff8082111561204257600080fd5b818701915087601f83011261205657600080fd5b81358181111561206857612068611fd7565b604051601f8201601f19908116603f0116810190838211818310171561209057612090611fd7565b816040528281528a60208487010111156120a957600080fd5b82602086016020830137600060208483010152809550505050505092959194509250565b6000806000604084860312156120e257600080fd5b83356120ed81611ed5565b9250602084013567ffffffffffffffff8082111561210a57600080fd5b818601915086601f83011261211e57600080fd5b81358181111561212d57600080fd5b87602082850101111561213f57600080fd5b6020830194508093505050509250925092565b6000806040838503121561216557600080fd5b823561217081611ed5565b91506020830135611f7c81611ed5565b600181811c9082168061219457607f821691505b6020821081036121b457634e487b7160e01b600052602260045260246000fd5b50919050565b6020808252602d908201527f4552433732313a2063616c6c6572206973206e6f7420746f6b656e206f776e6560408201526c1c881bdc88185c1c1c9bdd9959609a1b606082015260800190565b634e487b7160e01b600052603260045260246000fd5b8581526001600160a01b0385811660208301526080604083018190528201849052600090848660a0850137600083860160a0908101919091529316606083015250601f909201601f1916909101019392505050565b60208082526025908201527f4552433732313a207472616e736665722066726f6d20696e636f72726563742060408201526437bbb732b960d91b606082015260800190565b60208082526032908201527f4552433732313a207472616e7366657220746f206e6f6e20455243373231526560408201527131b2b4bb32b91034b6b83632b6b2b73a32b960711b606082015260800190565b6000835161231b818460208801611e59565b83519083019061232f818360208801611e59565b01949350505050565b601f82111561073257600081815260208120601f850160051c8101602086101561235f5750805b601f850160051c820191505b8181101561237e5782815560010161236b565b505050505050565b815167ffffffffffffffff8111156123a0576123a0611fd7565b6123b4816123ae8454612180565b84612338565b602080601f8311600181146123e957600084156123d15750858301515b600019600386901b1c1916600185901b17855561237e565b600085815260208120601f198616915b82811015612418578886015182559484019460019091019084016123f9565b50858210156124365787850151600019600388901b60f8161c191681555b5050505050600190811b01905550565b6001600160a01b038581168252841660208201526040810183905260806060820181905260009061247990830184611e7d565b9695505050505050565b60006020828403121561249557600080fd5b815161093581611e26565b8181038181111561055e57634e487b7160e01b600052601160045260246000fd5b634e487b7160e01b600052603160045260246000fdfea2646970667358221220c9a4627aea3d6cce161d4cefb2b810fdbc46f0d630760750f7c9cc45784d005564736f6c63430008150033",
  "linkReferences": {},
  "deployedLinkReferences": {}
}